{
  "_format": "hh-sol-artifact-1",
  "contractName": "DaoCredit",
  "sourceName": "contracts/DaoCredit.sol",
  "abi": [
    {
      "inputs": [],
      "stateMutability": "nonpayable",
      "type": "constructor"
    },
    {
      "anonymous": false,
      "inputs": [
        {
          "indexed": true,
          "internalType": "address",
          "name": "owner",
          "type": "address"
        },
        {
          "indexed": true,
          "internalType": "address",
          "name": "spender",
          "type": "address"
        },
        {
          "indexed": false,
          "internalType": "uint256",
          "name": "value",
          "type": "uint256"
        }
      ],
      "name": "Approval",
      "type": "event"
    },
    {
      "anonymous": false,
      "inputs": [
        {
          "indexed": false,
          "internalType": "address",
          "name": "member",
          "type": "address"
        },
        {
          "indexed": false,
          "internalType": "uint256",
          "name": "votenum",
          "type": "uint256"
        }
      ],
      "name": "AttendTransfer",
      "type": "event"
    },
    {
      "anonymous": false,
      "inputs": [
        {
          "indexed": true,
          "internalType": "address",
          "name": "_from",
          "type": "address"
        },
        {
          "indexed": true,
          "internalType": "address",
          "name": "_to",
          "type": "address"
        }
      ],
      "name": "OwnershipTransferred",
      "type": "event"
    },
    {
      "anonymous": false,
      "inputs": [
        {
          "indexed": false,
          "internalType": "address",
          "name": "member",
          "type": "address"
        },
        {
          "indexed": false,
          "internalType": "uint256",
          "name": "seccode",
          "type": "uint256"
        }
      ],
      "name": "ProposeCode",
      "type": "event"
    },
    {
      "anonymous": false,
      "inputs": [
        {
          "indexed": false,
          "internalType": "address",
          "name": "member",
          "type": "address"
        },
        {
          "indexed": false,
          "internalType": "uint256",
          "name": "seccode",
          "type": "uint256"
        }
      ],
      "name": "RegisterCode",
      "type": "event"
    },
    {
      "anonymous": false,
      "inputs": [
        {
          "indexed": true,
          "internalType": "address",
          "name": "from",
          "type": "address"
        },
        {
          "indexed": true,
          "internalType": "address",
          "name": "to",
          "type": "address"
        },
        {
          "indexed": false,
          "internalType": "uint256",
          "name": "value",
          "type": "uint256"
        }
      ],
      "name": "Transfer",
      "type": "event"
    },
    {
      "anonymous": false,
      "inputs": [
        {
          "indexed": false,
          "internalType": "address",
          "name": "member",
          "type": "address"
        },
        {
          "indexed": false,
          "internalType": "uint256",
          "name": "votenum",
          "type": "uint256"
        }
      ],
      "name": "VoteMajority",
      "type": "event"
    },
    {
      "inputs": [
        {
          "internalType": "address",
          "name": "accountSync",
          "type": "address"
        }
      ],
      "name": "RegisterMintSync",
      "outputs": [
        {
          "internalType": "uint256",
          "name": "",
          "type": "uint256"
        }
      ],
      "stateMutability": "nonpayable",
      "type": "function"
    },
    {
      "inputs": [
        {
          "internalType": "address",
          "name": "accountSync",
          "type": "address"
        }
      ],
      "name": "RegisterSpawnSync",
      "outputs": [
        {
          "internalType": "uint256",
          "name": "",
          "type": "uint256"
        }
      ],
      "stateMutability": "nonpayable",
      "type": "function"
    },
    {
      "inputs": [],
      "name": "acceptOwnership",
      "outputs": [],
      "stateMutability": "nonpayable",
      "type": "function"
    },
    {
      "inputs": [
        {
          "internalType": "address",
          "name": "_to",
          "type": "address"
        }
      ],
      "name": "airdropMintforMaster",
      "outputs": [],
      "stateMutability": "nonpayable",
      "type": "function"
    },
    {
      "inputs": [
        {
          "internalType": "address",
          "name": "owner",
          "type": "address"
        },
        {
          "internalType": "address",
          "name": "spender",
          "type": "address"
        }
      ],
      "name": "allowance",
      "outputs": [
        {
          "internalType": "uint256",
          "name": "",
          "type": "uint256"
        }
      ],
      "stateMutability": "view",
      "type": "function"
    },
    {
      "inputs": [
        {
          "internalType": "address",
          "name": "spender",
          "type": "address"
        },
        {
          "internalType": "uint256",
          "name": "amount",
          "type": "uint256"
        }
      ],
      "name": "approve",
      "outputs": [
        {
          "internalType": "bool",
          "name": "",
          "type": "bool"
        }
      ],
      "stateMutability": "nonpayable",
      "type": "function"
    },
    {
      "inputs": [
        {
          "internalType": "uint256",
          "name": "eventCode",
          "type": "uint256"
        }
      ],
      "name": "attend_simple",
      "outputs": [
        {
          "internalType": "uint256",
          "name": "",
          "type": "uint256"
        }
      ],
      "stateMutability": "nonpayable",
      "type": "function"
    },
    {
      "inputs": [
        {
          "internalType": "address",
          "name": "account",
          "type": "address"
        }
      ],
      "name": "balanceOf",
      "outputs": [
        {
          "internalType": "uint256",
          "name": "",
          "type": "uint256"
        }
      ],
      "stateMutability": "view",
      "type": "function"
    },
    {
      "inputs": [
        {
          "internalType": "uint256",
          "name": "amount",
          "type": "uint256"
        }
      ],
      "name": "burn",
      "outputs": [],
      "stateMutability": "nonpayable",
      "type": "function"
    },
    {
      "inputs": [
        {
          "internalType": "address",
          "name": "account",
          "type": "address"
        },
        {
          "internalType": "uint256",
          "name": "amount",
          "type": "uint256"
        }
      ],
      "name": "burnFrom",
      "outputs": [],
      "stateMutability": "nonpayable",
      "type": "function"
    },
    {
      "inputs": [
        {
          "internalType": "address",
          "name": "accountWant",
          "type": "address"
        },
        {
          "internalType": "uint256",
          "name": "code",
          "type": "uint256"
        },
        {
          "internalType": "address",
          "name": "accountBurn",
          "type": "address"
        },
        {
          "internalType": "uint256",
          "name": "amount",
          "type": "uint256"
        }
      ],
      "name": "burnMintSync",
      "outputs": [
        {
          "internalType": "uint256",
          "name": "",
          "type": "uint256"
        }
      ],
      "stateMutability": "nonpayable",
      "type": "function"
    },
    {
      "inputs": [
        {
          "internalType": "address",
          "name": "accountWant",
          "type": "address"
        },
        {
          "internalType": "uint256",
          "name": "code",
          "type": "uint256"
        },
        {
          "internalType": "address",
          "name": "accountBurn",
          "type": "address"
        },
        {
          "internalType": "uint256",
          "name": "amount",
          "type": "uint256"
        }
      ],
      "name": "burnSpawnSync",
      "outputs": [
        {
          "internalType": "uint256",
          "name": "",
          "type": "uint256"
        }
      ],
      "stateMutability": "nonpayable",
      "type": "function"
    },
    {
      "inputs": [],
      "name": "contractAddress",
      "outputs": [
        {
          "internalType": "address",
          "name": "",
          "type": "address"
        }
      ],
      "stateMutability": "view",
      "type": "function"
    },
    {
      "inputs": [],
      "name": "decimals",
      "outputs": [
        {
          "internalType": "uint8",
          "name": "",
          "type": "uint8"
        }
      ],
      "stateMutability": "view",
      "type": "function"
    },
    {
      "inputs": [
        {
          "internalType": "address",
          "name": "spender",
          "type": "address"
        },
        {
          "internalType": "uint256",
          "name": "subtractedValue",
          "type": "uint256"
        }
      ],
      "name": "decreaseAllowance",
      "outputs": [
        {
          "internalType": "bool",
          "name": "",
          "type": "bool"
        }
      ],
      "stateMutability": "nonpayable",
      "type": "function"
    },
    {
      "inputs": [],
      "name": "getCostPropose",
      "outputs": [
        {
          "internalType": "uint256",
          "name": "",
          "type": "uint256"
        }
      ],
      "stateMutability": "view",
      "type": "function"
    },
    {
      "inputs": [],
      "name": "getCurEventAddress",
      "outputs": [
        {
          "internalType": "string",
          "name": "event_address",
          "type": "string"
        }
      ],
      "stateMutability": "view",
      "type": "function"
    },
    {
      "inputs": [],
      "name": "getEventIndex",
      "outputs": [
        {
          "internalType": "uint256",
          "name": "",
          "type": "uint256"
        }
      ],
      "stateMutability": "view",
      "type": "function"
    },
    {
      "inputs": [
        {
          "internalType": "address",
          "name": "_add",
          "type": "address"
        }
      ],
      "name": "getMemberExecution",
      "outputs": [
        {
          "internalType": "uint256",
          "name": "",
          "type": "uint256"
        }
      ],
      "stateMutability": "view",
      "type": "function"
    },
    {
      "inputs": [
        {
          "internalType": "address",
          "name": "_add",
          "type": "address"
        }
      ],
      "name": "getMemberParticipation",
      "outputs": [
        {
          "internalType": "uint256",
          "name": "",
          "type": "uint256"
        }
      ],
      "stateMutability": "view",
      "type": "function"
    },
    {
      "inputs": [
        {
          "internalType": "address",
          "name": "_add",
          "type": "address"
        }
      ],
      "name": "getMemberPopularization",
      "outputs": [
        {
          "internalType": "uint256",
          "name": "",
          "type": "uint256"
        }
      ],
      "stateMutability": "view",
      "type": "function"
    },
    {
      "inputs": [],
      "name": "getNftMaster",
      "outputs": [
        {
          "internalType": "address",
          "name": "addrNftMaster",
          "type": "address"
        }
      ],
      "stateMutability": "view",
      "type": "function"
    },
    {
      "inputs": [],
      "name": "getVoteMajority",
      "outputs": [
        {
          "internalType": "uint256",
          "name": "",
          "type": "uint256"
        }
      ],
      "stateMutability": "view",
      "type": "function"
    },
    {
      "inputs": [
        {
          "internalType": "address",
          "name": "spender",
          "type": "address"
        },
        {
          "internalType": "uint256",
          "name": "addedValue",
          "type": "uint256"
        }
      ],
      "name": "increaseAllowance",
      "outputs": [
        {
          "internalType": "bool",
          "name": "",
          "type": "bool"
        }
      ],
      "stateMutability": "nonpayable",
      "type": "function"
    },
    {
      "inputs": [],
      "name": "indexEvent",
      "outputs": [
        {
          "internalType": "uint256",
          "name": "",
          "type": "uint256"
        }
      ],
      "stateMutability": "view",
      "type": "function"
    },
    {
      "inputs": [],
      "name": "initialSupply",
      "outputs": [
        {
          "internalType": "uint256",
          "name": "",
          "type": "uint256"
        }
      ],
      "stateMutability": "view",
      "type": "function"
    },
    {
      "inputs": [],
      "name": "isEventApproved",
      "outputs": [
        {
          "internalType": "bool",
          "name": "",
          "type": "bool"
        }
      ],
      "stateMutability": "view",
      "type": "function"
    },
    {
      "inputs": [],
      "name": "isEventOwner",
      "outputs": [
        {
          "internalType": "bool",
          "name": "",
          "type": "bool"
        }
      ],
      "stateMutability": "view",
      "type": "function"
    },
    {
      "inputs": [],
      "name": "isNftMember",
      "outputs": [
        {
          "internalType": "bool",
          "name": "",
          "type": "bool"
        }
      ],
      "stateMutability": "view",
      "type": "function"
    },
    {
      "inputs": [],
      "name": "memberAmount",
      "outputs": [
        {
          "internalType": "uint256",
          "name": "",
          "type": "uint256"
        }
      ],
      "stateMutability": "view",
      "type": "function"
    },
    {
      "inputs": [],
      "name": "name",
      "outputs": [
        {
          "internalType": "string",
          "name": "",
          "type": "string"
        }
      ],
      "stateMutability": "view",
      "type": "function"
    },
    {
      "inputs": [],
      "name": "nftMaster",
      "outputs": [
        {
          "internalType": "address",
          "name": "",
          "type": "address"
        }
      ],
      "stateMutability": "view",
      "type": "function"
    },
    {
      "inputs": [
        {
          "internalType": "string",
          "name": "event_address",
          "type": "string"
        },
        {
          "internalType": "uint256",
          "name": "participation_leader",
          "type": "uint256"
        },
        {
          "internalType": "uint256",
          "name": "execution_leader",
          "type": "uint256"
        },
        {
          "internalType": "uint256",
          "name": "popularization_leader",
          "type": "uint256"
        },
        {
          "internalType": "uint256",
          "name": "participation_attender",
          "type": "uint256"
        },
        {
          "internalType": "uint256",
          "name": "execution_attender",
          "type": "uint256"
        },
        {
          "internalType": "uint256",
          "name": "popularization_attender",
          "type": "uint256"
        }
      ],
      "name": "propose_critical",
      "outputs": [
        {
          "internalType": "uint256",
          "name": "",
          "type": "uint256"
        }
      ],
      "stateMutability": "nonpayable",
      "type": "function"
    },
    {
      "inputs": [
        {
          "internalType": "string",
          "name": "event_address",
          "type": "string"
        },
        {
          "internalType": "uint256",
          "name": "participation_leader",
          "type": "uint256"
        },
        {
          "internalType": "uint256",
          "name": "execution_leader",
          "type": "uint256"
        },
        {
          "internalType": "uint256",
          "name": "popularization_leader",
          "type": "uint256"
        },
        {
          "internalType": "uint256",
          "name": "participation_attender",
          "type": "uint256"
        },
        {
          "internalType": "uint256",
          "name": "execution_attender",
          "type": "uint256"
        },
        {
          "internalType": "uint256",
          "name": "popularization_attender",
          "type": "uint256"
        }
      ],
      "name": "propose_simple",
      "outputs": [
        {
          "internalType": "uint256",
          "name": "",
          "type": "uint256"
        }
      ],
      "stateMutability": "nonpayable",
      "type": "function"
    },
    {
      "inputs": [],
      "name": "symbol",
      "outputs": [
        {
          "internalType": "string",
          "name": "",
          "type": "string"
        }
      ],
      "stateMutability": "view",
      "type": "function"
    },
    {
      "inputs": [
        {
          "internalType": "uint256",
          "name": "code",
          "type": "uint256"
        },
        {
          "internalType": "address",
          "name": "account",
          "type": "address"
        }
      ],
      "name": "syncMintMember",
      "outputs": [
        {
          "internalType": "bool",
          "name": "",
          "type": "bool"
        }
      ],
      "stateMutability": "nonpayable",
      "type": "function"
    },
    {
      "inputs": [
        {
          "internalType": "address",
          "name": "account",
          "type": "address"
        }
      ],
      "name": "syncMintWhitelist",
      "outputs": [
        {
          "internalType": "bool",
          "name": "",
          "type": "bool"
        }
      ],
      "stateMutability": "nonpayable",
      "type": "function"
    },
    {
      "inputs": [
        {
          "internalType": "uint256",
          "name": "code",
          "type": "uint256"
        },
        {
          "internalType": "address",
          "name": "account",
          "type": "address"
        }
      ],
      "name": "syncSpawnMember",
      "outputs": [
        {
          "internalType": "bool",
          "name": "",
          "type": "bool"
        }
      ],
      "stateMutability": "nonpayable",
      "type": "function"
    },
    {
      "inputs": [],
      "name": "totalSupply",
      "outputs": [
        {
          "internalType": "uint256",
          "name": "",
          "type": "uint256"
        }
      ],
      "stateMutability": "view",
      "type": "function"
    },
    {
      "inputs": [
        {
          "internalType": "address",
          "name": "to",
          "type": "address"
        },
        {
          "internalType": "uint256",
          "name": "amount",
          "type": "uint256"
        }
      ],
      "name": "transfer",
      "outputs": [
        {
          "internalType": "bool",
          "name": "",
          "type": "bool"
        }
      ],
      "stateMutability": "nonpayable",
      "type": "function"
    },
    {
      "inputs": [
        {
          "internalType": "address",
          "name": "from",
          "type": "address"
        },
        {
          "internalType": "address",
          "name": "to",
          "type": "address"
        },
        {
          "internalType": "uint256",
          "name": "amount",
          "type": "uint256"
        }
      ],
      "name": "transferFrom",
      "outputs": [
        {
          "internalType": "bool",
          "name": "",
          "type": "bool"
        }
      ],
      "stateMutability": "nonpayable",
      "type": "function"
    },
    {
      "inputs": [
        {
          "internalType": "address",
          "name": "_newOwner",
          "type": "address"
        }
      ],
      "name": "transferOwnership",
      "outputs": [],
      "stateMutability": "nonpayable",
      "type": "function"
    },
    {
      "inputs": [
        {
          "internalType": "uint256",
          "name": "newAwardAttender",
          "type": "uint256"
        }
      ],
      "name": "upgradeAwardAttender",
      "outputs": [],
      "stateMutability": "nonpayable",
      "type": "function"
    },
    {
      "inputs": [
        {
          "internalType": "uint256",
          "name": "newAwardLeader",
          "type": "uint256"
        }
      ],
      "name": "upgradeAwardLeader",
      "outputs": [],
      "stateMutability": "nonpayable",
      "type": "function"
    },
    {
      "inputs": [
        {
          "internalType": "uint256",
          "name": "newCostPropose",
          "type": "uint256"
        }
      ],
      "name": "upgradeCostPropose",
      "outputs": [],
      "stateMutability": "nonpayable",
      "type": "function"
    },
    {
      "inputs": [
        {
          "internalType": "uint256",
          "name": "newCostVote",
          "type": "uint256"
        }
      ],
      "name": "upgradeCostVote",
      "outputs": [],
      "stateMutability": "nonpayable",
      "type": "function"
    },
    {
      "inputs": [
        {
          "internalType": "address",
          "name": "newNftMaster",
          "type": "address"
        }
      ],
      "name": "upgradeNftMaster",
      "outputs": [],
      "stateMutability": "nonpayable",
      "type": "function"
    },
    {
      "inputs": [
        {
          "internalType": "uint256",
          "name": "newVoteThreshold",
          "type": "uint256"
        }
      ],
      "name": "upgradeVoteThreshold",
      "outputs": [],
      "stateMutability": "nonpayable",
      "type": "function"
    },
    {
      "inputs": [
        {
          "internalType": "bool",
          "name": "agree",
          "type": "bool"
        }
      ],
      "name": "vote_critical",
      "outputs": [
        {
          "internalType": "uint256",
          "name": "",
          "type": "uint256"
        }
      ],
      "stateMutability": "nonpayable",
      "type": "function"
    },
    {
      "inputs": [
        {
          "internalType": "bool",
          "name": "agree",
          "type": "bool"
        }
      ],
      "name": "vote_simple",
      "outputs": [
        {
          "internalType": "uint256",
          "name": "",
          "type": "uint256"
        }
      ],
      "stateMutability": "nonpayable",
      "type": "function"
    },
    {
      "inputs": [
        {
          "internalType": "address",
          "name": "_to",
          "type": "address"
        }
      ],
      "name": "weightOfCredit",
      "outputs": [
        {
          "internalType": "uint256",
          "name": "",
          "type": "uint256"
        }
      ],
      "stateMutability": "view",
      "type": "function"
    }
  ],
  "bytecode": "0x60806040523480156200001157600080fd5b50600080546001600160a01b0319908116339182161717905560408051808201909152600881526720b134aa37b5b2b760c11b6020820152601b90620000589082620003c9565b5060408051808201909152600381526241424960e81b6020820152601c90620000829082620003c9565b50633b9aca00601a819055600054620000a7916001600160a01b039091169062000238565b600080546001600160a01b03168152600460205260408120805460ff19166001179055601d80546001600160a01b03199081163017909155601e805490911690556127106014819055601555620493e060165561c35060175560036018555b60058160ff1610156200023157600060058260ff16600581106200012e576200012e62000495565b01805460ff19169115159190911790556000600560ff831681811062000158576200015862000495565b0180549115156101000261ff00199092169190911790556000600560ff831681811062000189576200018962000495565b018054911515620100000262ff0000199092169190911790556000600560ff8316818110620001bc57620001bc62000495565b01805491151563010000000263ff000000199092169190911790556000600560ff8316818110620001f157620001f162000495565b0180546001600160a01b039290921664010000000002600160201b600160c01b0319909216919091179055806200022881620004c1565b91505062000106565b50620004ff565b6001600160a01b038216620002935760405162461bcd60e51b815260206004820152601f60248201527f45524332303a206d696e7420746f20746865207a65726f206164647265737300604482015260640160405180910390fd5b8060196000828254620002a79190620004e3565b90915550506001600160a01b03821660009081526002602052604081208054839290620002d6908490620004e3565b90915550506040518181526001600160a01b038316906000907fddf252ad1be2c89b69c2b068fc378daa952ba7f163c4a11628f55a4df523b3ef9060200160405180910390a35050565b505050565b634e487b7160e01b600052604160045260246000fd5b600181811c908216806200035057607f821691505b6020821081036200037157634e487b7160e01b600052602260045260246000fd5b50919050565b601f8211156200032057600081815260208120601f850160051c81016020861015620003a05750805b601f850160051c820191505b81811015620003c157828155600101620003ac565b505050505050565b81516001600160401b03811115620003e557620003e562000325565b620003fd81620003f684546200033b565b8462000377565b602080601f8311600181146200043557600084156200041c5750858301515b600019600386901b1c1916600185901b178555620003c1565b600085815260208120601f198616915b82811015620004665788860151825594840194600190910190840162000445565b5085821015620004855787850151600019600388901b60f8161c191681555b5050505050600190811b01905550565b634e487b7160e01b600052603260045260246000fd5b634e487b7160e01b600052601160045260246000fd5b600060ff821660ff8103620004da57620004da620004ab565b60010192915050565b80820180821115620004f957620004f9620004ab565b92915050565b6131a1806200050f6000396000f3fe608060405234801561001057600080fd5b50600436106102f15760003560e01c806379cc67901161019d578063c25ea1b2116100e9578063e2edb398116100a2578063eeed4e6b1161007c578063eeed4e6b146106ab578063f0b3a985146106b3578063f2fde38b146106c6578063f6b4dfb4146106d957600080fd5b8063e2edb39814610672578063ea3fe69e14610685578063eae58b7a1461069857600080fd5b8063c25ea1b21461060d578063d6fe8fad14610620578063d777b39114610633578063dbbe642b1461063c578063dbe1644614610647578063dd62ed3e1461065f57600080fd5b80639aa5371b11610156578063a875ffdb11610130578063a875ffdb146105c3578063a9059cbb146105d6578063ba47c548146105e9578063c0d7cd76146105fa57600080fd5b80639aa5371b14610572578063a457c2d714610585578063a502c11a1461059857600080fd5b806379cc6790146105205780637d5aa9a614610533578063850bd79414610546578063897adbfd1461055957806394340bc01461056257806395d89b411461056a57600080fd5b80633f6fcd0c1161025c57806365cc065d1161021557806372d5c6f5116101ef57806372d5c6f5146104c657806373383d82146104f257806378d68e2a1461050557806379ba50971461051857600080fd5b806365cc065d146104775780636a82d9e11461048a57806370a082311461049d57600080fd5b80633f6fcd0c1461040257806342966c681461040a57806349945e9a1461041d5780634b8b1371146104255780634d5f5e9514610438578063638c4aa91461044b57600080fd5b806323b872dd116102ae57806323b872dd1461039d578063313ce567146103b0578063340dadc8146103bf578063371105e2146103d3578063378dc3dc146103e657806339509351146103ef57600080fd5b806306fdde03146102f657806307a6b41714610314578063095ea7b3146103295780630cf086e91461034c57806318160ddd1461035f5780631f14a6fd14610371575b600080fd5b6102fe6106ec565b60405161030b9190612a23565b60405180910390f35b610327610322366004612a71565b61077e565b005b61033c610337366004612aa6565b61079a565b604051901515815260200161030b565b61032761035a366004612a71565b6107b4565b6019545b60405190815260200161030b565b61036361037f366004612ad0565b6001600160a01b031660009081526004602052604090206001015490565b61033c6103ab366004612af2565b6107d0565b6040516003815260200161030b565b61033c6013546001600160a01b0316331490565b6103636103e1366004612b2e565b6107f4565b610363601a5481565b61033c6103fd366004612aa6565b6109e2565b601f54610363565b610327610418366004612a71565b610a04565b610363610a11565b610363610433366004612ad0565b610a3a565b610327610446366004612a71565b610b82565b610363610459366004612ad0565b6001600160a01b031660009081526004602052604090206002015490565b61033c610485366004612ad0565b610b9e565b610363610498366004612b2e565b610c50565b6103636104ab366004612ad0565b6001600160a01b031660009081526002602052604090205490565b6103636104d4366004612ad0565b6001600160a01b031660009081526004602052604090206003015490565b610327610500366004612ad0565b610d4f565b610363610513366004612b88565b610dc3565b610327611034565b61032761052e366004612aa6565b6110af565b610363610541366004612ad0565b6110c8565b610327610554366004612ad0565b6112ac565b610363601f5481565b601454610363565b6102fe6112e5565b610327610580366004612a71565b6112f4565b61033c610593366004612aa6565b611310565b601e546105ab906001600160a01b031681565b6040516001600160a01b03909116815260200161030b565b6103636105d1366004612b88565b61138b565b61033c6105e4366004612aa6565b61159b565b601e546001600160a01b03166105ab565b610363610608366004612a71565b6115a9565b61036361061b366004612c67565b611b6a565b61033c61062e366004612c89565b611e68565b61036360205481565b600a5460ff1661033c565b3360009081526004602052604090205460ff1661033c565b61036361066d366004612cb5565b611f1c565b610327610680366004612a71565b611f47565b61033c610693366004612c89565b611f63565b6103636106a6366004612ad0565b6120cd565b6102fe6121a1565b6103636106c1366004612c67565b6121b3565b6103276106d4366004612ad0565b612533565b601d546105ab906001600160a01b031681565b6060601b80546106fb90612cdf565b80601f016020809104026020016040519081016040528092919081815260200182805461072790612cdf565b80156107745780601f1061074957610100808354040283529160200191610774565b820191906000526020600020905b81548152906001019060200180831161075757829003601f168201915b5050505050905090565b6000546001600160a01b0316331461079557600080fd5b601655565b6000336107a881858561256c565b60019150505b92915050565b6000546001600160a01b031633146107cb57600080fd5b601755565b6000336107de858285612690565b6107e985858561270a565b506001949350505050565b60006001600160a01b0383166108255760405162461bcd60e51b815260040161081c90612d19565b60405180910390fd5b6021546001600160a01b038681169116146108825760405162461bcd60e51b815260206004820152601a60248201527f64726f7020626f6d6220616464726573732069732077726f6e67000000000000604482015260640161081c565b60235484146108d35760405162461bcd60e51b815260206004820152601a60248201527f6275726e6e65722073796e6320636f64652069732077726f6e67000000000000604482015260640161081c565b6001600160a01b0383166000908152600260205260409020548281101561094c5760405162461bcd60e51b815260206004820152602760248201527f45524332303a206275726e206d696e7420616d6f756e7420657863656564732060448201526662616c616e636560c81b606482015260840161081c565b6001600160a01b038416600090815260026020526040812084830390556019805485929061097b908490612d70565b90915550506040518381526000906001600160a01b038616907fddf252ad1be2c89b69c2b068fc378daa952ba7f163c4a11628f55a4df523b3ef9060200160405180910390a35050506001600160a01b031660009081526002602052604090205492915050565b6000336107a88185856109f58383611f1c565b6109ff9190612d83565b61256c565b610a0e33826128dd565b50565b60006025546026541115610a3357602654610a2e906103e8612d83565b905090565b5060255490565b3360009081526004602052604081205460ff161515600114610a975760405162461bcd60e51b81526020600482015260166024820152751bdb9b1e481b595b58995c8818d85b88185d1d195b9960521b604482015260640161081c565b6001600160a01b0382166000908152600460205260408120600101548190819081908190610ac6906003612d96565b9350610ad3600a85612dc3565b6001600160a01b038816600090815260046020526040902060020154909350610afd906003612d96565b9350610b0a600a85612dc3565b6001600160a01b038816600090815260046020819052604090912060030154919350610b369190612d96565b9350610b43600a85612dc3565b9050610b4f8284612d83565b935082841015610b5e57600080fd5b610b688185612d83565b945083851015610b7757600080fd5b509295945050505050565b6000546001600160a01b03163314610b9957600080fd5b601855565b601e546000906001600160a01b03163314610bfb5760405162461bcd60e51b815260206004820152601b60248201527f6f6e6c792073796e63206d696e74206279206e66744d61737465720000000000604482015260640161081c565b6001600160a01b03821660009081526004602090815260408220805460ff19166001179055805491610c2c83612dd7565b9091555050506001600160a01b031660009081526004602052604090205460ff1690565b60006001600160a01b038316610c785760405162461bcd60e51b815260040161081c90612d19565b601e546001600160a01b03163314610cdc5760405162461bcd60e51b815260206004820152602160248201527f6f6e6c79206275726e20737061776e2073796e63206279206e66744d617374656044820152603960f91b606482015260840161081c565b6001600160a01b0383166000908152600260205260409020548281101561094c5760405162461bcd60e51b815260206004820152602160248201527f6275726e20737061776e20616d6f756e7420657863656564732062616c616e636044820152606560f81b606482015260840161081c565b601e546001600160a01b03163314610da95760405162461bcd60e51b815260206004820152601f60248201527f6f6e6c792063616e2061697264726f702066726f6d206e66744d617374657200604482015260640161081c565b600054610a0e906001600160a01b0316826207a12061270a565b3360009081526004602052604081205460ff161515600114610e215760405162461bcd60e51b81526020600482015260176024820152766f6e6c79206d656d6265722063616e2070726f706f736560481b604482015260640161081c565b601454336000908152600260205260409020541015610e825760405162461bcd60e51b815260206004820152601d60248201527f6e6f7420656e6f756768207061796d656e7420746f2070726f706f7365000000604482015260640161081c565b6004871115610ea35760405162461bcd60e51b815260040161081c90612df0565b6004861115610ec45760405162461bcd60e51b815260040161081c90612e40565b6004851115610ee55760405162461bcd60e51b815260040161081c90612e8c565b6002841115610f065760405162461bcd60e51b815260040161081c90612edd565b6002831115610f275760405162461bcd60e51b815260040161081c90612f2f565b6002821115610f485760405162461bcd60e51b815260040161081c90612f7d565b601380546001600160a01b031916331790556012610f66898261301e565b50600c879055600d869055600e859055600f84905560108390556011829055600a805461ffff1916610100179055610fa06103e8426130de565b600b55610faf602b60006129f1565b610fbb602c60006129f1565b60006027819055602855601454610fd39033906128dd565b601f8054906000610fe383612dd7565b9091555050600b546040805133815260208101929092527f3a58c0c9c3d08dc8738ad24cec55a4e8535db97b6296adc07942d99881f630fd910160405180910390a150600b54979650505050505050565b6001546001600160a01b0316331461104b57600080fd5b600154600080546040516001600160a01b0393841693909116917f8be0079c531659141344cd1fd0a4f28419497f9722a3daafe3b4186f6b6457e091a360018054600080546001600160a01b03199081166001600160a01b03841617909155169055565b6110ba823383612690565b6110c482826128dd565b5050565b601e546000906001600160a01b031633146111255760405162461bcd60e51b815260206004820152601f60248201527f6f6e6c792072656769737465722073796e63206279206e66744d617374657200604482015260640161081c565b60008060005b60058160ff1610156111bc57846001600160a01b031660058260ff1660058110611157576111576130f2565b015464010000000090046001600160a01b03160361117857600192506111bc565b60058160ff166005811061118e5761118e6130f2565b015460ff161580156111a1575060ff8216155b156111aa578091505b806111b481613108565b91505061112b565b50811515600003611232578360058260ff16600581106111de576111de6130f2565b0180546001600160a01b039290921664010000000002640100000000600160c01b03199092169190911790556001600560ff8316818110611221576112216130f2565b01805460ff19169115159190911790555b602180546001600160a01b0319166001600160a01b0386161790556112596103e8426130de565b6023819055604080516001600160a01b038716815260208101929092527ffab2d127a3aa1f2e5aafce0c65882e9d5cc9578a43c1f9187bccefa1fe8dc1b3910160405180910390a1505060235492915050565b6000546001600160a01b031633146112c357600080fd5b601e80546001600160a01b0319166001600160a01b0392909216919091179055565b6060601c80546106fb90612cdf565b6000546001600160a01b0316331461130b57600080fd5b601455565b6000338161131e8286611f1c565b90508381101561137e5760405162461bcd60e51b815260206004820152602560248201527f45524332303a2064656372656173656420616c6c6f77616e63652062656c6f77604482015264207a65726f60d81b606482015260840161081c565b6107e9828686840361256c565b3360009081526004602052604081205460ff1615156001146113e95760405162461bcd60e51b81526020600482015260176024820152766f6e6c79206d656d6265722063616e2070726f706f736560481b604482015260640161081c565b60145433600090815260026020526040902054101561144a5760405162461bcd60e51b815260206004820152601d60248201527f6e6f7420656e6f756768207061796d656e7420746f2070726f706f7365000000604482015260640161081c565b600487111561146b5760405162461bcd60e51b815260040161081c90612df0565b600486111561148c5760405162461bcd60e51b815260040161081c90612e40565b60048511156114ad5760405162461bcd60e51b815260040161081c90612e8c565b60028411156114ce5760405162461bcd60e51b815260040161081c90612edd565b60028311156114ef5760405162461bcd60e51b815260040161081c90612f2f565b60028211156115105760405162461bcd60e51b815260040161081c90612f7d565b601380546001600160a01b03191633179055601261152e898261301e565b50600c879055600d869055600e859055600f84905560108390556011829055600a805461ffff19166101001790556115686103e8426130de565b600b55611577602960006129f1565b611583602a60006129f1565b60006025819055602655601454610fd39033906128dd565b6000336107a881858561270a565b3360009081526004602052604081205460ff1615156001146116065760405162461bcd60e51b81526020600482015260166024820152751bdb9b1e481b595b58995c8818d85b88185d1d195b9960521b604482015260640161081c565b600a5460ff16151560011461165d5760405162461bcd60e51b815260206004820152601c60248201527f63616e206f6e6c7920617474656e6420616374697665206576656e7400000000604482015260640161081c565b601f5433600090815260046020526040902060050154106116cf5760405162461bcd60e51b815260206004820152602660248201527f796f752063616e206f6e6c7920617474656e64206f6e636520666f72206f6e6560448201526508195d995b9d60d21b606482015260840161081c565b600b5482146117205760405162461bcd60e51b815260206004820152601960248201527f6576656e7420636f6465206973206e6f7420636f727265637400000000000000604482015260640161081c565b601f543360009081526004602052604081206005810192909255600190910154819081908190819081908190611757906003612d96565b9450611764600a86612dc3565b33600090815260046020526040902060020154909450611785906003612d96565b9450611792600a86612dc3565b336000908152600460208190526040909120600301549194506117b59190612d96565b94506117c2600a86612dc3565b91506117ce8385612d83565b9450838510156117dd57600080fd5b6117e78286612d83565b9550848610156117f657600080fd5b506013548590336001600160a01b039091160361199b573360009081526004602052604090206001015461010011156118715733600090815260046020526040902060010154600c5490955061184c9086612d83565b95508486101561185b57600080fd5b3360009081526004602052604090206001018690555b3360009081526004602052604090206002015461010011156118d55733600090815260046020526040902060020154600d549095506118b09086612d83565b9550848610156118bf57600080fd5b3360009081526004602052604090206002018690555b3360009081526004602052604090206003015461010011156119395733600090815260046020526040902060030154600e549095506119149086612d83565b95508486101561192357600080fd5b3360009081526004602052604090206003018690555b8094508460146002015461194d9190612d96565b955061195b61010087612dc3565b60165490955061196b9086612d83565b95508486101561197a57600080fd5b6000549596508695611996906001600160a01b0316338861270a565b611b24565b3360009081526004602052604090206001015461010011156119ff5733600090815260046020526040902060010154600f549095506119da9086612d83565b9550848610156119e957600080fd5b3360009081526004602052604090206001018690555b336000908152600460205260409020600201546101001115611a635733600090815260046020526040902060020154601054909550611a3e9086612d83565b955084861015611a4d57600080fd5b3360009081526004602052604090206002018690555b336000908152600460205260409020600301546101001115611ac75733600090815260046020526040902060030154601154909550611aa29086612d83565b955084861015611ab157600080fd5b3360009081526004602052604090206003018690555b80945084601460030154611adb9190612d96565b9550611ae961010087612dc3565b601754909550611af99086612d83565b955084861015611b0857600080fd5b6000549596508695611b24906001600160a01b0316338861270a565b60408051338152602081018990527ff701ab0b5311a70ccdace2acf796d0ba7bc56eb618370c2bfd9d8f01b3e0fa2b910160405180910390a15094979650505050505050565b3360009081526004602052604081205460ff161515600114611bc55760405162461bcd60e51b81526020600482015260146024820152736f6e6c79206d656d6265722063616e20766f746560601b604482015260640161081c565b601554336000908152600260205260409020541015611c265760405162461bcd60e51b815260206004820152601a60248201527f6e6f7420656e6f756768207061796d656e7420746f20766f7465000000000000604482015260640161081c565b601f54336000908152600460208190526040909120015410611c5a5760405162461bcd60e51b815260040161081c90613127565b8115611ca757602980546001810182556000919091527fcb7c14ce178f56e2e8d86ab33ebc0ae081ba8556a00cd122038841867181caac0180546001600160a01b03191633179055611cea565b602a80546001810182556000919091527fbeced09521047d05b8960b7e7bcc1d1292cf3e4b2a6b63f48335cbde5f7545d20180546001600160a01b031916331790555b601f543360008181526004602081905260409091200191909155601554611d1191906128dd565b602a546029541115611d3a57602a54602954611d2d9190612d70565b6025556000602655611d53565b602954602a54611d4a9190612d70565b60265560006025555b60185460255410611d8557611d6a602960006129f1565b611d76602a60006129f1565b600a805461ffff191660011790555b60185460265410611db457611d9c602960006129f1565b611da8602a60006129f1565b600a805461ffff191690555b6025546026541115611e23577f3a58c0c9c3d08dc8738ad24cec55a4e8535db97b6296adc07942d99881f630fd336026546103e8611df29190612d83565b604080516001600160a01b03909316835260208301919091520160405180910390a16026546107ae906103e8612d83565b6025546040805133815260208101929092527f8c76dc2246a25ad5d8d68411cc9e0039d8d695b49656f7fd6bf4b8f6a12ca977910160405180910390a1505060255490565b601e546000906001600160a01b03163314611ec55760405162461bcd60e51b815260206004820152601c60248201527f6f6e6c792073796e6320737061776e206279206e66744d617374657200000000604482015260640161081c565b6001600160a01b03821660009081526004602090815260408220805460ff19166001179055805491611ef683612dd7565b9091555050506001600160a01b031660009081526004602052604090205460ff16919050565b6001600160a01b03918216600090815260036020908152604080832093909416825291909152205490565b6000546001600160a01b03163314611f5e57600080fd5b601555565b601e546000906001600160a01b03163314611fc05760405162461bcd60e51b815260206004820152601b60248201527f6f6e6c792073796e63206d696e74206279206e66744d61737465720000000000604482015260640161081c565b6000805b60058160ff16101561207457836001600160a01b031660058260ff1660058110611ff057611ff06130f2565b015464010000000090046001600160a01b031614801561202c575060058160ff1660058110612021576120216130f2565b015460ff1615156001145b1561206257600060058260ff1660058110612049576120496130f2565b01805460ff191691151591909117905560019150612074565b8061206c81613108565b915050611fc4565b506001600160a01b03831660009081526004602090815260408220805460ff191660011790558054916120a683612dd7565b909155505050506001600160a01b031660009081526004602052604090205460ff16919050565b601e546000906001600160a01b0316331461212a5760405162461bcd60e51b815260206004820181905260248201527f6f6e6c7920726567697374657220737061776e206279206e66744d6173746572604482015260640161081c565b602280546001600160a01b0319166001600160a01b0384161790556121516103e8426130de565b6024819055604080516001600160a01b038516815260208101929092527ffab2d127a3aa1f2e5aafce0c65882e9d5cc9578a43c1f9187bccefa1fe8dc1b3910160405180910390a1505060245490565b6060600a60080180546106fb90612cdf565b3360009081526004602052604081205460ff16151560011461220e5760405162461bcd60e51b81526020600482015260146024820152736f6e6c79206d656d6265722063616e20766f746560601b604482015260640161081c565b60155433600090815260026020526040902054101561226f5760405162461bcd60e51b815260206004820152601a60248201527f6e6f7420656e6f756768207061796d656e7420746f20766f7465000000000000604482015260640161081c565b601f543360009081526004602081905260409091200154106122a35760405162461bcd60e51b815260040161081c90613127565b81156122f057602b80546001810182556000919091527f11c44e4875b74d31ff9fd779bf2566af7bd15b87fc985d01f5094b89e3669e4f0180546001600160a01b03191633179055612333565b602c80546001810182556000919091527f7416c943b4a09859521022fd2e90eac0dd9026dad28fa317782a135f28a860910180546001600160a01b031916331790555b601f54336000818152600460208190526040909120019190915560155461235a91906128dd565b6000600260205461236b9190612dc3565b602c54602b5491925060009160039161238391612d83565b61238e906002612d96565b6123989190612dc3565b602b5490915082906123ab906002612d96565b602c546123b9906002612d96565b6123c39190612d83565b1061247457602c54602b5411156123f157602c54602b546123e49190612d70565b602755600060285561240a565b602b54602c546124019190612d70565b60285560006027555b806027541061243a5761241f602b60006129f1565b61242b602c60006129f1565b600a805461ffff191660011790555b806020546124489190612d70565b602854106124745761245c602b60006129f1565b612468602c60006129f1565b600a805461ffff191690555b60275460285411156124eb577f3a58c0c9c3d08dc8738ad24cec55a4e8535db97b6296adc07942d99881f630fd336028546103e86124b29190612d83565b604080516001600160a01b03909316835260208301919091520160405180910390a16028546124e3906103e8612d83565b949350505050565b6027546040805133815260208101929092527f8c76dc2246a25ad5d8d68411cc9e0039d8d695b49656f7fd6bf4b8f6a12ca977910160405180910390a1505060275492915050565b6000546001600160a01b0316331461254a57600080fd5b600180546001600160a01b0319166001600160a01b0392909216919091179055565b6001600160a01b0383166125ce5760405162461bcd60e51b8152602060048201526024808201527f45524332303a20617070726f76652066726f6d20746865207a65726f206164646044820152637265737360e01b606482015260840161081c565b6001600160a01b03821661262f5760405162461bcd60e51b815260206004820152602260248201527f45524332303a20617070726f766520746f20746865207a65726f206164647265604482015261737360f01b606482015260840161081c565b6001600160a01b0383811660008181526003602090815260408083209487168084529482529182902085905590518481527f8c5be1e5ebec7d5bd14f71427d1e84f3dd0314c0f7b2291e5b200ac8c7c3b925910160405180910390a3505050565b600061269c8484611f1c565b9050600019811461270457818110156126f75760405162461bcd60e51b815260206004820152601d60248201527f45524332303a20696e73756666696369656e7420616c6c6f77616e6365000000604482015260640161081c565b612704848484840361256c565b50505050565b6001600160a01b03831661276e5760405162461bcd60e51b815260206004820152602560248201527f45524332303a207472616e736665722066726f6d20746865207a65726f206164604482015264647265737360d81b606482015260840161081c565b6001600160a01b0382166127d05760405162461bcd60e51b815260206004820152602360248201527f45524332303a207472616e7366657220746f20746865207a65726f206164647260448201526265737360e81b606482015260840161081c565b6001600160a01b038316600090815260026020526040902054818110156128485760405162461bcd60e51b815260206004820152602660248201527f45524332303a207472616e7366657220616d6f756e7420657863656564732062604482015265616c616e636560d01b606482015260840161081c565b6001600160a01b0380851660009081526002602052604080822085850390559185168152908120805484929061287f908490612d83565b92505081905550826001600160a01b0316846001600160a01b03167fddf252ad1be2c89b69c2b068fc378daa952ba7f163c4a11628f55a4df523b3ef846040516128cb91815260200190565b60405180910390a3612704565b505050565b6001600160a01b0382166129035760405162461bcd60e51b815260040161081c90612d19565b6001600160a01b038216600090815260026020526040902054818110156129775760405162461bcd60e51b815260206004820152602260248201527f45524332303a206275726e20616d6f756e7420657863656564732062616c616e604482015261636560f01b606482015260840161081c565b6001600160a01b03831660009081526002602052604081208383039055601980548492906129a6908490612d70565b90915550506040518281526000906001600160a01b038516907fddf252ad1be2c89b69c2b068fc378daa952ba7f163c4a11628f55a4df523b3ef9060200160405180910390a3505050565b5080546000825590600052602060002090810190610a0e91905b80821115612a1f5760008155600101612a0b565b5090565b600060208083528351808285015260005b81811015612a5057858101830151858201604001528201612a34565b506000604082860101526040601f19601f8301168501019250505092915050565b600060208284031215612a8357600080fd5b5035919050565b80356001600160a01b0381168114612aa157600080fd5b919050565b60008060408385031215612ab957600080fd5b612ac283612a8a565b946020939093013593505050565b600060208284031215612ae257600080fd5b612aeb82612a8a565b9392505050565b600080600060608486031215612b0757600080fd5b612b1084612a8a565b9250612b1e60208501612a8a565b9150604084013590509250925092565b60008060008060808587031215612b4457600080fd5b612b4d85612a8a565b935060208501359250612b6260408601612a8a565b9396929550929360600135925050565b634e487b7160e01b600052604160045260246000fd5b600080600080600080600060e0888a031215612ba357600080fd5b873567ffffffffffffffff80821115612bbb57600080fd5b818a0191508a601f830112612bcf57600080fd5b813581811115612be157612be1612b72565b604051601f8201601f19908116603f01168101908382118183101715612c0957612c09612b72565b816040528281528d6020848701011115612c2257600080fd5b82602086016020830137600060209382018401529d918c01359c505060408b01359a60608101359a506080810135995060a0810135985060c001359650945050505050565b600060208284031215612c7957600080fd5b81358015158114612aeb57600080fd5b60008060408385031215612c9c57600080fd5b82359150612cac60208401612a8a565b90509250929050565b60008060408385031215612cc857600080fd5b612cd183612a8a565b9150612cac60208401612a8a565b600181811c90821680612cf357607f821691505b602082108103612d1357634e487b7160e01b600052602260045260246000fd5b50919050565b60208082526021908201527f45524332303a206275726e2066726f6d20746865207a65726f206164647265736040820152607360f81b606082015260800190565b634e487b7160e01b600052601160045260246000fd5b818103818111156107ae576107ae612d5a565b808201808211156107ae576107ae612d5a565b80820281158282048414176107ae576107ae612d5a565b634e487b7160e01b600052601260045260246000fd5b600082612dd257612dd2612dad565b500490565b600060018201612de957612de9612d5a565b5060010190565b60208082526030908201527f746865206c65616465722070617274696369706174696f6e207570677261646560408201526f206973206f7574206f662072616e676560801b606082015260800190565b6020808252602c908201527f746865206c656164657220657865637574696f6e20757067726164652069732060408201526b6f7574206f662072616e676560a01b606082015260800190565b60208082526031908201527f746865206c656164657220706f70756c6172697a6174696f6e2075706772616460408201527065206973206f7574206f662072616e676560781b606082015260800190565b60208082526032908201527f74686520617474656e6465722070617274696369706174696f6e2075706772616040820152716465206973206f7574206f662072616e676560701b606082015260800190565b6020808252602e908201527f74686520617474656e64657220657865637574696f6e2075706772616465206960408201526d73206f7574206f662072616e676560901b606082015260800190565b60208082526033908201527f74686520617474656e64657220706f70756c6172697a6174696f6e2075706772604082015272616465206973206f7574206f662072616e676560681b606082015260800190565b601f8211156128d857600081815260208120601f850160051c81016020861015612ff75750805b601f850160051c820191505b8181101561301657828155600101613003565b505050505050565b815167ffffffffffffffff81111561303857613038612b72565b61304c816130468454612cdf565b84612fd0565b602080601f83116001811461308157600084156130695750858301515b600019600386901b1c1916600185901b178555613016565b600085815260208120601f198616915b828110156130b057888601518255948401946001909101908401613091565b50858210156130ce5787850151600019600388901b60f8161c191681555b5050505050600190811b01905550565b6000826130ed576130ed612dad565b500690565b634e487b7160e01b600052603260045260246000fd5b600060ff821660ff810361311e5761311e612d5a565b60010192915050565b60208082526024908201527f796f752063616e206f6e6c7920766f7465206f6e636520666f72206f6e6520656040820152631d995b9d60e21b60608201526080019056fea2646970667358221220187c847079d29820ac4c3a3a224979cf093b68f3be3252dc4c5cdb4b9f4818b364736f6c63430008110033",
  "linkReferences": {},
  "deployedLinkReferences": {}
}