{
  "_format": "hh-sol-artifact-1",
  "contractName": "DaoNft",
  "sourceName": "contracts/DaoNft.sol",
  "abi": [
    {
      "inputs": [
        {
          "internalType": "address",
          "name": "addrBalance",
          "type": "address"
        }
      ],
      "stateMutability": "nonpayable",
      "type": "constructor"
    },
    {
      "inputs": [],
      "name": "AlreadyClaimed",
      "type": "error"
    },
    {
      "inputs": [],
      "name": "ApprovalCallerNotOwnerNorApproved",
      "type": "error"
    },
    {
      "inputs": [],
      "name": "ApprovalQueryForNonexistentToken",
      "type": "error"
    },
    {
      "inputs": [],
      "name": "ApprovalToCurrentOwner",
      "type": "error"
    },
    {
      "inputs": [],
      "name": "ApproveToCaller",
      "type": "error"
    },
    {
      "inputs": [],
      "name": "BalanceQueryForZeroAddress",
      "type": "error"
    },
    {
      "inputs": [],
      "name": "MintToZeroAddress",
      "type": "error"
    },
    {
      "inputs": [],
      "name": "MintZeroQuantity",
      "type": "error"
    },
    {
      "inputs": [],
      "name": "NotWhitelisted",
      "type": "error"
    },
    {
      "inputs": [],
      "name": "OwnerQueryForNonexistentToken",
      "type": "error"
    },
    {
      "inputs": [],
      "name": "TransferCallerNotOwnerNorApproved",
      "type": "error"
    },
    {
      "inputs": [],
      "name": "TransferFromIncorrectOwner",
      "type": "error"
    },
    {
      "inputs": [],
      "name": "TransferToNonERC721ReceiverImplementer",
      "type": "error"
    },
    {
      "inputs": [],
      "name": "TransferToZeroAddress",
      "type": "error"
    },
    {
      "inputs": [],
      "name": "URIQueryForNonexistentToken",
      "type": "error"
    },
    {
      "anonymous": false,
      "inputs": [
        {
          "indexed": false,
          "internalType": "address",
          "name": "member",
          "type": "address"
        },
        {
          "indexed": false,
          "internalType": "uint256",
          "name": "seccode",
          "type": "uint256"
        }
      ],
      "name": "ApplyNftCode",
      "type": "event"
    },
    {
      "anonymous": false,
      "inputs": [
        {
          "indexed": true,
          "internalType": "address",
          "name": "owner",
          "type": "address"
        },
        {
          "indexed": true,
          "internalType": "address",
          "name": "approved",
          "type": "address"
        },
        {
          "indexed": true,
          "internalType": "uint256",
          "name": "tokenId",
          "type": "uint256"
        }
      ],
      "name": "Approval",
      "type": "event"
    },
    {
      "anonymous": false,
      "inputs": [
        {
          "indexed": true,
          "internalType": "address",
          "name": "owner",
          "type": "address"
        },
        {
          "indexed": true,
          "internalType": "address",
          "name": "operator",
          "type": "address"
        },
        {
          "indexed": false,
          "internalType": "bool",
          "name": "approved",
          "type": "bool"
        }
      ],
      "name": "ApprovalForAll",
      "type": "event"
    },
    {
      "anonymous": false,
      "inputs": [
        {
          "indexed": false,
          "internalType": "address",
          "name": "member",
          "type": "address"
        },
        {
          "indexed": false,
          "internalType": "uint256",
          "name": "seccode",
          "type": "uint256"
        }
      ],
      "name": "ApproveCode",
      "type": "event"
    },
    {
      "anonymous": false,
      "inputs": [
        {
          "indexed": true,
          "internalType": "address",
          "name": "_from",
          "type": "address"
        },
        {
          "indexed": true,
          "internalType": "address",
          "name": "_to",
          "type": "address"
        }
      ],
      "name": "OwnershipTransferred",
      "type": "event"
    },
    {
      "anonymous": false,
      "inputs": [
        {
          "indexed": false,
          "internalType": "address",
          "name": "member",
          "type": "address"
        },
        {
          "indexed": false,
          "internalType": "uint256",
          "name": "agreenum",
          "type": "uint256"
        }
      ],
      "name": "SpawnAgree",
      "type": "event"
    },
    {
      "anonymous": false,
      "inputs": [
        {
          "indexed": true,
          "internalType": "address",
          "name": "from",
          "type": "address"
        },
        {
          "indexed": true,
          "internalType": "address",
          "name": "to",
          "type": "address"
        },
        {
          "indexed": true,
          "internalType": "uint256",
          "name": "tokenId",
          "type": "uint256"
        }
      ],
      "name": "Transfer",
      "type": "event"
    },
    {
      "anonymous": false,
      "inputs": [
        {
          "indexed": false,
          "internalType": "address",
          "name": "owner",
          "type": "address"
        }
      ],
      "name": "medalClaimed",
      "type": "event"
    },
    {
      "inputs": [],
      "name": "acceptOwnership",
      "outputs": [],
      "stateMutability": "nonpayable",
      "type": "function"
    },
    {
      "inputs": [
        {
          "internalType": "string",
          "name": "_name",
          "type": "string"
        }
      ],
      "name": "applyNft",
      "outputs": [
        {
          "internalType": "uint256",
          "name": "",
          "type": "uint256"
        }
      ],
      "stateMutability": "nonpayable",
      "type": "function"
    },
    {
      "inputs": [
        {
          "internalType": "address",
          "name": "to",
          "type": "address"
        },
        {
          "internalType": "uint256",
          "name": "tokenId",
          "type": "uint256"
        }
      ],
      "name": "approve",
      "outputs": [],
      "stateMutability": "nonpayable",
      "type": "function"
    },
    {
      "inputs": [
        {
          "internalType": "address",
          "name": "_to",
          "type": "address"
        }
      ],
      "name": "approveMember",
      "outputs": [
        {
          "internalType": "uint256",
          "name": "",
          "type": "uint256"
        }
      ],
      "stateMutability": "nonpayable",
      "type": "function"
    },
    {
      "inputs": [
        {
          "internalType": "address",
          "name": "owner",
          "type": "address"
        }
      ],
      "name": "balanceOf",
      "outputs": [
        {
          "internalType": "uint256",
          "name": "",
          "type": "uint256"
        }
      ],
      "stateMutability": "view",
      "type": "function"
    },
    {
      "inputs": [],
      "name": "baseExtension",
      "outputs": [
        {
          "internalType": "string",
          "name": "",
          "type": "string"
        }
      ],
      "stateMutability": "view",
      "type": "function"
    },
    {
      "inputs": [
        {
          "internalType": "address",
          "name": "",
          "type": "address"
        }
      ],
      "name": "claimed",
      "outputs": [
        {
          "internalType": "bool",
          "name": "",
          "type": "bool"
        }
      ],
      "stateMutability": "view",
      "type": "function"
    },
    {
      "inputs": [],
      "name": "genesising",
      "outputs": [
        {
          "internalType": "bool",
          "name": "",
          "type": "bool"
        }
      ],
      "stateMutability": "view",
      "type": "function"
    },
    {
      "inputs": [
        {
          "internalType": "uint256",
          "name": "tokenId",
          "type": "uint256"
        }
      ],
      "name": "getApproved",
      "outputs": [
        {
          "internalType": "address",
          "name": "",
          "type": "address"
        }
      ],
      "stateMutability": "view",
      "type": "function"
    },
    {
      "inputs": [],
      "name": "getCurApplicantName",
      "outputs": [
        {
          "internalType": "string",
          "name": "_name",
          "type": "string"
        }
      ],
      "stateMutability": "view",
      "type": "function"
    },
    {
      "inputs": [],
      "name": "getMemberAmount",
      "outputs": [
        {
          "internalType": "uint256",
          "name": "",
          "type": "uint256"
        }
      ],
      "stateMutability": "view",
      "type": "function"
    },
    {
      "inputs": [],
      "name": "getMemberBalance",
      "outputs": [
        {
          "internalType": "address",
          "name": "addrBalance",
          "type": "address"
        }
      ],
      "stateMutability": "view",
      "type": "function"
    },
    {
      "inputs": [
        {
          "internalType": "address",
          "name": "_to",
          "type": "address"
        }
      ],
      "name": "getMemberName",
      "outputs": [
        {
          "internalType": "string",
          "name": "",
          "type": "string"
        }
      ],
      "stateMutability": "view",
      "type": "function"
    },
    {
      "inputs": [],
      "name": "getMemberNextIndex",
      "outputs": [
        {
          "internalType": "uint256",
          "name": "",
          "type": "uint256"
        }
      ],
      "stateMutability": "view",
      "type": "function"
    },
    {
      "inputs": [
        {
          "internalType": "address",
          "name": "_to",
          "type": "address"
        }
      ],
      "name": "getMemberTokenId",
      "outputs": [
        {
          "internalType": "uint256",
          "name": "",
          "type": "uint256"
        }
      ],
      "stateMutability": "view",
      "type": "function"
    },
    {
      "inputs": [],
      "name": "getNextTokenURI",
      "outputs": [
        {
          "internalType": "string",
          "name": "",
          "type": "string"
        }
      ],
      "stateMutability": "view",
      "type": "function"
    },
    {
      "inputs": [],
      "name": "getSpawnAgree",
      "outputs": [
        {
          "internalType": "uint256",
          "name": "",
          "type": "uint256"
        }
      ],
      "stateMutability": "view",
      "type": "function"
    },
    {
      "inputs": [],
      "name": "getSpawnCost",
      "outputs": [
        {
          "internalType": "uint256",
          "name": "",
          "type": "uint256"
        }
      ],
      "stateMutability": "view",
      "type": "function"
    },
    {
      "inputs": [],
      "name": "getSpawnThreshold",
      "outputs": [
        {
          "internalType": "uint256",
          "name": "",
          "type": "uint256"
        }
      ],
      "stateMutability": "view",
      "type": "function"
    },
    {
      "inputs": [
        {
          "internalType": "address",
          "name": "owner",
          "type": "address"
        },
        {
          "internalType": "address",
          "name": "operator",
          "type": "address"
        }
      ],
      "name": "isApprovedForAll",
      "outputs": [
        {
          "internalType": "bool",
          "name": "",
          "type": "bool"
        }
      ],
      "stateMutability": "view",
      "type": "function"
    },
    {
      "inputs": [
        {
          "internalType": "address",
          "name": "_to",
          "type": "address"
        }
      ],
      "name": "isMember",
      "outputs": [
        {
          "internalType": "bool",
          "name": "",
          "type": "bool"
        }
      ],
      "stateMutability": "view",
      "type": "function"
    },
    {
      "inputs": [],
      "name": "maxMintAmount",
      "outputs": [
        {
          "internalType": "uint256",
          "name": "",
          "type": "uint256"
        }
      ],
      "stateMutability": "view",
      "type": "function"
    },
    {
      "inputs": [],
      "name": "maxSupply",
      "outputs": [
        {
          "internalType": "uint256",
          "name": "",
          "type": "uint256"
        }
      ],
      "stateMutability": "view",
      "type": "function"
    },
    {
      "inputs": [],
      "name": "memberAmount",
      "outputs": [
        {
          "internalType": "uint256",
          "name": "",
          "type": "uint256"
        }
      ],
      "stateMutability": "view",
      "type": "function"
    },
    {
      "inputs": [],
      "name": "memberBalance",
      "outputs": [
        {
          "internalType": "contract DaoCredit",
          "name": "",
          "type": "address"
        }
      ],
      "stateMutability": "view",
      "type": "function"
    },
    {
      "inputs": [],
      "name": "merkleRoot",
      "outputs": [
        {
          "internalType": "bytes32",
          "name": "",
          "type": "bytes32"
        }
      ],
      "stateMutability": "view",
      "type": "function"
    },
    {
      "inputs": [
        {
          "internalType": "address",
          "name": "_to",
          "type": "address"
        },
        {
          "internalType": "string",
          "name": "memberName",
          "type": "string"
        }
      ],
      "name": "mintOneNew",
      "outputs": [
        {
          "internalType": "uint256",
          "name": "",
          "type": "uint256"
        }
      ],
      "stateMutability": "nonpayable",
      "type": "function"
    },
    {
      "inputs": [
        {
          "internalType": "address",
          "name": "_to",
          "type": "address"
        },
        {
          "internalType": "string",
          "name": "memberName",
          "type": "string"
        },
        {
          "internalType": "bytes32[]",
          "name": "proof",
          "type": "bytes32[]"
        }
      ],
      "name": "mintOneWhitelist",
      "outputs": [
        {
          "internalType": "uint256",
          "name": "",
          "type": "uint256"
        }
      ],
      "stateMutability": "nonpayable",
      "type": "function"
    },
    {
      "inputs": [],
      "name": "myBaseURI",
      "outputs": [
        {
          "internalType": "string",
          "name": "",
          "type": "string"
        }
      ],
      "stateMutability": "view",
      "type": "function"
    },
    {
      "inputs": [],
      "name": "name",
      "outputs": [
        {
          "internalType": "string",
          "name": "",
          "type": "string"
        }
      ],
      "stateMutability": "view",
      "type": "function"
    },
    {
      "inputs": [],
      "name": "nftSetting",
      "outputs": [
        {
          "internalType": "uint256",
          "name": "spawn_threshold",
          "type": "uint256"
        },
        {
          "internalType": "uint256",
          "name": "spawn_cost",
          "type": "uint256"
        }
      ],
      "stateMutability": "view",
      "type": "function"
    },
    {
      "inputs": [
        {
          "internalType": "uint256",
          "name": "tokenId",
          "type": "uint256"
        }
      ],
      "name": "ownerOf",
      "outputs": [
        {
          "internalType": "address",
          "name": "",
          "type": "address"
        }
      ],
      "stateMutability": "view",
      "type": "function"
    },
    {
      "inputs": [
        {
          "internalType": "bool",
          "name": "_state",
          "type": "bool"
        }
      ],
      "name": "pause",
      "outputs": [],
      "stateMutability": "nonpayable",
      "type": "function"
    },
    {
      "inputs": [],
      "name": "paused",
      "outputs": [
        {
          "internalType": "bool",
          "name": "",
          "type": "bool"
        }
      ],
      "stateMutability": "view",
      "type": "function"
    },
    {
      "inputs": [
        {
          "internalType": "address",
          "name": "_to",
          "type": "address"
        }
      ],
      "name": "resetMember",
      "outputs": [],
      "stateMutability": "nonpayable",
      "type": "function"
    },
    {
      "inputs": [
        {
          "internalType": "address",
          "name": "from",
          "type": "address"
        },
        {
          "internalType": "address",
          "name": "to",
          "type": "address"
        },
        {
          "internalType": "uint256",
          "name": "tokenId",
          "type": "uint256"
        }
      ],
      "name": "safeTransferFrom",
      "outputs": [],
      "stateMutability": "nonpayable",
      "type": "function"
    },
    {
      "inputs": [
        {
          "internalType": "address",
          "name": "from",
          "type": "address"
        },
        {
          "internalType": "address",
          "name": "to",
          "type": "address"
        },
        {
          "internalType": "uint256",
          "name": "tokenId",
          "type": "uint256"
        },
        {
          "internalType": "bytes",
          "name": "_data",
          "type": "bytes"
        }
      ],
      "name": "safeTransferFrom",
      "outputs": [],
      "stateMutability": "nonpayable",
      "type": "function"
    },
    {
      "inputs": [
        {
          "internalType": "address",
          "name": "operator",
          "type": "address"
        },
        {
          "internalType": "bool",
          "name": "approved",
          "type": "bool"
        }
      ],
      "name": "setApprovalForAll",
      "outputs": [],
      "stateMutability": "nonpayable",
      "type": "function"
    },
    {
      "inputs": [
        {
          "internalType": "string",
          "name": "_newBaseURI",
          "type": "string"
        }
      ],
      "name": "setBaseURI",
      "outputs": [],
      "stateMutability": "nonpayable",
      "type": "function"
    },
    {
      "inputs": [
        {
          "internalType": "string",
          "name": "_newName",
          "type": "string"
        }
      ],
      "name": "setMemberName",
      "outputs": [],
      "stateMutability": "nonpayable",
      "type": "function"
    },
    {
      "inputs": [
        {
          "internalType": "uint256",
          "name": "_newmaxMintAmount",
          "type": "uint256"
        }
      ],
      "name": "setmaxMintAmount",
      "outputs": [],
      "stateMutability": "nonpayable",
      "type": "function"
    },
    {
      "inputs": [],
      "name": "spawn",
      "outputs": [
        {
          "internalType": "uint256",
          "name": "",
          "type": "uint256"
        }
      ],
      "stateMutability": "nonpayable",
      "type": "function"
    },
    {
      "inputs": [],
      "name": "spawnCallback",
      "outputs": [
        {
          "internalType": "uint256",
          "name": "",
          "type": "uint256"
        }
      ],
      "stateMutability": "nonpayable",
      "type": "function"
    },
    {
      "inputs": [
        {
          "internalType": "address",
          "name": "_to",
          "type": "address"
        }
      ],
      "name": "spawnCallbackMulti",
      "outputs": [
        {
          "internalType": "uint256",
          "name": "",
          "type": "uint256"
        }
      ],
      "stateMutability": "nonpayable",
      "type": "function"
    },
    {
      "inputs": [
        {
          "internalType": "address",
          "name": "_to",
          "type": "address"
        }
      ],
      "name": "spawnMulti",
      "outputs": [
        {
          "internalType": "uint256",
          "name": "",
          "type": "uint256"
        }
      ],
      "stateMutability": "nonpayable",
      "type": "function"
    },
    {
      "inputs": [
        {
          "internalType": "bytes4",
          "name": "interfaceId",
          "type": "bytes4"
        }
      ],
      "name": "supportsInterface",
      "outputs": [
        {
          "internalType": "bool",
          "name": "",
          "type": "bool"
        }
      ],
      "stateMutability": "view",
      "type": "function"
    },
    {
      "inputs": [],
      "name": "symbol",
      "outputs": [
        {
          "internalType": "string",
          "name": "",
          "type": "string"
        }
      ],
      "stateMutability": "view",
      "type": "function"
    },
    {
      "inputs": [
        {
          "internalType": "uint256",
          "name": "tokenId",
          "type": "uint256"
        }
      ],
      "name": "tokenURI",
      "outputs": [
        {
          "internalType": "string",
          "name": "",
          "type": "string"
        }
      ],
      "stateMutability": "view",
      "type": "function"
    },
    {
      "inputs": [],
      "name": "totalSupply",
      "outputs": [
        {
          "internalType": "uint256",
          "name": "",
          "type": "uint256"
        }
      ],
      "stateMutability": "view",
      "type": "function"
    },
    {
      "inputs": [
        {
          "internalType": "address",
          "name": "from",
          "type": "address"
        },
        {
          "internalType": "address",
          "name": "to",
          "type": "address"
        },
        {
          "internalType": "uint256",
          "name": "tokenId",
          "type": "uint256"
        }
      ],
      "name": "transferFrom",
      "outputs": [],
      "stateMutability": "nonpayable",
      "type": "function"
    },
    {
      "inputs": [
        {
          "internalType": "address",
          "name": "_newOwner",
          "type": "address"
        }
      ],
      "name": "transferOwnership",
      "outputs": [],
      "stateMutability": "nonpayable",
      "type": "function"
    },
    {
      "inputs": [
        {
          "internalType": "bytes32",
          "name": "_merkleRoot",
          "type": "bytes32"
        }
      ],
      "name": "upgradeMerkleRoot",
      "outputs": [],
      "stateMutability": "nonpayable",
      "type": "function"
    },
    {
      "inputs": [
        {
          "internalType": "uint256",
          "name": "new_cost",
          "type": "uint256"
        }
      ],
      "name": "upgradeSpawnCost",
      "outputs": [],
      "stateMutability": "nonpayable",
      "type": "function"
    },
    {
      "inputs": [
        {
          "internalType": "uint256",
          "name": "new_threshold",
          "type": "uint256"
        }
      ],
      "name": "upgradeSpawnThreshold",
      "outputs": [],
      "stateMutability": "nonpayable",
      "type": "function"
    }
  ],
  "bytecode": "0x6101f46025556001602655610100604052604d60808181529062003f4360a0396027906200002e908262000316565b50604080518082019091526005815264173539b7b760d91b60208201526028906200005a908262000316565b506029805461ffff191690553480156200007357600080fd5b5060405162003f9038038062003f908339810160408190526200009691620003e2565b6040518060400160405280600681526020016510589a53999d60d21b8152506040518060400160405280600481526020016320a124a760e11b8152508160029081620000e3919062000316565b506003620000f2828262000316565b506000808155600880546001600160a01b0319908116338083169190911717909155600a80549091166001600160a01b0386161790556004601f55620186a06020559150505b60058160ff16101562000269576000600b8260ff166005811062000160576200016062000414565b60040201805460ff19169115159190911790556000600b60ff8316600581106200018e576200018e62000414565b6004020180549115156101000261ff00199092169190911790556000600b60ff831660058110620001c357620001c362000414565b600402016001018190555060405180602001604052806000815250600b8260ff1660058110620001f757620001f762000414565b6004020160020190816200020c919062000316565b506000600b8260ff166005811062000228576200022862000414565b6004020160030160006101000a8154816001600160a01b0302191690836001600160a01b03160217905550808062000260906200042a565b91505062000138565b505062000458565b634e487b7160e01b600052604160045260246000fd5b600181811c908216806200029c57607f821691505b602082108103620002bd57634e487b7160e01b600052602260045260246000fd5b50919050565b601f8211156200031157600081815260208120601f850160051c81016020861015620002ec5750805b601f850160051c820191505b818110156200030d57828155600101620002f8565b5050505b505050565b81516001600160401b0381111562000332576200033262000271565b6200034a8162000343845462000287565b84620002c3565b602080601f831160018114620003825760008415620003695750858301515b600019600386901b1c1916600185901b1785556200030d565b600085815260208120601f198616915b82811015620003b35788860151825594840194600190910190840162000392565b5085821015620003d25787850151600019600388901b60f8161c191681555b5050505050600190811b01905550565b600060208284031215620003f557600080fd5b81516001600160a01b03811681146200040d57600080fd5b9392505050565b634e487b7160e01b600052603260045260246000fd5b600060ff821660ff81036200044f57634e487b7160e01b600052601160045260246000fd5b60010192915050565b613adb80620004686000396000f3fe608060405234801561001057600080fd5b50600436106103425760003560e01c806379ba5097116101b8578063b88d4fde11610104578063d18fd367116100a2578063e2243ad51161007c578063e2243ad5146106ab578063e985e9c5146106b3578063ed92ea93146106ef578063f2fde38b146106f757600080fd5b8063d18fd36714610686578063d5abeb0114610699578063d777b391146106a257600080fd5b8063c6682862116100de578063c668286214610635578063c87b56dd1461063d578063c884ef8314610650578063cd3891641461067357600080fd5b8063b88d4fde146105fc578063bc08d3b61461060f578063bd05be6a1461062257600080fd5b8063a22cb46511610171578063ad31450f1161014b578063ad31450f146105b6578063aff4b849146105d9578063b547aeda146105ec578063b57eba2a146105f457600080fd5b8063a22cb4651461057d578063a230c52414610590578063a9c0ccdb146105a357600080fd5b806379ba50971461052c5780637f00c7a6146105345780639000250f1461054757806391cbd2411461055a57806395d89b411461056d5780639c4bbb791461057557600080fd5b80632fa9083a1161029257806355f804b3116102305780635ce19b281161020a5780635ce19b28146104ed5780636352211e146104f557806369105f971461050857806370a082311461051957600080fd5b806355f804b3146104b55780635c16258d146104c85780635c975abb146104db57600080fd5b8063372a3b821161026c578063372a3b821461047f57806337d07ffd146104875780633f9681601461048f57806342842e0e146104a257600080fd5b80632fa9083a1461045c5780633060eaaf146104645780633554ada31461046c57600080fd5b80631725ced1116102ff57806323b872dd116102d957806323b872dd1461041a57806329213a2f1461042d5780632b9711af146104405780632eb4a7ab1461045357600080fd5b80631725ced1146103f857806318160ddd14610405578063239c70ae1461041157600080fd5b806301ffc9a71461034757806302329a291461036f57806306fdde0314610384578063081812fc14610399578063095ea7b3146103c457806315320e57146103d7575b600080fd5b61035a610355366004613112565b61070a565b60405190151581526020015b60405180910390f35b61038261037d36600461313d565b61075c565b005b61038c61078d565b60405161036691906131aa565b6103ac6103a73660046131bd565b61081f565b6040516001600160a01b039091168152602001610366565b6103826103d23660046131ed565b610863565b6103ea6103e5366004613217565b6108f0565b604051908152602001610366565b60295461035a9060ff1681565b600154600054036103ea565b6103ea60265481565b610382610428366004613232565b610edd565b6103ea61043b366004613217565b610ee8565b61038261044e3660046131bd565b611095565b6103ea60225481565b6023546103ea565b6103ea6110b1565b61038261047a3660046131bd565b611232565b61038c611284565b61038c611312565b600a546103ac906001600160a01b031681565b6103826104b0366004613232565b611323565b6103826104c3366004613319565b61133e565b6103ea6104d636600461334d565b611365565b60295461035a90610100900460ff1681565b601f546103ea565b6103ac6105033660046131bd565b611624565b600a546001600160a01b03166103ac565b6103ea610527366004613217565b611636565b610382611684565b6103826105423660046131bd565b611701565b6103826105553660046131bd565b61171d565b6103ea610568366004613319565b611739565b61038c611bb2565b6103ea611bc1565b61038261058b36600461339a565b611bd1565b61035a61059e366004613217565b611c66565b6103ea6105b1366004613217565b611ce4565b601f546020546105c4919082565b60408051928352602083019190915201610366565b61038c6105e7366004613217565b611e5f565b6103ea611f32565b6020546103ea565b61038261060a3660046133d1565b61222f565b61038261061d366004613319565b612280565b6103ea61063036600461344c565b61229c565b61038c61250b565b61038c61064b3660046131bd565b612518565b61035a61065e366004613217565b60386020526000908152604090205460ff1681565b610382610681366004613217565b6125a8565b6103ea610694366004613217565b612606565b6103ea60255481565b6103ea60235481565b61038c61264d565b61035a6106c13660046134f0565b6001600160a01b03918216600090815260076020908152604080832093909416825291909152205460ff1690565b6103ea612780565b610382610705366004613217565b61278a565b60006001600160e01b031982166380ac58cd60e01b148061073b57506001600160e01b03198216635b5e139f60e01b145b8061075657506301ffc9a760e01b6001600160e01b03198316145b92915050565b6008546001600160a01b0316331461077357600080fd5b602980549115156101000261ff0019909216919091179055565b60606002805461079c90613523565b80601f01602080910402602001604051908101604052809291908181526020018280546107c890613523565b80156108155780601f106107ea57610100808354040283529160200191610815565b820191906000526020600020905b8154815290600101906020018083116107f857829003601f168201915b5050505050905090565b600061082a826127c3565b610847576040516333d1c03960e21b815260040160405180910390fd5b506000908152600660205260409020546001600160a01b031690565b600061086e82611624565b9050806001600160a01b0316836001600160a01b0316036108a25760405163250fdee360e21b815260040160405180910390fd5b336001600160a01b038216148015906108c257506108c081336106c1565b155b156108e0576040516367d9dca160e11b815260040160405180910390fd5b6108eb8383836127ee565b505050565b3360009081526037602052604081205460ff16151560011461092d5760405162461bcd60e51b81526004016109249061355d565b60405180910390fd5b60008060005b60058160ff16101561099357846001600160a01b0316600b8260ff166005811061095f5761095f613594565b60040201600301546001600160a01b0316036109815760019250809150610993565b8061098b816135c0565b915050610933565b508115610e61576000805b602c8360ff16600581106109b4576109b4613594565b0154811015610a1b5733602c60ff8516600581106109d4576109d4613594565b0182815481106109e6576109e6613594565b6000918252602090912001546001600160a01b031603610a095760019150610a1b565b80610a13816135df565b91505061099e565b508015610a6a5760405162461bcd60e51b815260206004820181905260248201527f796f7520616c726561647920737061776e2074686973206170706c6963616e746044820152606401610924565b602c8260ff1660058110610a8057610a80613594565b018054600181018255600091825260209091200180546001600160a01b03191633179055600a546001600160a01b0316636a82d9e1600b60ff851660058110610acb57610acb613594565b6004020160030160009054906101000a90046001600160a01b0316602b5433601f600101546040518563ffffffff1660e01b8152600401610b0f94939291906135f8565b6020604051808303816000875af1158015610b2e573d6000803e3d6000fd5b505050506040513d601f19601f82011682018060405250810190610b529190613622565b5060245433600090815260376020526040902060020155601f54602c60ff841660058110610b8257610b82613594565b015410610e5f57602c8260ff1660058110610b9f57610b9f613594565b610bab910160006130c2565b6001600b8360ff1660058110610bc357610bc3613594565b60040201805460ff19169115159190911790556000600b60ff841660058110610bee57610bee613594565b6004020180549115156101000261ff00199092169190911790556000610c176001546000540390565b602554909150610c2882600161363b565b1115610c465760405162461bcd60e51b81526004016109249061364e565b600a54602b546001600160a01b039091169063d6fe8fad90600b60ff871660058110610c7457610c74613594565b6004020160030160009054906101000a90046001600160a01b03166040518363ffffffff1660e01b8152600401610cbe9291909182526001600160a01b0316602082015260400190565b6020604051808303816000875af1158015610cdd573d6000803e3d6000fd5b505050506040513d601f19601f82011682018060405250810190610d01919061367e565b506000602b819055603690600b60ff861660058110610d2257610d22613594565b60040201600301546001600160a01b0316815260208101919091526040016000908120805491610d51836135df565b9190505550610d92600b8460ff1660058110610d6f57610d6f613594565b6004020160030160009054906101000a90046001600160a01b031660265461284a565b600160376000600b8660ff1660058110610dae57610dae613594565b60040201600301546001600160a01b031681526020810191909152604001600020805460ff1916911515919091179055600b60ff841660058110610df457610df4613594565b6004020160020160376000600b8660ff1660058110610e1557610e15613594565b600490810291909101600301546001600160a01b0316825260208201929092526040016000200190610e4790826136e9565b5060238054906000610e58836135df565b9190505550505b505b7ffe60f7853ab389eb39ce1f7beebdc7a4afcd1dffa7f912fdbf4ea47fb9f0a5ba33602c8360ff1660058110610e9957610e99613594565b0154604080516001600160a01b03909316835260208301919091520160405180910390a1602c8160ff1660058110610ed357610ed3613594565b0154949350505050565b6108eb838383612864565b6008546000906001600160a01b03163314610f0257600080fd5b602954610100900460ff1615610f2a5760405162461bcd60e51b8152600401610924906137c5565b6000610f396001546000540390565b602554909150610f4a82600161363b565b1115610f685760405162461bcd60e51b81526004016109249061364e565b6001600160a01b0383166000818152603760208181526040808420805460ff1916600117815560038101859055815180830190925260068252656e6f6e616d6560d01b828401529490935252600490910190610fc490826137f5565b506029805460ff19166001179055600a54604051633ead54d360e11b81526001600160a01b03858116600483015290911690637d5aa9a6906024016020604051808303816000875af115801561101e573d6000803e3d6000fd5b505050506040513d601f19601f820116820180604052508101906110429190613622565b602a819055604080516001600160a01b038616815260208101929092527ff1d0f8a592bc1469222ef70b725c80d521dbdf14649755dd0ffcbf2464fb10eb910160405180910390a15050602a545b919050565b6008546001600160a01b031633146110ac57600080fd5b602055565b3360009081526037602052604081205460ff1615156001146110e55760405162461bcd60e51b81526004016109249061355d565b60245433600090815260376020526040902060020154106111185760405162461bcd60e51b8152600401610924906138ac565b602c541561120e57600a54600e54602b54602054604051636a82d9e160e01b81526001600160a01b0394851694636a82d9e19461115f9491169290913391906004016135f8565b6020604051808303816000875af115801561117e573d6000803e3d6000fd5b505050506040513d601f19601f820116820180604052508101906111a29190613622565b50602c6111b1600160056138e3565b815481106111c1576111c1613594565b6000918252602082200180546001600160a01b0319169055602c018054806111eb576111eb6138f6565b600082815260209020810160001990810180546001600160a01b03191690550190555b60245433600090815260376020526040812060020191909155602c905b0154919050565b8061127f5760405162461bcd60e51b815260206004820152601e60248201527f6d65726b6c65526f6f7420697320746865207a65726f206164647265737300006044820152606401610924565b602255565b6027805461129190613523565b80601f01602080910402602001604051908101604052809291908181526020018280546112bd90613523565b801561130a5780601f106112df5761010080835404028352916020019161130a565b820191906000526020600020905b8154815290600101906020018083116112ed57829003601f168201915b505050505081565b600d80546060919061079c90613523565b6108eb8383836040518060200160405280600081525061222f565b6008546001600160a01b0316331461135557600080fd5b602761136182826137f5565b5050565b602954600090610100900460ff16156113905760405162461bcd60e51b8152600401610924906137c5565b6001600160a01b03831660009081526037602052604090205460ff1615156001146113fd5760405162461bcd60e51b815260206004820152601960248201527f6d656d626572206e65656420746f2062652061637469766564000000000000006044820152606401610924565b6001600160a01b038316600090815260376020526040902060030154156114665760405162461bcd60e51b815260206004820152601c60248201527f6d656d6265722068617320616c7265616479206265206d696e746564000000006044820152606401610924565b60006114756001546000540390565b60255490915061148682600161363b565b11156114a45760405162461bcd60e51b81526004016109249061364e565b60006114af60215490565b6001600160a01b03861660009081526036602052604081208054929350906114d6836135df565b91905055506114e685600161284a565b6001600160a01b03851660009081526037602052604090206003810182905560040161151285826137f5565b506029805460ff19169055600a54602a5460405163751ff34f60e11b815260048101919091526001600160a01b0387811660248301529091169063ea3fe69e906044016020604051808303816000875af1158015611574573d6000803e3d6000fd5b505050506040513d601f19601f82011682018060405250810190611598919061367e565b50602380549060006115a9836135df565b91905055506115bc602180546001019055565b600a5460405163399c1ec160e11b81526001600160a01b038781166004830152909116906373383d8290602401600060405180830381600087803b15801561160357600080fd5b505af1158015611617573d6000803e3d6000fd5b5092979650505050505050565b600061162f82612a5f565b5192915050565b60006001600160a01b03821661165f576040516323d3ad8160e21b815260040160405180910390fd5b506001600160a01b03166000908152600560205260409020546001600160401b031690565b6009546001600160a01b0316331461169b57600080fd5b6009546008546040516001600160a01b0392831692909116907f8be0079c531659141344cd1fd0a4f28419497f9722a3daafe3b4186f6b6457e090600090a360098054600880546001600160a01b03199081166001600160a01b03841617909155169055565b6008546001600160a01b0316331461171857600080fd5b602655565b6008546001600160a01b0316331461173457600080fd5b601f55565b602954600090610100900460ff16156117645760405162461bcd60e51b8152600401610924906137c5565b3360009081526037602052604090205460ff16156117ce5760405162461bcd60e51b815260206004820152602160248201527f6170706c79206d656d626572206e65656420746f20626520696e6163746976656044820152601960fa1b6064820152608401610924565b6000806000805b60058160ff16101561189b5733600b60ff8316600581106117f8576117f8613594565b60040201600301546001600160a01b031603611817576001935061189b565b600b8160ff166005811061182d5761182d613594565b600402015460ff1615156001148015611847575060ff8316155b1561185457809250611889565b600b8160ff166005811061186a5761186a613594565b600402015460ff1615156000036118895781611885816135c0565b9250505b80611893816135c0565b9150506117d5565b5082156118df5760405162461bcd60e51b815260206004820152601260248201527103cb7ba9030b63932b0b23c9030b838363c960751b6044820152606401610924565b60058160ff16106119425760405162461bcd60e51b815260206004820152602760248201527f6170706c79206f7574206f6620616d6f756e74206c696d697420666f7220746860448201526669732074696d6560c81b6064820152608401610924565b33600b8360ff166005811061195957611959613594565b6004020160030160006101000a8154816001600160a01b0302191690836001600160a01b031602179055506000600b8360ff166005811061199c5761199c613594565b60040201805460ff191691151591909117905584600b60ff8416600581106119c6576119c6613594565b6004020160020190816119d991906137f5565b506001600b8360ff16600581106119f2576119f2613594565b60049081029190910180549215156101000261ff001990931692909217909155600a54604051637572c5bd60e11b815233928101929092526001600160a01b03169063eae58b7a906024016020604051808303816000875af1158015611a5c573d6000803e3d6000fd5b505050506040513d601f19601f82011682018060405250810190611a809190613622565b602b55602c60ff831660058110611a9957611a99613594565b611aa5910160006130c2565b60248054906000611ab5836135df565b9091555050600a546001600160a01b0316636a82d9e1600b60ff851660058110611ae157611ae1613594565b6004020160030160009054906101000a90046001600160a01b0316602b5433601f600101546040518563ffffffff1660e01b8152600401611b2594939291906135f8565b6020604051808303816000875af1158015611b44573d6000803e3d6000fd5b505050506040513d601f19601f82011682018060405250810190611b689190613622565b50602b546040805133815260208101929092527f80e2d0de91ab94c5ddb539b0f826a7ffe6689ec23c97f958c9642dceb0bab5bc910160405180910390a150506024549392505050565b60606003805461079c90613523565b6000611bcc60215490565b905090565b336001600160a01b03831603611bfa5760405163b06307db60e01b815260040160405180910390fd5b3360008181526007602090815260408083206001600160a01b03871680855290835292819020805460ff191686151590811790915590519081529192917f17307eab39ab6107e8899845ad3d59bd9653f200f220920489ca2b5937696c31910160405180910390a35050565b60006001600160a01b038216611cb35760405162461bcd60e51b8152602060048201526012602482015271746f206973207a65726f206164647265737360701b6044820152606401610924565b6001600160a01b03821660009081526037602052604090205460ff1615611cdc57506001919050565b506000919050565b3360009081526037602052604081205460ff161515600114611d185760405162461bcd60e51b81526004016109249061355d565b6024543360009081526037602052604090206002015410611d4b5760405162461bcd60e51b8152600401610924906138ac565b602c5415611e4157600a54600e54602b54602054604051636a82d9e160e01b81526001600160a01b0394851694636a82d9e194611d929491169290913391906004016135f8565b6020604051808303816000875af1158015611db1573d6000803e3d6000fd5b505050506040513d601f19601f82011682018060405250810190611dd59190613622565b50602c611de4600160056138e3565b81548110611df457611df4613594565b6000918252602082200180546001600160a01b0319169055602c01805480611e1e57611e1e6138f6565b600082815260209020810160001990810180546001600160a01b03191690550190555b505060245433600090815260376020526040902060020155602c5490565b60606001600160a01b038216611e875760405162461bcd60e51b81526004016109249061390c565b6001600160a01b03821660009081526037602052604090206004018054611ead90613523565b80601f0160208091040260200160405190810160405280929190818152602001828054611ed990613523565b8015611f265780601f10611efb57610100808354040283529160200191611f26565b820191906000526020600020905b815481529060010190602001808311611f0957829003601f168201915b50505050509050919050565b3360009081526037602052604081205460ff161515600114611f665760405162461bcd60e51b81526004016109249061355d565b6024543360009081526037602052604090206002015410611f995760405162461bcd60e51b8152600401610924906138ac565b602c80546001810182556000919091527f7416c943b4a09859521022fd2e90eac0dd9026dad28fa317782a135f28a860910180546001600160a01b03191633908117909155600a54600e54602b54602054604051636a82d9e160e01b81526001600160a01b0394851695636a82d9e19561201a9516939290916004016135f8565b6020604051808303816000875af1158015612039573d6000803e3d6000fd5b505050506040513d601f19601f8201168201806040525081019061205d9190613622565b5060245433600090815260376020526040902060020155601f54602c54106121e95761208b602c60006130c2565b600b805461ffff1916600117905560006120a86001546000540390565b6025549091506120b982600161363b565b11156120d75760405162461bcd60e51b81526004016109249061364e565b600a54602b54600e5460405163d6fe8fad60e01b815260048101929092526001600160a01b0390811660248301529091169063d6fe8fad906044016020604051808303816000875af1158015612131573d6000803e3d6000fd5b505050506040513d601f19601f82011682018060405250810190612155919061367e565b506000602b819055600e546001600160a01b03168152603660205260408120805491612180836135df565b909155506121929050600b6000610d6f565b600e80546001600160a01b03908116600090815260376020526040808220805460ff1916600117905592549091168152206004016121d1600d826136e9565b50602380549060006121e2836135df565b9190505550505b602c546040805133815260208101929092527ffe60f7853ab389eb39ce1f7beebdc7a4afcd1dffa7f912fdbf4ea47fb9f0a5ba910160405180910390a1602c600061122b565b61223a848484612864565b6001600160a01b0383163b1515801561225c575061225a84848484612b79565b155b1561227a576040516368d2bf6b60e11b815260040160405180910390fd5b50505050565b33600090815260376020526040902060040161136182826137f5565b60006001600160a01b0385166122c45760405162461bcd60e51b81526004016109249061390c565b60006122d36001546000540390565b6025549091506122e482600161363b565b11156123025760405162461bcd60e51b81526004016109249061364e565b6001600160a01b03861660009081526038602052604090205460ff161561233c57604051630c8d9eab60e31b815260040160405180910390fd5b6040516bffffffffffffffffffffffff19606088901b16602082015260009060340160405160208183030381529060405280519060200120905060006123b9868680806020026020016040519081016040528093929190818152602001838360200280828437600092019190915250506022548692509050612c61565b9050806123d957604051630b094f2760e31b815260040160405180910390fd5b6001600160a01b0388166000908152603860205260408120805460ff1916600117905561240560215490565b6001600160a01b038a16600090815260366020526040812080549293509061242c836135df565b919050555061243c89600161284a565b6001600160a01b03891660009081526037602052604090206003810182905560040161246889826137f5565b50600a546040516365cc065d60e01b81526001600160a01b038b81166004830152909116906365cc065d906024016020604051808303816000875af11580156124b5573d6000803e3d6000fd5b505050506040513d601f19601f820116820180604052508101906124d9919061367e565b50602380549060006124ea836135df565b91905055506124fd602180546001019055565b93505050505b949350505050565b6028805461129190613523565b6060612523826127c3565b61254057604051630a14c4b560e41b815260040160405180910390fd5b600061254a612c77565b90508051600003612573576040518060800160405280605d8152602001613a49605d91396125a1565b8061257d84612c86565b60286040516020016125919392919061393c565b6040516020818303038152906040525b9392505050565b6008546001600160a01b031633146125bf57600080fd5b6001600160a01b0381166125e55760405162461bcd60e51b81526004016109249061390c565b6001600160a01b03166000908152603760205260409020805460ff19169055565b60006001600160a01b03821661262e5760405162461bcd60e51b81526004016109249061390c565b506001600160a01b031660009081526037602052604090206003015490565b6060600061265e6001546000540390565b60255490915061266f82600161363b565b111561268d5760405162461bcd60e51b81526004016109249061364e565b60278054829160009161269f90613523565b80601f01602080910402602001604051908101604052809291908181526020018280546126cb90613523565b80156127185780601f106126ed57610100808354040283529160200191612718565b820191906000526020600020905b8154815290600101906020018083116126fb57829003601f168201915b50505050509050600081511161274a57604051806040016040528060048152602001636e6f6e6560e01b815250612778565b8061275483612c86565b60286040516020016127689392919061393c565b6040516020818303038152906040525b935050505090565b6000602c8161122b565b6008546001600160a01b031633146127a157600080fd5b600980546001600160a01b0319166001600160a01b0392909216919091179055565b6000805482108015610756575050600090815260046020526040902054600160e01b900460ff161590565b60008281526006602052604080822080546001600160a01b0319166001600160a01b0387811691821790925591518593918516917f8c5be1e5ebec7d5bd14f71427d1e84f3dd0314c0f7b2291e5b200ac8c7c3b92591a4505050565b611361828260405180602001604052806000815250612d18565b600061286f82612a5f565b9050836001600160a01b031681600001516001600160a01b0316146128a65760405162a1148160e81b815260040160405180910390fd5b6000336001600160a01b03861614806128c457506128c485336106c1565b806128df5750336128d48461081f565b6001600160a01b0316145b9050806128ff57604051632ce44b5f60e11b815260040160405180910390fd5b6001600160a01b03841661292657604051633a954ecd60e21b815260040160405180910390fd5b6129338585856001612d25565b61293f600084876127ee565b6001600160a01b038581166000908152600560209081526040808320805467ffffffffffffffff198082166001600160401b0392831660001901831617909255898616808652838620805493841693831660019081018416949094179055898652600490945282852080546001600160e01b031916909417600160a01b42909216919091021783558701808452922080549193909116612a13576000548214612a1357805460208601516001600160401b0316600160a01b026001600160e01b03199091166001600160a01b038a16171781555b50505082846001600160a01b0316866001600160a01b03167fddf252ad1be2c89b69c2b068fc378daa952ba7f163c4a11628f55a4df523b3ef60405160405180910390a45b5050505050565b604080516060810182526000808252602082018190529181019190915281600054811015612b6057600081815260046020908152604091829020825160608101845290546001600160a01b0381168252600160a01b81046001600160401b031692820192909252600160e01b90910460ff16151591810182905290612b5e5780516001600160a01b031615612af5579392505050565b5060001901600081815260046020908152604091829020825160608101845290546001600160a01b038116808352600160a01b82046001600160401b031693830193909352600160e01b900460ff1615159281019290925215612b59579392505050565b612af5565b505b604051636f96cda160e11b815260040160405180910390fd5b604051630a85bd0160e11b81526000906001600160a01b0385169063150b7a0290612bae9033908990889088906004016139ee565b6020604051808303816000875af1925050508015612be9575060408051601f3d908101601f19168201909252612be691810190613a2b565b60015b612c47573d808015612c17576040519150601f19603f3d011682016040523d82523d6000602084013e612c1c565b606091505b508051600003612c3f576040516368d2bf6b60e11b815260040160405180910390fd5b805181602001fd5b6001600160e01b031916630a85bd0160e11b149050612503565b600082612c6e8584612d93565b14949350505050565b60606027805461079c90613523565b60606000612c9383612de0565b60010190506000816001600160401b03811115612cb257612cb261326e565b6040519080825280601f01601f191660200182016040528015612cdc576020820181803683370190505b5090508181016020015b600019016f181899199a1a9b1b9c1cb0b131b232b360811b600a86061a8153600a8504945084612ce657509392505050565b6108eb8383836001612eb8565b6001600160a01b0384161580612d4257506001600160a01b038316155b612d8e5760405162461bcd60e51b815260206004820152601860248201527f6e6674206973206e6f74207472616e736665727261626c6500000000000000006044820152606401610924565b61227a565b600081815b8451811015612dd857612dc482868381518110612db757612db7613594565b6020026020010151613096565b915080612dd0816135df565b915050612d98565b509392505050565b60008072184f03e93ff9f4daa797ed6e38ed64bf6a1f0160401b8310612e1f5772184f03e93ff9f4daa797ed6e38ed64bf6a1f0160401b830492506040015b6d04ee2d6d415b85acef81000000008310612e4b576d04ee2d6d415b85acef8100000000830492506020015b662386f26fc100008310612e6957662386f26fc10000830492506010015b6305f5e1008310612e81576305f5e100830492506008015b6127108310612e9557612710830492506004015b60648310612ea7576064830492506002015b600a83106107565760010192915050565b6000546001600160a01b038516612ee157604051622e076360e81b815260040160405180910390fd5b83600003612f025760405163b562e8dd60e01b815260040160405180910390fd5b612f0f6000868387612d25565b6001600160a01b038516600081815260056020908152604080832080546fffffffffffffffffffffffffffffffff1981166001600160401b038083168c0181169182176801000000000000000067ffffffffffffffff1990941690921783900481168c01811690920217909155858452600490925290912080546001600160e01b031916909217600160a01b429092169190910217905580808501838015612fc057506001600160a01b0387163b15155b15613048575b60405182906001600160a01b038916906000907fddf252ad1be2c89b69c2b068fc378daa952ba7f163c4a11628f55a4df523b3ef908290a46130116000888480600101955088612b79565b61302e576040516368d2bf6b60e11b815260040160405180910390fd5b808203612fc657826000541461304357600080fd5b61308d565b5b6040516001830192906001600160a01b038916906000907fddf252ad1be2c89b69c2b068fc378daa952ba7f163c4a11628f55a4df523b3ef908290a4808203613049575b50600055612a58565b60008183106130b25760008281526020849052604090206125a1565b5060009182526020526040902090565b50805460008255906000526020600020908101906130e091906130e3565b50565b5b808211156130f857600081556001016130e4565b5090565b6001600160e01b0319811681146130e057600080fd5b60006020828403121561312457600080fd5b81356125a1816130fc565b80151581146130e057600080fd5b60006020828403121561314f57600080fd5b81356125a18161312f565b60005b8381101561317557818101518382015260200161315d565b50506000910152565b6000815180845261319681602086016020860161315a565b601f01601f19169290920160200192915050565b6020815260006125a1602083018461317e565b6000602082840312156131cf57600080fd5b5035919050565b80356001600160a01b038116811461109057600080fd5b6000806040838503121561320057600080fd5b613209836131d6565b946020939093013593505050565b60006020828403121561322957600080fd5b6125a1826131d6565b60008060006060848603121561324757600080fd5b613250846131d6565b925061325e602085016131d6565b9150604084013590509250925092565b634e487b7160e01b600052604160045260246000fd5b60006001600160401b038084111561329e5761329e61326e565b604051601f8501601f19908116603f011681019082821181831017156132c6576132c661326e565b816040528093508581528686860111156132df57600080fd5b858560208301376000602087830101525050509392505050565b600082601f83011261330a57600080fd5b6125a183833560208501613284565b60006020828403121561332b57600080fd5b81356001600160401b0381111561334157600080fd5b612503848285016132f9565b6000806040838503121561336057600080fd5b613369836131d6565b915060208301356001600160401b0381111561338457600080fd5b613390858286016132f9565b9150509250929050565b600080604083850312156133ad57600080fd5b6133b6836131d6565b915060208301356133c68161312f565b809150509250929050565b600080600080608085870312156133e757600080fd5b6133f0856131d6565b93506133fe602086016131d6565b92506040850135915060608501356001600160401b0381111561342057600080fd5b8501601f8101871361343157600080fd5b61344087823560208401613284565b91505092959194509250565b6000806000806060858703121561346257600080fd5b61346b856131d6565b935060208501356001600160401b038082111561348757600080fd5b613493888389016132f9565b945060408701359150808211156134a957600080fd5b818701915087601f8301126134bd57600080fd5b8135818111156134cc57600080fd5b8860208260051b85010111156134e157600080fd5b95989497505060200194505050565b6000806040838503121561350357600080fd5b61350c836131d6565b915061351a602084016131d6565b90509250929050565b600181811c9082168061353757607f821691505b60208210810361355757634e487b7160e01b600052602260045260246000fd5b50919050565b60208082526019908201527f73656e646572206e65656420746f206265206163746976656400000000000000604082015260600190565b634e487b7160e01b600052603260045260246000fd5b634e487b7160e01b600052601160045260246000fd5b600060ff821660ff81036135d6576135d66135aa565b60010192915050565b6000600182016135f1576135f16135aa565b5060010190565b6001600160a01b039485168152602081019390935292166040820152606081019190915260800190565b60006020828403121561363457600080fd5b5051919050565b80820180821115610756576107566135aa565b6020808252601690820152751b585e08139195081b1a5b5a5d08195e18d95959195960521b604082015260600190565b60006020828403121561369057600080fd5b81516125a18161312f565b601f8211156108eb57600081815260208120601f850160051c810160208610156136c25750805b601f850160051c820191505b818110156136e1578281556001016136ce565b505050505050565b8181036136f4575050565b6136fe8254613523565b6001600160401b038111156137155761371561326e565b613729816137238454613523565b8461369b565b6000601f82116001811461375d57600083156137455750848201545b600019600385901b1c1916600184901b178455612a58565b600085815260209020601f19841690600086815260209020845b838110156137975782860154825560019586019590910190602001613777565b50858310156137b55781850154600019600388901b60f8161c191681555b5050505050600190811b01905550565b6020808252601690820152751d1a194818dbdb9d1c9858dd081a5cc81c185d5cd95960521b604082015260600190565b81516001600160401b0381111561380e5761380e61326e565b61381c816137238454613523565b602080601f83116001811461385157600084156138395750858301515b600019600386901b1c1916600185901b1785556136e1565b600085815260208120601f198616915b8281101561388057888601518255948401946001909101908401613861565b50858210156137b557939096015160001960f8600387901b161c19169092555050600190811b01905550565b6020808252601c908201527f796f7520616c726561647920737061776e65642074686973204e465400000000604082015260600190565b81810381811115610756576107566135aa565b634e487b7160e01b600052603160045260246000fd5b602080825260169082015275746f20697320746865207a65726f206164647265737360501b604082015260600190565b60008451602061394f8285838a0161315a565b8184019150602f60f81b82526001865161396e81838601858b0161315a565b865493019260009061397f81613523565b818416801561399557600181146139ae576139de565b60ff1983168786015281151582028701850193506139de565b896000528560002060005b838110156139d45781548982018801529086019087016139b9565b5050848288010193505b50919a9950505050505050505050565b6001600160a01b0385811682528416602082015260408101839052608060608201819052600090613a219083018461317e565b9695505050505050565b600060208284031215613a3d57600080fd5b81516125a1816130fc56fe68747470733a2f2f736864772d64726976652e67656e65737973676f2e6e65742f477676517155624b587452356467575464727a3435416235346b41667a655061433342556632564637466f382f636f6c6c656374696f6e2e6a736f6ea2646970667358221220438bd1fa035bedf31fc512de06124b9b65a564bce9857f97f3c275355383f03664736f6c6343000811003368747470733a2f2f736864772d64726976652e67656e65737973676f2e6e65742f477676517155624b587452356467575464727a3435416235346b41667a655061433342556632564637466f38",
  "linkReferences": {},
  "deployedLinkReferences": {}
}