{
  "_format": "hh-sol-artifact-1",
  "contractName": "DaoNft",
  "sourceName": "contracts/DaoNft.sol",
  "abi": [
    {
      "inputs": [
        {
          "internalType": "address",
          "name": "addrBalance",
          "type": "address"
        }
      ],
      "stateMutability": "nonpayable",
      "type": "constructor"
    },
    {
      "inputs": [],
      "name": "AlreadyClaimed",
      "type": "error"
    },
    {
      "inputs": [],
      "name": "ApprovalCallerNotOwnerNorApproved",
      "type": "error"
    },
    {
      "inputs": [],
      "name": "ApprovalQueryForNonexistentToken",
      "type": "error"
    },
    {
      "inputs": [],
      "name": "ApprovalToCurrentOwner",
      "type": "error"
    },
    {
      "inputs": [],
      "name": "ApproveToCaller",
      "type": "error"
    },
    {
      "inputs": [],
      "name": "BalanceQueryForZeroAddress",
      "type": "error"
    },
    {
      "inputs": [],
      "name": "MintToZeroAddress",
      "type": "error"
    },
    {
      "inputs": [],
      "name": "MintZeroQuantity",
      "type": "error"
    },
    {
      "inputs": [],
      "name": "NotWhitelisted",
      "type": "error"
    },
    {
      "inputs": [],
      "name": "OwnerQueryForNonexistentToken",
      "type": "error"
    },
    {
      "inputs": [],
      "name": "TransferCallerNotOwnerNorApproved",
      "type": "error"
    },
    {
      "inputs": [],
      "name": "TransferFromIncorrectOwner",
      "type": "error"
    },
    {
      "inputs": [],
      "name": "TransferToNonERC721ReceiverImplementer",
      "type": "error"
    },
    {
      "inputs": [],
      "name": "TransferToZeroAddress",
      "type": "error"
    },
    {
      "inputs": [],
      "name": "URIQueryForNonexistentToken",
      "type": "error"
    },
    {
      "anonymous": false,
      "inputs": [
        {
          "indexed": false,
          "internalType": "address",
          "name": "member",
          "type": "address"
        },
        {
          "indexed": false,
          "internalType": "uint256",
          "name": "seccode",
          "type": "uint256"
        }
      ],
      "name": "ApplyNftCode",
      "type": "event"
    },
    {
      "anonymous": false,
      "inputs": [
        {
          "indexed": true,
          "internalType": "address",
          "name": "owner",
          "type": "address"
        },
        {
          "indexed": true,
          "internalType": "address",
          "name": "approved",
          "type": "address"
        },
        {
          "indexed": true,
          "internalType": "uint256",
          "name": "tokenId",
          "type": "uint256"
        }
      ],
      "name": "Approval",
      "type": "event"
    },
    {
      "anonymous": false,
      "inputs": [
        {
          "indexed": true,
          "internalType": "address",
          "name": "owner",
          "type": "address"
        },
        {
          "indexed": true,
          "internalType": "address",
          "name": "operator",
          "type": "address"
        },
        {
          "indexed": false,
          "internalType": "bool",
          "name": "approved",
          "type": "bool"
        }
      ],
      "name": "ApprovalForAll",
      "type": "event"
    },
    {
      "anonymous": false,
      "inputs": [
        {
          "indexed": false,
          "internalType": "address",
          "name": "member",
          "type": "address"
        },
        {
          "indexed": false,
          "internalType": "uint256",
          "name": "seccode",
          "type": "uint256"
        }
      ],
      "name": "ApproveCode",
      "type": "event"
    },
    {
      "anonymous": false,
      "inputs": [
        {
          "indexed": true,
          "internalType": "address",
          "name": "_from",
          "type": "address"
        },
        {
          "indexed": true,
          "internalType": "address",
          "name": "_to",
          "type": "address"
        }
      ],
      "name": "OwnershipTransferred",
      "type": "event"
    },
    {
      "anonymous": false,
      "inputs": [
        {
          "indexed": false,
          "internalType": "address",
          "name": "member",
          "type": "address"
        },
        {
          "indexed": false,
          "internalType": "uint256",
          "name": "agreenum",
          "type": "uint256"
        }
      ],
      "name": "SpawnAgree",
      "type": "event"
    },
    {
      "anonymous": false,
      "inputs": [
        {
          "indexed": true,
          "internalType": "address",
          "name": "from",
          "type": "address"
        },
        {
          "indexed": true,
          "internalType": "address",
          "name": "to",
          "type": "address"
        },
        {
          "indexed": true,
          "internalType": "uint256",
          "name": "tokenId",
          "type": "uint256"
        }
      ],
      "name": "Transfer",
      "type": "event"
    },
    {
      "anonymous": false,
      "inputs": [
        {
          "indexed": false,
          "internalType": "address",
          "name": "owner",
          "type": "address"
        }
      ],
      "name": "medalClaimed",
      "type": "event"
    },
    {
      "inputs": [
        {
          "internalType": "bool",
          "name": "value",
          "type": "bool"
        }
      ],
      "name": "GovernApplicantApprove",
      "outputs": [
        {
          "internalType": "uint256",
          "name": "",
          "type": "uint256"
        }
      ],
      "stateMutability": "nonpayable",
      "type": "function"
    },
    {
      "inputs": [
        {
          "internalType": "uint256",
          "name": "index",
          "type": "uint256"
        }
      ],
      "name": "GovernIndexSpawn",
      "outputs": [
        {
          "internalType": "uint256",
          "name": "",
          "type": "uint256"
        }
      ],
      "stateMutability": "nonpayable",
      "type": "function"
    },
    {
      "inputs": [
        {
          "internalType": "address",
          "name": "_to",
          "type": "address"
        },
        {
          "internalType": "string",
          "name": "memberName",
          "type": "string"
        }
      ],
      "name": "GovernMint",
      "outputs": [
        {
          "internalType": "uint256",
          "name": "",
          "type": "uint256"
        }
      ],
      "stateMutability": "nonpayable",
      "type": "function"
    },
    {
      "inputs": [
        {
          "internalType": "address",
          "name": "_to",
          "type": "address"
        },
        {
          "internalType": "string",
          "name": "memberName",
          "type": "string"
        }
      ],
      "name": "SuperMint",
      "outputs": [
        {
          "internalType": "uint256",
          "name": "",
          "type": "uint256"
        }
      ],
      "stateMutability": "nonpayable",
      "type": "function"
    },
    {
      "inputs": [],
      "name": "acceptOwnership",
      "outputs": [],
      "stateMutability": "nonpayable",
      "type": "function"
    },
    {
      "inputs": [
        {
          "internalType": "string",
          "name": "_name",
          "type": "string"
        }
      ],
      "name": "applyNft",
      "outputs": [
        {
          "internalType": "uint256",
          "name": "",
          "type": "uint256"
        }
      ],
      "stateMutability": "nonpayable",
      "type": "function"
    },
    {
      "inputs": [
        {
          "internalType": "address",
          "name": "to",
          "type": "address"
        },
        {
          "internalType": "uint256",
          "name": "tokenId",
          "type": "uint256"
        }
      ],
      "name": "approve",
      "outputs": [],
      "stateMutability": "nonpayable",
      "type": "function"
    },
    {
      "inputs": [
        {
          "internalType": "address",
          "name": "_to",
          "type": "address"
        }
      ],
      "name": "approveMember",
      "outputs": [
        {
          "internalType": "uint256",
          "name": "",
          "type": "uint256"
        }
      ],
      "stateMutability": "nonpayable",
      "type": "function"
    },
    {
      "inputs": [
        {
          "internalType": "address",
          "name": "owner",
          "type": "address"
        }
      ],
      "name": "balanceOf",
      "outputs": [
        {
          "internalType": "uint256",
          "name": "",
          "type": "uint256"
        }
      ],
      "stateMutability": "view",
      "type": "function"
    },
    {
      "inputs": [],
      "name": "baseExtension",
      "outputs": [
        {
          "internalType": "string",
          "name": "",
          "type": "string"
        }
      ],
      "stateMutability": "view",
      "type": "function"
    },
    {
      "inputs": [
        {
          "internalType": "address",
          "name": "",
          "type": "address"
        }
      ],
      "name": "claimed",
      "outputs": [
        {
          "internalType": "bool",
          "name": "",
          "type": "bool"
        }
      ],
      "stateMutability": "view",
      "type": "function"
    },
    {
      "inputs": [],
      "name": "genesising",
      "outputs": [
        {
          "internalType": "bool",
          "name": "",
          "type": "bool"
        }
      ],
      "stateMutability": "view",
      "type": "function"
    },
    {
      "inputs": [
        {
          "internalType": "uint256",
          "name": "tokenId",
          "type": "uint256"
        }
      ],
      "name": "getApproved",
      "outputs": [
        {
          "internalType": "address",
          "name": "",
          "type": "address"
        }
      ],
      "stateMutability": "view",
      "type": "function"
    },
    {
      "inputs": [
        {
          "internalType": "uint256",
          "name": "index",
          "type": "uint256"
        }
      ],
      "name": "getCurApplicantAddress",
      "outputs": [
        {
          "internalType": "address",
          "name": "_address",
          "type": "address"
        }
      ],
      "stateMutability": "view",
      "type": "function"
    },
    {
      "inputs": [
        {
          "internalType": "uint256",
          "name": "index",
          "type": "uint256"
        }
      ],
      "name": "getCurApplicantName",
      "outputs": [
        {
          "internalType": "string",
          "name": "_name",
          "type": "string"
        }
      ],
      "stateMutability": "view",
      "type": "function"
    },
    {
      "inputs": [],
      "name": "getMemberAmount",
      "outputs": [
        {
          "internalType": "uint256",
          "name": "",
          "type": "uint256"
        }
      ],
      "stateMutability": "view",
      "type": "function"
    },
    {
      "inputs": [],
      "name": "getMemberBalance",
      "outputs": [
        {
          "internalType": "address",
          "name": "addrBalance",
          "type": "address"
        }
      ],
      "stateMutability": "view",
      "type": "function"
    },
    {
      "inputs": [],
      "name": "getMemberGovern",
      "outputs": [
        {
          "internalType": "address",
          "name": "addrGovern",
          "type": "address"
        }
      ],
      "stateMutability": "view",
      "type": "function"
    },
    {
      "inputs": [
        {
          "internalType": "address",
          "name": "_to",
          "type": "address"
        }
      ],
      "name": "getMemberName",
      "outputs": [
        {
          "internalType": "string",
          "name": "",
          "type": "string"
        }
      ],
      "stateMutability": "view",
      "type": "function"
    },
    {
      "inputs": [],
      "name": "getMemberNextIndex",
      "outputs": [
        {
          "internalType": "uint256",
          "name": "",
          "type": "uint256"
        }
      ],
      "stateMutability": "view",
      "type": "function"
    },
    {
      "inputs": [
        {
          "internalType": "address",
          "name": "_to",
          "type": "address"
        }
      ],
      "name": "getMemberTokenId",
      "outputs": [
        {
          "internalType": "uint256",
          "name": "",
          "type": "uint256"
        }
      ],
      "stateMutability": "view",
      "type": "function"
    },
    {
      "inputs": [],
      "name": "getNextTokenURI",
      "outputs": [
        {
          "internalType": "string",
          "name": "",
          "type": "string"
        }
      ],
      "stateMutability": "view",
      "type": "function"
    },
    {
      "inputs": [
        {
          "internalType": "uint256",
          "name": "index",
          "type": "uint256"
        }
      ],
      "name": "getSpawnAgree",
      "outputs": [
        {
          "internalType": "uint256",
          "name": "",
          "type": "uint256"
        }
      ],
      "stateMutability": "view",
      "type": "function"
    },
    {
      "inputs": [],
      "name": "getSpawnCost",
      "outputs": [
        {
          "internalType": "uint256",
          "name": "",
          "type": "uint256"
        }
      ],
      "stateMutability": "view",
      "type": "function"
    },
    {
      "inputs": [],
      "name": "getSpawnThreshold",
      "outputs": [
        {
          "internalType": "uint256",
          "name": "",
          "type": "uint256"
        }
      ],
      "stateMutability": "view",
      "type": "function"
    },
    {
      "inputs": [
        {
          "internalType": "address",
          "name": "owner",
          "type": "address"
        },
        {
          "internalType": "address",
          "name": "operator",
          "type": "address"
        }
      ],
      "name": "isApprovedForAll",
      "outputs": [
        {
          "internalType": "bool",
          "name": "",
          "type": "bool"
        }
      ],
      "stateMutability": "view",
      "type": "function"
    },
    {
      "inputs": [
        {
          "internalType": "address",
          "name": "_to",
          "type": "address"
        }
      ],
      "name": "isMember",
      "outputs": [
        {
          "internalType": "bool",
          "name": "",
          "type": "bool"
        }
      ],
      "stateMutability": "view",
      "type": "function"
    },
    {
      "inputs": [],
      "name": "maxMintAmount",
      "outputs": [
        {
          "internalType": "uint256",
          "name": "",
          "type": "uint256"
        }
      ],
      "stateMutability": "view",
      "type": "function"
    },
    {
      "inputs": [],
      "name": "maxSupply",
      "outputs": [
        {
          "internalType": "uint256",
          "name": "",
          "type": "uint256"
        }
      ],
      "stateMutability": "view",
      "type": "function"
    },
    {
      "inputs": [],
      "name": "memberAmount",
      "outputs": [
        {
          "internalType": "uint256",
          "name": "",
          "type": "uint256"
        }
      ],
      "stateMutability": "view",
      "type": "function"
    },
    {
      "inputs": [],
      "name": "memberBalance",
      "outputs": [
        {
          "internalType": "contract DaoCredit",
          "name": "",
          "type": "address"
        }
      ],
      "stateMutability": "view",
      "type": "function"
    },
    {
      "inputs": [],
      "name": "memberGovern",
      "outputs": [
        {
          "internalType": "address",
          "name": "",
          "type": "address"
        }
      ],
      "stateMutability": "view",
      "type": "function"
    },
    {
      "inputs": [],
      "name": "merkleRoot",
      "outputs": [
        {
          "internalType": "bytes32",
          "name": "",
          "type": "bytes32"
        }
      ],
      "stateMutability": "view",
      "type": "function"
    },
    {
      "inputs": [
        {
          "internalType": "address",
          "name": "_to",
          "type": "address"
        },
        {
          "internalType": "string",
          "name": "memberName",
          "type": "string"
        }
      ],
      "name": "mintOneNew",
      "outputs": [
        {
          "internalType": "uint256",
          "name": "",
          "type": "uint256"
        }
      ],
      "stateMutability": "nonpayable",
      "type": "function"
    },
    {
      "inputs": [
        {
          "internalType": "address",
          "name": "_to",
          "type": "address"
        },
        {
          "internalType": "string",
          "name": "memberName",
          "type": "string"
        },
        {
          "internalType": "bytes32[]",
          "name": "proof",
          "type": "bytes32[]"
        }
      ],
      "name": "mintOneWhitelist",
      "outputs": [
        {
          "internalType": "uint256",
          "name": "",
          "type": "uint256"
        }
      ],
      "stateMutability": "nonpayable",
      "type": "function"
    },
    {
      "inputs": [],
      "name": "myBaseURI",
      "outputs": [
        {
          "internalType": "string",
          "name": "",
          "type": "string"
        }
      ],
      "stateMutability": "view",
      "type": "function"
    },
    {
      "inputs": [],
      "name": "name",
      "outputs": [
        {
          "internalType": "string",
          "name": "",
          "type": "string"
        }
      ],
      "stateMutability": "view",
      "type": "function"
    },
    {
      "inputs": [],
      "name": "nftSetting",
      "outputs": [
        {
          "internalType": "uint256",
          "name": "spawn_threshold",
          "type": "uint256"
        },
        {
          "internalType": "uint256",
          "name": "spawn_cost",
          "type": "uint256"
        }
      ],
      "stateMutability": "view",
      "type": "function"
    },
    {
      "inputs": [
        {
          "internalType": "uint256",
          "name": "tokenId",
          "type": "uint256"
        }
      ],
      "name": "ownerOf",
      "outputs": [
        {
          "internalType": "address",
          "name": "",
          "type": "address"
        }
      ],
      "stateMutability": "view",
      "type": "function"
    },
    {
      "inputs": [
        {
          "internalType": "bool",
          "name": "_state",
          "type": "bool"
        }
      ],
      "name": "pause",
      "outputs": [],
      "stateMutability": "nonpayable",
      "type": "function"
    },
    {
      "inputs": [],
      "name": "paused",
      "outputs": [
        {
          "internalType": "bool",
          "name": "",
          "type": "bool"
        }
      ],
      "stateMutability": "view",
      "type": "function"
    },
    {
      "inputs": [
        {
          "internalType": "address",
          "name": "_to",
          "type": "address"
        }
      ],
      "name": "resetMember",
      "outputs": [],
      "stateMutability": "nonpayable",
      "type": "function"
    },
    {
      "inputs": [
        {
          "internalType": "address",
          "name": "from",
          "type": "address"
        },
        {
          "internalType": "address",
          "name": "to",
          "type": "address"
        },
        {
          "internalType": "uint256",
          "name": "tokenId",
          "type": "uint256"
        }
      ],
      "name": "safeTransferFrom",
      "outputs": [],
      "stateMutability": "nonpayable",
      "type": "function"
    },
    {
      "inputs": [
        {
          "internalType": "address",
          "name": "from",
          "type": "address"
        },
        {
          "internalType": "address",
          "name": "to",
          "type": "address"
        },
        {
          "internalType": "uint256",
          "name": "tokenId",
          "type": "uint256"
        },
        {
          "internalType": "bytes",
          "name": "_data",
          "type": "bytes"
        }
      ],
      "name": "safeTransferFrom",
      "outputs": [],
      "stateMutability": "nonpayable",
      "type": "function"
    },
    {
      "inputs": [
        {
          "internalType": "address",
          "name": "operator",
          "type": "address"
        },
        {
          "internalType": "bool",
          "name": "approved",
          "type": "bool"
        }
      ],
      "name": "setApprovalForAll",
      "outputs": [],
      "stateMutability": "nonpayable",
      "type": "function"
    },
    {
      "inputs": [
        {
          "internalType": "string",
          "name": "_newBaseURI",
          "type": "string"
        }
      ],
      "name": "setBaseURI",
      "outputs": [],
      "stateMutability": "nonpayable",
      "type": "function"
    },
    {
      "inputs": [
        {
          "internalType": "string",
          "name": "_newName",
          "type": "string"
        }
      ],
      "name": "setMemberName",
      "outputs": [],
      "stateMutability": "nonpayable",
      "type": "function"
    },
    {
      "inputs": [
        {
          "internalType": "uint256",
          "name": "_newmaxMintAmount",
          "type": "uint256"
        }
      ],
      "name": "setmaxMintAmount",
      "outputs": [],
      "stateMutability": "nonpayable",
      "type": "function"
    },
    {
      "inputs": [],
      "name": "spawn",
      "outputs": [
        {
          "internalType": "uint256",
          "name": "",
          "type": "uint256"
        }
      ],
      "stateMutability": "nonpayable",
      "type": "function"
    },
    {
      "inputs": [],
      "name": "spawnCallback",
      "outputs": [
        {
          "internalType": "uint256",
          "name": "",
          "type": "uint256"
        }
      ],
      "stateMutability": "nonpayable",
      "type": "function"
    },
    {
      "inputs": [
        {
          "internalType": "address",
          "name": "_to",
          "type": "address"
        }
      ],
      "name": "spawnCallbackMulti",
      "outputs": [
        {
          "internalType": "uint256",
          "name": "",
          "type": "uint256"
        }
      ],
      "stateMutability": "nonpayable",
      "type": "function"
    },
    {
      "inputs": [
        {
          "internalType": "address",
          "name": "_to",
          "type": "address"
        }
      ],
      "name": "spawnMulti",
      "outputs": [
        {
          "internalType": "uint256",
          "name": "",
          "type": "uint256"
        }
      ],
      "stateMutability": "nonpayable",
      "type": "function"
    },
    {
      "inputs": [],
      "name": "spawn_restart",
      "outputs": [
        {
          "internalType": "bool",
          "name": "",
          "type": "bool"
        }
      ],
      "stateMutability": "view",
      "type": "function"
    },
    {
      "inputs": [
        {
          "internalType": "address",
          "name": "_to",
          "type": "address"
        },
        {
          "internalType": "bool",
          "name": "value",
          "type": "bool"
        }
      ],
      "name": "superMemberApprove",
      "outputs": [],
      "stateMutability": "nonpayable",
      "type": "function"
    },
    {
      "inputs": [
        {
          "internalType": "address",
          "name": "_to",
          "type": "address"
        },
        {
          "internalType": "uint256",
          "name": "_tokenId",
          "type": "uint256"
        }
      ],
      "name": "superMemberTokenId",
      "outputs": [],
      "stateMutability": "nonpayable",
      "type": "function"
    },
    {
      "inputs": [
        {
          "internalType": "bytes4",
          "name": "interfaceId",
          "type": "bytes4"
        }
      ],
      "name": "supportsInterface",
      "outputs": [
        {
          "internalType": "bool",
          "name": "",
          "type": "bool"
        }
      ],
      "stateMutability": "view",
      "type": "function"
    },
    {
      "inputs": [],
      "name": "symbol",
      "outputs": [
        {
          "internalType": "string",
          "name": "",
          "type": "string"
        }
      ],
      "stateMutability": "view",
      "type": "function"
    },
    {
      "inputs": [
        {
          "internalType": "uint256",
          "name": "tokenId",
          "type": "uint256"
        }
      ],
      "name": "tokenURI",
      "outputs": [
        {
          "internalType": "string",
          "name": "",
          "type": "string"
        }
      ],
      "stateMutability": "view",
      "type": "function"
    },
    {
      "inputs": [],
      "name": "totalSupply",
      "outputs": [
        {
          "internalType": "uint256",
          "name": "",
          "type": "uint256"
        }
      ],
      "stateMutability": "view",
      "type": "function"
    },
    {
      "inputs": [
        {
          "internalType": "address",
          "name": "from",
          "type": "address"
        },
        {
          "internalType": "address",
          "name": "to",
          "type": "address"
        },
        {
          "internalType": "uint256",
          "name": "tokenId",
          "type": "uint256"
        }
      ],
      "name": "transferFrom",
      "outputs": [],
      "stateMutability": "nonpayable",
      "type": "function"
    },
    {
      "inputs": [
        {
          "internalType": "address",
          "name": "_newOwner",
          "type": "address"
        }
      ],
      "name": "transferOwnership",
      "outputs": [],
      "stateMutability": "nonpayable",
      "type": "function"
    },
    {
      "inputs": [
        {
          "internalType": "address",
          "name": "addrBalance",
          "type": "address"
        }
      ],
      "name": "upgradeMemberBalance",
      "outputs": [],
      "stateMutability": "nonpayable",
      "type": "function"
    },
    {
      "inputs": [
        {
          "internalType": "address",
          "name": "addrGovern",
          "type": "address"
        }
      ],
      "name": "upgradeMemberGovern",
      "outputs": [],
      "stateMutability": "nonpayable",
      "type": "function"
    },
    {
      "inputs": [
        {
          "internalType": "bytes32",
          "name": "_merkleRoot",
          "type": "bytes32"
        }
      ],
      "name": "upgradeMerkleRoot",
      "outputs": [],
      "stateMutability": "nonpayable",
      "type": "function"
    },
    {
      "inputs": [
        {
          "internalType": "uint256",
          "name": "new_cost",
          "type": "uint256"
        }
      ],
      "name": "upgradeSpawnCost",
      "outputs": [],
      "stateMutability": "nonpayable",
      "type": "function"
    },
    {
      "inputs": [
        {
          "internalType": "uint256",
          "name": "new_threshold",
          "type": "uint256"
        }
      ],
      "name": "upgradeSpawnThreshold",
      "outputs": [],
      "stateMutability": "nonpayable",
      "type": "function"
    }
  ],
  "bytecode": "0x600b80546001600160a01b03191690556101f46026556001602755610100604052604d6080818152906200473060a0396028906200003e908262000347565b50604080518082019091526005815264173539b7b760d91b60208201526029906200006a908262000347565b50602a805462ffffff1916620100001790553480156200008957600080fd5b506040516200477d3803806200477d833981016040819052620000ac9162000413565b6040518060400160405280600681526020016510589a53999d60d21b8152506040518060400160405280600481526020016320a124a760e11b8152508160029081620000f9919062000347565b50600362000108828262000347565b506000808155600880546001600160a01b0319908116338083169190911717909155600a80549091166001600160a01b0386161790556004602055620186a06021559150505b60058160ff16101562000289576001600c8260ff166005811062000176576200017662000445565b60040201805460ff19169115159190911790556000600c60ff831660058110620001a457620001a462000445565b6004020180549115156101000261ff00199092169190911790556000600c60ff831660058110620001d957620001d962000445565b600402016001018190555060405180602001604052806000815250600c8260ff16600581106200020d576200020d62000445565b60040201600201908162000222919062000347565b506008546001600160a01b0316600c60ff83166005811062000248576200024862000445565b6004020160030160006101000a8154816001600160a01b0302191690836001600160a01b03160217905550808062000280906200045b565b9150506200014e565b5050602a805462ff000019166201000017905562000489565b634e487b7160e01b600052604160045260246000fd5b600181811c90821680620002cd57607f821691505b602082108103620002ee57634e487b7160e01b600052602260045260246000fd5b50919050565b601f8211156200034257600081815260208120601f850160051c810160208610156200031d5750805b601f850160051c820191505b818110156200033e5782815560010162000329565b5050505b505050565b81516001600160401b03811115620003635762000363620002a2565b6200037b81620003748454620002b8565b84620002f4565b602080601f831160018114620003b357600084156200039a5750858301515b600019600386901b1c1916600185901b1785556200033e565b600085815260208120601f198616915b82811015620003e457888601518255948401946001909101908401620003c3565b5085821015620004035787850151600019600388901b60f8161c191681555b5050505050600190811b01905550565b6000602082840312156200042657600080fd5b81516001600160a01b03811681146200043e57600080fd5b9392505050565b634e487b7160e01b600052603260045260246000fd5b600060ff821660ff81036200048057634e487b7160e01b600052601160045260246000fd5b60010192915050565b61429780620004996000396000f3fe608060405234801561001057600080fd5b50600436106103e65760003560e01c806379ba50971161020a578063b547aeda11610125578063c884ef83116100b8578063d777b39111610087578063d777b39114610833578063e2243ad51461083c578063e985e9c514610844578063f2fde38b14610880578063fc79dcab1461089357600080fd5b8063c884ef83146107e1578063cd38916414610804578063d18fd36714610817578063d5abeb011461082a57600080fd5b8063bd05be6a116100f4578063bd05be6a146107a0578063be2423ed146107b3578063c6682862146107c6578063c87b56dd146107ce57600080fd5b8063b547aeda1461076a578063b57eba2a14610772578063b88d4fde1461077a578063bc08d3b61461078d57600080fd5b8063a22cb4651161019d578063ad31450f1161016c578063ad31450f1461070e578063ad977ef614610731578063aff4b84914610744578063b1c9240a1461075757600080fd5b8063a22cb465146106c2578063a230c524146106d5578063a888fb25146106e8578063a9c0ccdb146106fb57600080fd5b806391cbd241116101d957806391cbd2411461068c57806395d89b411461069f57806397b84728146106a75780639c4bbb79146106ba57600080fd5b806379ba50971461064d5780637a051d08146106555780637f00c7a6146106665780639000250f1461067957600080fd5b80632fa9083a11610305578063526c23ba116102985780635c975abb116102675780635c975abb146105fc5780635ce19b281461060e5780636352211e1461061657806369105f971461062957806370a082311461063a57600080fd5b8063526c23ba146105b057806355f804b3146105c3578063590050da146105d65780635c16258d146105e957600080fd5b80633c2d9774116102d45780633c2d9774146105645780633f968160146105775780633ff91d001461058a57806342842e0e1461059d57600080fd5b80632fa9083a146105395780633060eaaf146105415780633554ada314610549578063372a3b821461055c57600080fd5b806318160ddd1161037d57806329213a2f1161034c57806329213a2f146104f757806329e8c7361461050a5780632b9711af1461051d5780632eb4a7ab1461053057600080fd5b806318160ddd146104bc5780631ec2cb2e146104c8578063239c70ae146104db57806323b872dd146104e457600080fd5b8063095ea7b3116103b9578063095ea7b31461046857806315320e571461047b5780631725ced11461049c57806317d54286146104a957600080fd5b806301ffc9a7146103eb57806302329a291461041357806306fdde0314610428578063081812fc1461043d575b600080fd5b6103fe6103f936600461389f565b6108a6565b60405190151581526020015b60405180910390f35b6104266104213660046138ca565b6108f8565b005b610430610929565b60405161040a9190613937565b61045061044b36600461394a565b6109bb565b6040516001600160a01b03909116815260200161040a565b61042661047636600461397a565b6109ff565b61048e6104893660046139a4565b610a8c565b60405190815260200161040a565b602a546103fe9060ff1681565b6104506104b736600461394a565b6110f6565b6001546000540361048e565b602a546103fe9062010000900460ff1681565b61048e60275481565b6104266104f23660046139bf565b611122565b61048e6105053660046139a4565b61112d565b61048e61051836600461394a565b61134f565b61042661052b36600461394a565b611385565b61048e60235481565b60245461048e565b61048e6113a1565b61042661055736600461394a565b611522565b610430611574565b61048e610572366004613aa6565b611602565b600a54610450906001600160a01b031681565b6104266105983660046139a4565b61177a565b6104266105ab3660046139bf565b6117b3565b61048e6105be366004613aa6565b6117ce565b6104266105d1366004613af3565b6117fb565b600b54610450906001600160a01b031681565b61048e6105f7366004613aa6565b611822565b602a546103fe90610100900460ff1681565b60205461048e565b61045061062436600461394a565b611af9565b600a546001600160a01b0316610450565b61048e6106483660046139a4565b611b0b565b610426611b59565b600b546001600160a01b0316610450565b61042661067436600461394a565b611bd6565b61042661068736600461394a565b611bf2565b61048e61069a366004613af3565b611c0e565b61043061202b565b61048e6106b536600461394a565b61203a565b61048e612057565b6104266106d0366004613b27565b612067565b6103fe6106e33660046139a4565b6120fc565b6104266106f6366004613b27565b61217a565b61048e6107093660046139a4565b6121bc565b60205460215461071c919082565b6040805192835260208301919091520161040a565b61043061073f36600461394a565b6124d8565b6104306107523660046139a4565b612584565b61048e6107653660046138ca565b6125d2565b61048e612614565b60215461048e565b610426610788366004613b5e565b612941565b61042661079b366004613af3565b612992565b61048e6107ae366004613bd9565b6129ae565b6104266107c13660046139a4565b612c1b565b610430612c54565b6104306107dc36600461394a565b612c61565b6103fe6107ef3660046139a4565b60396020526000908152604090205460ff1681565b6104266108123660046139a4565b612cf1565b61048e6108253660046139a4565b612d4f565b61048e60265481565b61048e60245481565b610430612d96565b6103fe610852366004613c7d565b6001600160a01b03918216600090815260076020908152604080832093909416825291909152205460ff1690565b61042661088e3660046139a4565b612ec9565b6104266108a136600461397a565b612f02565b60006001600160e01b031982166380ac58cd60e01b14806108d757506001600160e01b03198216635b5e139f60e01b145b806108f257506301ffc9a760e01b6001600160e01b03198316145b92915050565b6008546001600160a01b0316331461090f57600080fd5b602a80549115156101000261ff0019909216919091179055565b60606002805461093890613cb0565b80601f016020809104026020016040519081016040528092919081815260200182805461096490613cb0565b80156109b15780601f10610986576101008083540402835291602001916109b1565b820191906000526020600020905b81548152906001019060200180831161099457829003601f168201915b5050505050905090565b60006109c682612f38565b6109e3576040516333d1c03960e21b815260040160405180910390fd5b506000908152600660205260409020546001600160a01b031690565b6000610a0a82611af9565b9050806001600160a01b0316836001600160a01b031603610a3e5760405163250fdee360e21b815260040160405180910390fd5b336001600160a01b03821614801590610a5e5750610a5c8133610852565b155b15610a7c576040516367d9dca160e11b815260040160405180910390fd5b610a87838383612f63565b505050565b3360009081526038602052604081205460ff161515600114610ac95760405162461bcd60e51b8152600401610ac090613cea565b60405180910390fd5b60008060005b60058160ff161015610b2f57846001600160a01b0316600c8260ff1660058110610afb57610afb613d21565b60040201600301546001600160a01b031603610b1d5760019250809150610b2f565b80610b2781613d4d565b915050610acf565b50811561107a576000805b602d8360ff1660058110610b5057610b50613d21565b0154811015610bb75733602d60ff851660058110610b7057610b70613d21565b018281548110610b8257610b82613d21565b6000918252602090912001546001600160a01b031603610ba55760019150610bb7565b80610baf81613d6c565b915050610b3a565b508015610c065760405162461bcd60e51b815260206004820181905260248201527f796f7520616c726561647920737061776e2074686973206170706c6963616e746044820152606401610ac0565b602d8260ff1660058110610c1c57610c1c613d21565b018054600181018255600091825260209091200180546001600160a01b03191633179055600a546001600160a01b0316636a82d9e1600c60ff851660058110610c6757610c67613d21565b6004020160030160009054906101000a90046001600160a01b0316602c54336020600101546040518563ffffffff1660e01b8152600401610cab9493929190613d85565b6020604051808303816000875af1158015610cca573d6000803e3d6000fd5b505050506040513d601f19601f82011682018060405250810190610cee9190613daf565b506025543360009081526038602090815260409091206002019190915554602d60ff841660058110610d2257610d22613d21565b01541061107857602d8260ff1660058110610d3f57610d3f613d21565b610d4b9101600061384f565b6001600c8360ff1660058110610d6357610d63613d21565b60040201805460ff19169115159190911790556000600c60ff841660058110610d8e57610d8e613d21565b6004020180549115156101000261ff00199092169190911790556000610db76001546000540390565b602654909150610dc8826001613dc8565b1115610de65760405162461bcd60e51b8152600401610ac090613ddb565b600a54602c546001600160a01b039091169063d6fe8fad90600c60ff871660058110610e1457610e14613d21565b6004020160030160009054906101000a90046001600160a01b03166040518363ffffffff1660e01b8152600401610e5e9291909182526001600160a01b0316602082015260400190565b6020604051808303816000875af1158015610e7d573d6000803e3d6000fd5b505050506040513d601f19601f82011682018060405250810190610ea19190613e0b565b506000602c819055603790600c60ff861660058110610ec257610ec2613d21565b60040201600301546001600160a01b0316815260208101919091526040016000908120805491610ef183613d6c565b9190505550610f32600c8460ff1660058110610f0f57610f0f613d21565b6004020160030160009054906101000a90046001600160a01b0316602754612fbf565b6000610f3d60225490565b90508060386000600c8760ff1660058110610f5a57610f5a613d21565b6004020160030160009054906101000a90046001600160a01b03166001600160a01b03166001600160a01b0316815260200190815260200160002060030181905550600160386000600c8760ff1660058110610fb857610fb8613d21565b60040201600301546001600160a01b031681526020810191909152604001600020805460ff1916911515919091179055600c60ff851660058110610ffe57610ffe613d21565b6004020160020160386000600c8760ff166005811061101f5761101f613d21565b600490810291909101600301546001600160a01b03168252602082019290925260400160002001906110519082613e76565b506024805490600061106283613d6c565b9190505550611075602280546001019055565b50505b505b7ffe60f7853ab389eb39ce1f7beebdc7a4afcd1dffa7f912fdbf4ea47fb9f0a5ba33602d8360ff16600581106110b2576110b2613d21565b0154604080516001600160a01b03909316835260208301919091520160405180910390a1602d8160ff16600581106110ec576110ec613d21565b0154949350505050565b6000600c826005811061110b5761110b613d21565b60040201600301546001600160a01b031692915050565b610a87838383612fd9565b6008546000906001600160a01b0316331461114757600080fd5b602a54610100900460ff161561116f5760405162461bcd60e51b8152600401610ac090613f52565b6001600160a01b03821660009081526038602052604090205460ff16156111e45760405162461bcd60e51b815260206004820152602360248201527f617070726f7665206d656d626572206e65656420746f20626520696e616374696044820152621d995960ea1b6064820152608401610ac0565b60006111f36001546000540390565b602654909150611204826001613dc8565b11156112225760405162461bcd60e51b8152600401610ac090613ddb565b6001600160a01b0383166000818152603860208181526040808420805460ff1916600117815560038101859055815180830190925260068252656e6f6e616d6560d01b82840152949093525260049091019061127e9082613f82565b50602a805460ff19166001179055600a54604051633ead54d360e11b81526001600160a01b03858116600483015290911690637d5aa9a6906024016020604051808303816000875af11580156112d8573d6000803e3d6000fd5b505050506040513d601f19601f820116820180604052508101906112fc9190613daf565b602b819055604080516001600160a01b038616815260208101929092527ff1d0f8a592bc1469222ef70b725c80d521dbdf14649755dd0ffcbf2464fb10eb910160405180910390a15050602b545b919050565b600b546000906001600160a01b0316331461137c5760405162461bcd60e51b8152600401610ac090614039565b60259190915590565b6008546001600160a01b0316331461139c57600080fd5b602155565b3360009081526038602052604081205460ff1615156001146113d55760405162461bcd60e51b8152600401610ac090613cea565b60255433600090815260386020526040902060020154106114085760405162461bcd60e51b8152600401610ac090614068565b602d54156114fe57600a54600f54602c54602154604051636a82d9e160e01b81526001600160a01b0394851694636a82d9e19461144f949116929091339190600401613d85565b6020604051808303816000875af115801561146e573d6000803e3d6000fd5b505050506040513d601f19601f820116820180604052508101906114929190613daf565b50602d6114a16001600561409f565b815481106114b1576114b1613d21565b6000918252602082200180546001600160a01b0319169055602d018054806114db576114db6140b2565b600082815260209020810160001990810180546001600160a01b03191690550190555b60255433600090815260386020526040812060020191909155602d905b0154919050565b8061156f5760405162461bcd60e51b815260206004820152601e60248201527f6d65726b6c65526f6f7420697320746865207a65726f206164647265737300006044820152606401610ac0565b602355565b6028805461158190613cb0565b80601f01602080910402602001604051908101604052809291908181526020018280546115ad90613cb0565b80156115fa5780601f106115cf576101008083540402835291602001916115fa565b820191906000526020600020905b8154815290600101906020018083116115dd57829003601f168201915b505050505081565b6008546000906001600160a01b0316331461161c57600080fd5b600061162b6001546000540390565b60265490915061163c826001613dc8565b111561165a5760405162461bcd60e51b8152600401610ac090613ddb565b600061166560225490565b6001600160a01b038616600090815260376020526040812080549293509061168c83613d6c565b919050555061169c856001612fbf565b6001600160a01b0385166000908152603860205260409020600381018290556004016116c88582613f82565b50602a805460ff19169055600a54602b5460405163751ff34f60e11b815260048101919091526001600160a01b0387811660248301529091169063ea3fe69e906044016020604051808303816000875af115801561172a573d6000803e3d6000fd5b505050506040513d601f19601f8201168201806040525081019061174e9190613e0b565b506024805490600061175f83613d6c565b9190505550611772602280546001019055565b949350505050565b6008546001600160a01b0316331461179157600080fd5b600a80546001600160a01b0319166001600160a01b0392909216919091179055565b610a8783838360405180602001604052806000815250612941565b600b546000906001600160a01b0316331461161c5760405162461bcd60e51b8152600401610ac090614039565b6008546001600160a01b0316331461181257600080fd5b602861181e8282613f82565b5050565b602a54600090610100900460ff161561184d5760405162461bcd60e51b8152600401610ac090613f52565b6001600160a01b03831660009081526038602052604090205460ff1615156001146118ba5760405162461bcd60e51b815260206004820152601960248201527f6d656d626572206e65656420746f2062652061637469766564000000000000006044820152606401610ac0565b6001600160a01b03831660009081526038602052604090206003015415806118ef57506008546001600160a01b038481169116145b61193b5760405162461bcd60e51b815260206004820152601c60248201527f6d656d6265722068617320616c7265616479206265206d696e746564000000006044820152606401610ac0565b600061194a6001546000540390565b60265490915061195b826001613dc8565b11156119795760405162461bcd60e51b8152600401610ac090613ddb565b600061198460225490565b6001600160a01b03861660009081526037602052604081208054929350906119ab83613d6c565b91905055506119bb856001612fbf565b6001600160a01b0385166000908152603860205260409020600381018290556004016119e78582613f82565b50602a805460ff19169055600a54602b5460405163751ff34f60e11b815260048101919091526001600160a01b0387811660248301529091169063ea3fe69e906044016020604051808303816000875af1158015611a49573d6000803e3d6000fd5b505050506040513d601f19601f82011682018060405250810190611a6d9190613e0b565b5060248054906000611a7e83613d6c565b9190505550611a91602280546001019055565b600a5460405163399c1ec160e11b81526001600160a01b038781166004830152909116906373383d8290602401600060405180830381600087803b158015611ad857600080fd5b505af1158015611aec573d6000803e3d6000fd5b5092979650505050505050565b6000611b04826131d4565b5192915050565b60006001600160a01b038216611b34576040516323d3ad8160e21b815260040160405180910390fd5b506001600160a01b03166000908152600560205260409020546001600160401b031690565b6009546001600160a01b03163314611b7057600080fd5b6009546008546040516001600160a01b0392831692909116907f8be0079c531659141344cd1fd0a4f28419497f9722a3daafe3b4186f6b6457e090600090a360098054600880546001600160a01b03199081166001600160a01b03841617909155169055565b6008546001600160a01b03163314611bed57600080fd5b602755565b6008546001600160a01b03163314611c0957600080fd5b602055565b602a54600090610100900460ff1615611c395760405162461bcd60e51b8152600401610ac090613f52565b3360009081526038602052604090205460ff1615611ca35760405162461bcd60e51b815260206004820152602160248201527f6170706c79206d656d626572206e65656420746f20626520696e6163746976656044820152601960fa1b6064820152608401610ac0565b6000806000805b60058160ff161015611d705733600c60ff831660058110611ccd57611ccd613d21565b60040201600301546001600160a01b031603611cec5760019350611d70565b600c8160ff1660058110611d0257611d02613d21565b600402015460ff1615156001148015611d1c575060ff8316155b15611d2957809250611d5e565b600c8160ff1660058110611d3f57611d3f613d21565b600402015460ff161515600003611d5e5781611d5a81613d4d565b9250505b80611d6881613d4d565b915050611caa565b508215611db45760405162461bcd60e51b815260206004820152601260248201527103cb7ba9030b63932b0b23c9030b838363c960751b6044820152606401610ac0565b60058160ff1610611e175760405162461bcd60e51b815260206004820152602760248201527f6170706c79206f7574206f6620616d6f756e74206c696d697420666f7220746860448201526669732074696d6560c81b6064820152608401610ac0565b60058260ff1610611e6a5760405162461bcd60e51b815260206004820181905260248201527f6669727374206f7574206f66206c696d697420666f7220746869732074696d656044820152606401610ac0565b33600c8360ff1660058110611e8157611e81613d21565b6004020160030160006101000a8154816001600160a01b0302191690836001600160a01b031602179055506000600c8360ff1660058110611ec457611ec4613d21565b60040201805460ff191691151591909117905584600c60ff841660058110611eee57611eee613d21565b600402016002019081611f019190613f82565b506001600c8360ff1660058110611f1a57611f1a613d21565b60049081029190910180549215156101000261ff001990931692909217909155600a54604051637572c5bd60e11b815233928101929092526001600160a01b03169063eae58b7a906024016020604051808303816000875af1158015611f84573d6000803e3d6000fd5b505050506040513d601f19601f82011682018060405250810190611fa89190613daf565b602c55602d60ff831660058110611fc157611fc1613d21565b611fcd9101600061384f565b60258054906000611fdd83613d6c565b9091555050602c546040805133815260208101929092527f80e2d0de91ab94c5ddb539b0f826a7ffe6689ec23c97f958c9642dceb0bab5bc910160405180910390a150506025549392505050565b60606003805461093890613cb0565b6000602d826005811061204f5761204f613d21565b015492915050565b600061206260225490565b905090565b336001600160a01b038316036120905760405163b06307db60e01b815260040160405180910390fd5b3360008181526007602090815260408083206001600160a01b03871680855290835292819020805460ff191686151590811790915590519081529192917f17307eab39ab6107e8899845ad3d59bd9653f200f220920489ca2b5937696c31910160405180910390a35050565b60006001600160a01b0382166121495760405162461bcd60e51b8152602060048201526012602482015271746f206973207a65726f206164647265737360701b6044820152606401610ac0565b6001600160a01b03821660009081526038602052604090205460ff161561217257506001919050565b506000919050565b6008546001600160a01b0316331461219157600080fd5b6001600160a01b03919091166000908152603860205260409020805460ff1916911515919091179055565b3360009081526038602052604081205460ff1615156001146121f05760405162461bcd60e51b8152600401610ac090613cea565b60255433600090815260386020526040902060020154106122235760405162461bcd60e51b8152600401610ac090614068565b60008060005b60058160ff16101561228957846001600160a01b0316600c8260ff166005811061225557612255613d21565b60040201600301546001600160a01b0316036122775760019250809150612289565b8061228181613d4d565b915050612229565b5081156124b7576000805b602d8360ff16600581106122aa576122aa613d21565b01548110156124b45733602d60ff8516600581106122ca576122ca613d21565b0182815481106122dc576122dc613d21565b6000918252602090912001546001600160a01b0316036124a25760019150805b6001602d8560ff166005811061231457612314613d21565b0154612320919061409f565b8210156123d157602d8460ff166005811061233d5761233d613d21565b01612349826001613dc8565b8154811061235957612359613d21565b6000918252602090912001546001600160a01b0316602d60ff86166005811061238457612384613d21565b01828154811061239657612396613d21565b600091825260209091200180546001600160a01b0319166001600160a01b0392909216919091179055806123c981613d6c565b9150506122fc565b50602d8360ff16600581106123e8576123e8613d21565b018054806123f8576123f86140b2565b600082815260209020600019908201810180546001600160a01b0319169055019055600a54600f54602c54602154604051636a82d9e160e01b81526001600160a01b0394851694636a82d9e194612459949116929091339190600401613d85565b6020604051808303816000875af1158015612478573d6000803e3d6000fd5b505050506040513d601f19601f8201168201806040525081019061249c9190613daf565b506124b4565b806124ac81613d6c565b915050612294565b50505b60255433600090815260386020526040812060020191909155602d906110ec565b6060600c82600581106124ed576124ed613d21565b6004020160020180546124ff90613cb0565b80601f016020809104026020016040519081016040528092919081815260200182805461252b90613cb0565b80156125785780601f1061254d57610100808354040283529160200191612578565b820191906000526020600020905b81548152906001019060200180831161255b57829003601f168201915b50505050509050919050565b60606001600160a01b0382166125ac5760405162461bcd60e51b8152600401610ac0906140c8565b6001600160a01b038216600090815260386020526040902060040180546124ff90613cb0565b600b546000906001600160a01b031633146125ff5760405162461bcd60e51b8152600401610ac090614039565b600c805460ff19169215159290921790915590565b3360009081526038602052604081205460ff1615156001146126485760405162461bcd60e51b8152600401610ac090613cea565b602554336000908152603860205260409020600201541061267b5760405162461bcd60e51b8152600401610ac090614068565b602d80546001810182556000919091527f4a2cc91ee622da3bc833a54c37ffcb6f3ec23b7793efc5eaf5e71b7b406c5c060180546001600160a01b03191633908117909155600a54600f54602c54602154604051636a82d9e160e01b81526001600160a01b0394851695636a82d9e1956126fc951693929091600401613d85565b6020604051808303816000875af115801561271b573d6000803e3d6000fd5b505050506040513d601f19601f8201168201806040525081019061273f9190613daf565b506025543360009081526038602090815260409091206002019190915554602d54106128fb57612771602d600061384f565b600c805461ffff19166001179055600061278e6001546000540390565b60265490915061279f826001613dc8565b11156127bd5760405162461bcd60e51b8152600401610ac090613ddb565b600a54602c54600f5460405163d6fe8fad60e01b815260048101929092526001600160a01b0390811660248301529091169063d6fe8fad906044016020604051808303816000875af1158015612817573d6000803e3d6000fd5b505050506040513d601f19601f8201168201806040525081019061283b9190613e0b565b506000602c819055600f546001600160a01b0316815260376020526040812080549161286683613d6c565b909155506128789050600c6000610f0f565b600061288360225490565b600f80546001600160a01b03908116600090815260386020526040808220600301859055835483168252808220805460ff1916600117905592549091168152209091506004016128d4600e82613e76565b50602480549060006128e583613d6c565b91905055506128f8602280546001019055565b50505b602d546040805133815260208101929092527ffe60f7853ab389eb39ce1f7beebdc7a4afcd1dffa7f912fdbf4ea47fb9f0a5ba910160405180910390a1602d600061151b565b61294c848484612fd9565b6001600160a01b0383163b1515801561296e575061296c848484846132ee565b155b1561298c576040516368d2bf6b60e11b815260040160405180910390fd5b50505050565b33600090815260386020526040902060040161181e8282613f82565b60006001600160a01b0385166129d65760405162461bcd60e51b8152600401610ac0906140c8565b60006129e56001546000540390565b6026549091506129f6826001613dc8565b1115612a145760405162461bcd60e51b8152600401610ac090613ddb565b6001600160a01b03861660009081526039602052604090205460ff1615612a4e57604051630c8d9eab60e31b815260040160405180910390fd5b6040516bffffffffffffffffffffffff19606088901b1660208201526000906034016040516020818303038152906040528051906020012090506000612acb8686808060200260200160405190810160405280939291908181526020018383602002808284376000920191909152505060235486925090506133d6565b905080612aeb57604051630b094f2760e31b815260040160405180910390fd5b6001600160a01b0388166000908152603960205260408120805460ff19166001179055612b1760225490565b6001600160a01b038a166000908152603760205260408120805492935090612b3e83613d6c565b9190505550612b4e896001612fbf565b6001600160a01b038916600090815260386020526040902060038101829055600401612b7a8982613f82565b50600a546040516365cc065d60e01b81526001600160a01b038b81166004830152909116906365cc065d906024016020604051808303816000875af1158015612bc7573d6000803e3d6000fd5b505050506040513d601f19601f82011682018060405250810190612beb9190613e0b565b5060248054906000612bfc83613d6c565b9190505550612c0f602280546001019055565b98975050505050505050565b6008546001600160a01b03163314612c3257600080fd5b600b80546001600160a01b0319166001600160a01b0392909216919091179055565b6029805461158190613cb0565b6060612c6c82612f38565b612c8957604051630a14c4b560e41b815260040160405180910390fd5b6000612c936133ec565b90508051600003612cbc576040518060800160405280605d8152602001614205605d9139612cea565b80612cc6846133fb565b6029604051602001612cda939291906140f8565b6040516020818303038152906040525b9392505050565b6008546001600160a01b03163314612d0857600080fd5b6001600160a01b038116612d2e5760405162461bcd60e51b8152600401610ac0906140c8565b6001600160a01b03166000908152603860205260409020805460ff19169055565b60006001600160a01b038216612d775760405162461bcd60e51b8152600401610ac0906140c8565b506001600160a01b031660009081526038602052604090206003015490565b60606000612da76001546000540390565b602654909150612db8826001613dc8565b1115612dd65760405162461bcd60e51b8152600401610ac090613ddb565b602880548291600091612de890613cb0565b80601f0160208091040260200160405190810160405280929190818152602001828054612e1490613cb0565b8015612e615780601f10612e3657610100808354040283529160200191612e61565b820191906000526020600020905b815481529060010190602001808311612e4457829003601f168201915b505050505090506000815111612e9357604051806040016040528060048152602001636e6f6e6560e01b815250612ec1565b80612e9d836133fb565b6029604051602001612eb1939291906140f8565b6040516020818303038152906040525b935050505090565b6008546001600160a01b03163314612ee057600080fd5b600980546001600160a01b0319166001600160a01b0392909216919091179055565b6008546001600160a01b03163314612f1957600080fd5b6001600160a01b03909116600090815260386020526040902060030155565b60008054821080156108f2575050600090815260046020526040902054600160e01b900460ff161590565b60008281526006602052604080822080546001600160a01b0319166001600160a01b0387811691821790925591518593918516917f8c5be1e5ebec7d5bd14f71427d1e84f3dd0314c0f7b2291e5b200ac8c7c3b92591a4505050565b61181e82826040518060200160405280600081525061348d565b6000612fe4826131d4565b9050836001600160a01b031681600001516001600160a01b03161461301b5760405162a1148160e81b815260040160405180910390fd5b6000336001600160a01b038616148061303957506130398533610852565b80613054575033613049846109bb565b6001600160a01b0316145b90508061307457604051632ce44b5f60e11b815260040160405180910390fd5b6001600160a01b03841661309b57604051633a954ecd60e21b815260040160405180910390fd5b6130a8858585600161349a565b6130b460008487612f63565b6001600160a01b038581166000908152600560209081526040808320805467ffffffffffffffff198082166001600160401b0392831660001901831617909255898616808652838620805493841693831660019081018416949094179055898652600490945282852080546001600160e01b031916909417600160a01b4290921691909102178355870180845292208054919390911661318857600054821461318857805460208601516001600160401b0316600160a01b026001600160e01b03199091166001600160a01b038a16171781555b50505082846001600160a01b0316866001600160a01b03167fddf252ad1be2c89b69c2b068fc378daa952ba7f163c4a11628f55a4df523b3ef60405160405180910390a45b5050505050565b6040805160608101825260008082526020820181905291810191909152816000548110156132d557600081815260046020908152604091829020825160608101845290546001600160a01b0381168252600160a01b81046001600160401b031692820192909252600160e01b90910460ff161515918101829052906132d35780516001600160a01b03161561326a579392505050565b5060001901600081815260046020908152604091829020825160608101845290546001600160a01b038116808352600160a01b82046001600160401b031693830193909352600160e01b900460ff16151592810192909252156132ce579392505050565b61326a565b505b604051636f96cda160e11b815260040160405180910390fd5b604051630a85bd0160e11b81526000906001600160a01b0385169063150b7a02906133239033908990889088906004016141aa565b6020604051808303816000875af192505050801561335e575060408051601f3d908101601f1916820190925261335b918101906141e7565b60015b6133bc573d80801561338c576040519150601f19603f3d011682016040523d82523d6000602084013e613391565b606091505b5080516000036133b4576040516368d2bf6b60e11b815260040160405180910390fd5b805181602001fd5b6001600160e01b031916630a85bd0160e11b149050611772565b6000826133e38584613520565b14949350505050565b60606028805461093890613cb0565b606060006134088361356d565b60010190506000816001600160401b03811115613427576134276139fb565b6040519080825280601f01601f191660200182016040528015613451576020820181803683370190505b5090508181016020015b600019016f181899199a1a9b1b9c1cb0b131b232b360811b600a86061a8153600a850494508461345b57509392505050565b610a878383836001613645565b6001600160a01b03841615806134b757506001600160a01b038316155b806134cf57506008546001600160a01b038581169116145b61351b5760405162461bcd60e51b815260206004820152601860248201527f6e6674206973206e6f74207472616e736665727261626c6500000000000000006044820152606401610ac0565b61298c565b600081815b8451811015613565576135518286838151811061354457613544613d21565b6020026020010151613823565b91508061355d81613d6c565b915050613525565b509392505050565b60008072184f03e93ff9f4daa797ed6e38ed64bf6a1f0160401b83106135ac5772184f03e93ff9f4daa797ed6e38ed64bf6a1f0160401b830492506040015b6d04ee2d6d415b85acef810000000083106135d8576d04ee2d6d415b85acef8100000000830492506020015b662386f26fc1000083106135f657662386f26fc10000830492506010015b6305f5e100831061360e576305f5e100830492506008015b612710831061362257612710830492506004015b60648310613634576064830492506002015b600a83106108f25760010192915050565b6000546001600160a01b03851661366e57604051622e076360e81b815260040160405180910390fd5b8360000361368f5760405163b562e8dd60e01b815260040160405180910390fd5b61369c600086838761349a565b6001600160a01b038516600081815260056020908152604080832080546fffffffffffffffffffffffffffffffff1981166001600160401b038083168c0181169182176801000000000000000067ffffffffffffffff1990941690921783900481168c01811690920217909155858452600490925290912080546001600160e01b031916909217600160a01b42909216919091021790558080850183801561374d57506001600160a01b0387163b15155b156137d5575b60405182906001600160a01b038916906000907fddf252ad1be2c89b69c2b068fc378daa952ba7f163c4a11628f55a4df523b3ef908290a461379e60008884806001019550886132ee565b6137bb576040516368d2bf6b60e11b815260040160405180910390fd5b8082036137535782600054146137d057600080fd5b61381a565b5b6040516001830192906001600160a01b038916906000907fddf252ad1be2c89b69c2b068fc378daa952ba7f163c4a11628f55a4df523b3ef908290a48082036137d6575b506000556131cd565b600081831061383f576000828152602084905260409020612cea565b5060009182526020526040902090565b508054600082559060005260206000209081019061386d9190613870565b50565b5b808211156138855760008155600101613871565b5090565b6001600160e01b03198116811461386d57600080fd5b6000602082840312156138b157600080fd5b8135612cea81613889565b801515811461386d57600080fd5b6000602082840312156138dc57600080fd5b8135612cea816138bc565b60005b838110156139025781810151838201526020016138ea565b50506000910152565b600081518084526139238160208601602086016138e7565b601f01601f19169290920160200192915050565b602081526000612cea602083018461390b565b60006020828403121561395c57600080fd5b5035919050565b80356001600160a01b038116811461134a57600080fd5b6000806040838503121561398d57600080fd5b61399683613963565b946020939093013593505050565b6000602082840312156139b657600080fd5b612cea82613963565b6000806000606084860312156139d457600080fd5b6139dd84613963565b92506139eb60208501613963565b9150604084013590509250925092565b634e487b7160e01b600052604160045260246000fd5b60006001600160401b0380841115613a2b57613a2b6139fb565b604051601f8501601f19908116603f01168101908282118183101715613a5357613a536139fb565b81604052809350858152868686011115613a6c57600080fd5b858560208301376000602087830101525050509392505050565b600082601f830112613a9757600080fd5b612cea83833560208501613a11565b60008060408385031215613ab957600080fd5b613ac283613963565b915060208301356001600160401b03811115613add57600080fd5b613ae985828601613a86565b9150509250929050565b600060208284031215613b0557600080fd5b81356001600160401b03811115613b1b57600080fd5b61177284828501613a86565b60008060408385031215613b3a57600080fd5b613b4383613963565b91506020830135613b53816138bc565b809150509250929050565b60008060008060808587031215613b7457600080fd5b613b7d85613963565b9350613b8b60208601613963565b92506040850135915060608501356001600160401b03811115613bad57600080fd5b8501601f81018713613bbe57600080fd5b613bcd87823560208401613a11565b91505092959194509250565b60008060008060608587031215613bef57600080fd5b613bf885613963565b935060208501356001600160401b0380821115613c1457600080fd5b613c2088838901613a86565b94506040870135915080821115613c3657600080fd5b818701915087601f830112613c4a57600080fd5b813581811115613c5957600080fd5b8860208260051b8501011115613c6e57600080fd5b95989497505060200194505050565b60008060408385031215613c9057600080fd5b613c9983613963565b9150613ca760208401613963565b90509250929050565b600181811c90821680613cc457607f821691505b602082108103613ce457634e487b7160e01b600052602260045260246000fd5b50919050565b60208082526019908201527f73656e646572206e65656420746f206265206163746976656400000000000000604082015260600190565b634e487b7160e01b600052603260045260246000fd5b634e487b7160e01b600052601160045260246000fd5b600060ff821660ff8103613d6357613d63613d37565b60010192915050565b600060018201613d7e57613d7e613d37565b5060010190565b6001600160a01b039485168152602081019390935292166040820152606081019190915260800190565b600060208284031215613dc157600080fd5b5051919050565b808201808211156108f2576108f2613d37565b6020808252601690820152751b585e08139195081b1a5b5a5d08195e18d95959195960521b604082015260600190565b600060208284031215613e1d57600080fd5b8151612cea816138bc565b601f821115610a8757600081815260208120601f850160051c81016020861015613e4f5750805b601f850160051c820191505b81811015613e6e57828155600101613e5b565b505050505050565b818103613e81575050565b613e8b8254613cb0565b6001600160401b03811115613ea257613ea26139fb565b613eb681613eb08454613cb0565b84613e28565b6000601f821160018114613eea5760008315613ed25750848201545b600019600385901b1c1916600184901b1784556131cd565b600085815260209020601f19841690600086815260209020845b83811015613f245782860154825560019586019590910190602001613f04565b5085831015613f425781850154600019600388901b60f8161c191681555b5050505050600190811b01905550565b6020808252601690820152751d1a194818dbdb9d1c9858dd081a5cc81c185d5cd95960521b604082015260600190565b81516001600160401b03811115613f9b57613f9b6139fb565b613fa981613eb08454613cb0565b602080601f831160018114613fde5760008415613fc65750858301515b600019600386901b1c1916600185901b178555613e6e565b600085815260208120601f198616915b8281101561400d57888601518255948401946001909101908401613fee565b5085821015613f4257939096015160001960f8600387901b161c19169092555050600190811b01905550565b60208082526015908201527437b7363c9030b63637bb903337b91023b7bb32b93760591b604082015260600190565b6020808252601c908201527f796f7520616c726561647920737061776e65642074686973204e465400000000604082015260600190565b818103818111156108f2576108f2613d37565b634e487b7160e01b600052603160045260246000fd5b602080825260169082015275746f20697320746865207a65726f206164647265737360501b604082015260600190565b60008451602061410b8285838a016138e7565b8184019150602f60f81b82526001865161412a81838601858b016138e7565b865493019260009061413b81613cb0565b8184168015614151576001811461416a5761419a565b60ff19831687860152811515820287018501935061419a565b896000528560002060005b83811015614190578154898201880152908601908701614175565b5050848288010193505b50919a9950505050505050505050565b6001600160a01b03858116825284166020820152604081018390526080606082018190526000906141dd9083018461390b565b9695505050505050565b6000602082840312156141f957600080fd5b8151612cea8161388956fe68747470733a2f2f736864772d64726976652e67656e65737973676f2e6e65742f477676517155624b587452356467575464727a3435416235346b41667a655061433342556632564637466f382f636f6c6c656374696f6e2e6a736f6ea264697066735822122030293939c7a0e1b3470171908cc5c98f8854608f2f21ca7842f9c9980535745064736f6c6343000811003368747470733a2f2f736864772d64726976652e67656e65737973676f2e6e65742f477676517155624b587452356467575464727a3435416235346b41667a655061433342556632564637466f38",
  "linkReferences": {},
  "deployedLinkReferences": {}
}