{
  "_format": "hh-sol-artifact-1",
  "contractName": "DaoNft",
  "sourceName": "contracts/DaoNft.sol",
  "abi": [
    {
      "inputs": [
        {
          "internalType": "address",
          "name": "addrBalance",
          "type": "address"
        }
      ],
      "stateMutability": "nonpayable",
      "type": "constructor"
    },
    {
      "inputs": [],
      "name": "AlreadyClaimed",
      "type": "error"
    },
    {
      "inputs": [],
      "name": "ApprovalCallerNotOwnerNorApproved",
      "type": "error"
    },
    {
      "inputs": [],
      "name": "ApprovalQueryForNonexistentToken",
      "type": "error"
    },
    {
      "inputs": [],
      "name": "ApprovalToCurrentOwner",
      "type": "error"
    },
    {
      "inputs": [],
      "name": "ApproveToCaller",
      "type": "error"
    },
    {
      "inputs": [],
      "name": "BalanceQueryForZeroAddress",
      "type": "error"
    },
    {
      "inputs": [],
      "name": "MintToZeroAddress",
      "type": "error"
    },
    {
      "inputs": [],
      "name": "MintZeroQuantity",
      "type": "error"
    },
    {
      "inputs": [],
      "name": "NotWhitelisted",
      "type": "error"
    },
    {
      "inputs": [],
      "name": "OwnerQueryForNonexistentToken",
      "type": "error"
    },
    {
      "inputs": [],
      "name": "TransferCallerNotOwnerNorApproved",
      "type": "error"
    },
    {
      "inputs": [],
      "name": "TransferFromIncorrectOwner",
      "type": "error"
    },
    {
      "inputs": [],
      "name": "TransferToNonERC721ReceiverImplementer",
      "type": "error"
    },
    {
      "inputs": [],
      "name": "TransferToZeroAddress",
      "type": "error"
    },
    {
      "inputs": [],
      "name": "URIQueryForNonexistentToken",
      "type": "error"
    },
    {
      "anonymous": false,
      "inputs": [
        {
          "indexed": false,
          "internalType": "address",
          "name": "member",
          "type": "address"
        },
        {
          "indexed": false,
          "internalType": "uint256",
          "name": "seccode",
          "type": "uint256"
        }
      ],
      "name": "ApplyNftCode",
      "type": "event"
    },
    {
      "anonymous": false,
      "inputs": [
        {
          "indexed": true,
          "internalType": "address",
          "name": "owner",
          "type": "address"
        },
        {
          "indexed": true,
          "internalType": "address",
          "name": "approved",
          "type": "address"
        },
        {
          "indexed": true,
          "internalType": "uint256",
          "name": "tokenId",
          "type": "uint256"
        }
      ],
      "name": "Approval",
      "type": "event"
    },
    {
      "anonymous": false,
      "inputs": [
        {
          "indexed": true,
          "internalType": "address",
          "name": "owner",
          "type": "address"
        },
        {
          "indexed": true,
          "internalType": "address",
          "name": "operator",
          "type": "address"
        },
        {
          "indexed": false,
          "internalType": "bool",
          "name": "approved",
          "type": "bool"
        }
      ],
      "name": "ApprovalForAll",
      "type": "event"
    },
    {
      "anonymous": false,
      "inputs": [
        {
          "indexed": false,
          "internalType": "address",
          "name": "member",
          "type": "address"
        },
        {
          "indexed": false,
          "internalType": "uint256",
          "name": "seccode",
          "type": "uint256"
        }
      ],
      "name": "ApproveCode",
      "type": "event"
    },
    {
      "anonymous": false,
      "inputs": [
        {
          "indexed": true,
          "internalType": "address",
          "name": "_from",
          "type": "address"
        },
        {
          "indexed": true,
          "internalType": "address",
          "name": "_to",
          "type": "address"
        }
      ],
      "name": "OwnershipTransferred",
      "type": "event"
    },
    {
      "anonymous": false,
      "inputs": [
        {
          "indexed": false,
          "internalType": "address",
          "name": "member",
          "type": "address"
        },
        {
          "indexed": false,
          "internalType": "uint256",
          "name": "agreenum",
          "type": "uint256"
        }
      ],
      "name": "SpawnAgree",
      "type": "event"
    },
    {
      "anonymous": false,
      "inputs": [
        {
          "indexed": true,
          "internalType": "address",
          "name": "from",
          "type": "address"
        },
        {
          "indexed": true,
          "internalType": "address",
          "name": "to",
          "type": "address"
        },
        {
          "indexed": true,
          "internalType": "uint256",
          "name": "tokenId",
          "type": "uint256"
        }
      ],
      "name": "Transfer",
      "type": "event"
    },
    {
      "anonymous": false,
      "inputs": [
        {
          "indexed": false,
          "internalType": "address",
          "name": "owner",
          "type": "address"
        }
      ],
      "name": "medalClaimed",
      "type": "event"
    },
    {
      "inputs": [
        {
          "internalType": "bool",
          "name": "value",
          "type": "bool"
        }
      ],
      "name": "GovernApplicantApprove",
      "outputs": [
        {
          "internalType": "uint256",
          "name": "",
          "type": "uint256"
        }
      ],
      "stateMutability": "nonpayable",
      "type": "function"
    },
    {
      "inputs": [
        {
          "internalType": "uint256",
          "name": "index",
          "type": "uint256"
        }
      ],
      "name": "GovernIndexSpawn",
      "outputs": [
        {
          "internalType": "uint256",
          "name": "",
          "type": "uint256"
        }
      ],
      "stateMutability": "nonpayable",
      "type": "function"
    },
    {
      "inputs": [
        {
          "internalType": "address",
          "name": "_to",
          "type": "address"
        },
        {
          "internalType": "string",
          "name": "memberName",
          "type": "string"
        }
      ],
      "name": "GovernMint",
      "outputs": [
        {
          "internalType": "uint256",
          "name": "",
          "type": "uint256"
        }
      ],
      "stateMutability": "nonpayable",
      "type": "function"
    },
    {
      "inputs": [],
      "name": "acceptOwnership",
      "outputs": [],
      "stateMutability": "nonpayable",
      "type": "function"
    },
    {
      "inputs": [
        {
          "internalType": "string",
          "name": "_name",
          "type": "string"
        }
      ],
      "name": "applyNft",
      "outputs": [
        {
          "internalType": "uint256",
          "name": "",
          "type": "uint256"
        }
      ],
      "stateMutability": "nonpayable",
      "type": "function"
    },
    {
      "inputs": [
        {
          "internalType": "address",
          "name": "to",
          "type": "address"
        },
        {
          "internalType": "uint256",
          "name": "tokenId",
          "type": "uint256"
        }
      ],
      "name": "approve",
      "outputs": [],
      "stateMutability": "nonpayable",
      "type": "function"
    },
    {
      "inputs": [
        {
          "internalType": "address",
          "name": "_to",
          "type": "address"
        }
      ],
      "name": "approveMember",
      "outputs": [
        {
          "internalType": "uint256",
          "name": "",
          "type": "uint256"
        }
      ],
      "stateMutability": "nonpayable",
      "type": "function"
    },
    {
      "inputs": [
        {
          "internalType": "address",
          "name": "owner",
          "type": "address"
        }
      ],
      "name": "balanceOf",
      "outputs": [
        {
          "internalType": "uint256",
          "name": "",
          "type": "uint256"
        }
      ],
      "stateMutability": "view",
      "type": "function"
    },
    {
      "inputs": [],
      "name": "baseExtension",
      "outputs": [
        {
          "internalType": "string",
          "name": "",
          "type": "string"
        }
      ],
      "stateMutability": "view",
      "type": "function"
    },
    {
      "inputs": [
        {
          "internalType": "address",
          "name": "",
          "type": "address"
        }
      ],
      "name": "claimed",
      "outputs": [
        {
          "internalType": "bool",
          "name": "",
          "type": "bool"
        }
      ],
      "stateMutability": "view",
      "type": "function"
    },
    {
      "inputs": [],
      "name": "genesising",
      "outputs": [
        {
          "internalType": "bool",
          "name": "",
          "type": "bool"
        }
      ],
      "stateMutability": "view",
      "type": "function"
    },
    {
      "inputs": [
        {
          "internalType": "uint256",
          "name": "tokenId",
          "type": "uint256"
        }
      ],
      "name": "getApproved",
      "outputs": [
        {
          "internalType": "address",
          "name": "",
          "type": "address"
        }
      ],
      "stateMutability": "view",
      "type": "function"
    },
    {
      "inputs": [
        {
          "internalType": "uint256",
          "name": "index",
          "type": "uint256"
        }
      ],
      "name": "getCurApplicantAddress",
      "outputs": [
        {
          "internalType": "address",
          "name": "_address",
          "type": "address"
        }
      ],
      "stateMutability": "view",
      "type": "function"
    },
    {
      "inputs": [
        {
          "internalType": "uint256",
          "name": "index",
          "type": "uint256"
        }
      ],
      "name": "getCurApplicantName",
      "outputs": [
        {
          "internalType": "string",
          "name": "_name",
          "type": "string"
        }
      ],
      "stateMutability": "view",
      "type": "function"
    },
    {
      "inputs": [],
      "name": "getMemberAmount",
      "outputs": [
        {
          "internalType": "uint256",
          "name": "",
          "type": "uint256"
        }
      ],
      "stateMutability": "view",
      "type": "function"
    },
    {
      "inputs": [],
      "name": "getMemberBalance",
      "outputs": [
        {
          "internalType": "address",
          "name": "addrBalance",
          "type": "address"
        }
      ],
      "stateMutability": "view",
      "type": "function"
    },
    {
      "inputs": [],
      "name": "getMemberGovern",
      "outputs": [
        {
          "internalType": "address",
          "name": "addrGovern",
          "type": "address"
        }
      ],
      "stateMutability": "view",
      "type": "function"
    },
    {
      "inputs": [
        {
          "internalType": "address",
          "name": "_to",
          "type": "address"
        }
      ],
      "name": "getMemberName",
      "outputs": [
        {
          "internalType": "string",
          "name": "",
          "type": "string"
        }
      ],
      "stateMutability": "view",
      "type": "function"
    },
    {
      "inputs": [],
      "name": "getMemberNextIndex",
      "outputs": [
        {
          "internalType": "uint256",
          "name": "",
          "type": "uint256"
        }
      ],
      "stateMutability": "view",
      "type": "function"
    },
    {
      "inputs": [
        {
          "internalType": "address",
          "name": "_to",
          "type": "address"
        }
      ],
      "name": "getMemberTokenId",
      "outputs": [
        {
          "internalType": "uint256",
          "name": "",
          "type": "uint256"
        }
      ],
      "stateMutability": "view",
      "type": "function"
    },
    {
      "inputs": [],
      "name": "getNextTokenURI",
      "outputs": [
        {
          "internalType": "string",
          "name": "",
          "type": "string"
        }
      ],
      "stateMutability": "view",
      "type": "function"
    },
    {
      "inputs": [
        {
          "internalType": "uint256",
          "name": "index",
          "type": "uint256"
        }
      ],
      "name": "getSpawnAgree",
      "outputs": [
        {
          "internalType": "uint256",
          "name": "",
          "type": "uint256"
        }
      ],
      "stateMutability": "view",
      "type": "function"
    },
    {
      "inputs": [],
      "name": "getSpawnCost",
      "outputs": [
        {
          "internalType": "uint256",
          "name": "",
          "type": "uint256"
        }
      ],
      "stateMutability": "view",
      "type": "function"
    },
    {
      "inputs": [],
      "name": "getSpawnThreshold",
      "outputs": [
        {
          "internalType": "uint256",
          "name": "",
          "type": "uint256"
        }
      ],
      "stateMutability": "view",
      "type": "function"
    },
    {
      "inputs": [
        {
          "internalType": "address",
          "name": "owner",
          "type": "address"
        },
        {
          "internalType": "address",
          "name": "operator",
          "type": "address"
        }
      ],
      "name": "isApprovedForAll",
      "outputs": [
        {
          "internalType": "bool",
          "name": "",
          "type": "bool"
        }
      ],
      "stateMutability": "view",
      "type": "function"
    },
    {
      "inputs": [
        {
          "internalType": "address",
          "name": "_to",
          "type": "address"
        }
      ],
      "name": "isMember",
      "outputs": [
        {
          "internalType": "bool",
          "name": "",
          "type": "bool"
        }
      ],
      "stateMutability": "view",
      "type": "function"
    },
    {
      "inputs": [],
      "name": "maxMintAmount",
      "outputs": [
        {
          "internalType": "uint256",
          "name": "",
          "type": "uint256"
        }
      ],
      "stateMutability": "view",
      "type": "function"
    },
    {
      "inputs": [],
      "name": "maxSupply",
      "outputs": [
        {
          "internalType": "uint256",
          "name": "",
          "type": "uint256"
        }
      ],
      "stateMutability": "view",
      "type": "function"
    },
    {
      "inputs": [],
      "name": "memberAmount",
      "outputs": [
        {
          "internalType": "uint256",
          "name": "",
          "type": "uint256"
        }
      ],
      "stateMutability": "view",
      "type": "function"
    },
    {
      "inputs": [],
      "name": "memberBalance",
      "outputs": [
        {
          "internalType": "contract DaoCredit",
          "name": "",
          "type": "address"
        }
      ],
      "stateMutability": "view",
      "type": "function"
    },
    {
      "inputs": [],
      "name": "memberGovern",
      "outputs": [
        {
          "internalType": "address",
          "name": "",
          "type": "address"
        }
      ],
      "stateMutability": "view",
      "type": "function"
    },
    {
      "inputs": [],
      "name": "merkleRoot",
      "outputs": [
        {
          "internalType": "bytes32",
          "name": "",
          "type": "bytes32"
        }
      ],
      "stateMutability": "view",
      "type": "function"
    },
    {
      "inputs": [
        {
          "internalType": "address",
          "name": "_to",
          "type": "address"
        },
        {
          "internalType": "string",
          "name": "memberName",
          "type": "string"
        }
      ],
      "name": "mintOneNew",
      "outputs": [
        {
          "internalType": "uint256",
          "name": "",
          "type": "uint256"
        }
      ],
      "stateMutability": "nonpayable",
      "type": "function"
    },
    {
      "inputs": [
        {
          "internalType": "address",
          "name": "_to",
          "type": "address"
        },
        {
          "internalType": "string",
          "name": "memberName",
          "type": "string"
        },
        {
          "internalType": "bytes32[]",
          "name": "proof",
          "type": "bytes32[]"
        }
      ],
      "name": "mintOneWhitelist",
      "outputs": [
        {
          "internalType": "uint256",
          "name": "",
          "type": "uint256"
        }
      ],
      "stateMutability": "nonpayable",
      "type": "function"
    },
    {
      "inputs": [],
      "name": "myBaseURI",
      "outputs": [
        {
          "internalType": "string",
          "name": "",
          "type": "string"
        }
      ],
      "stateMutability": "view",
      "type": "function"
    },
    {
      "inputs": [],
      "name": "name",
      "outputs": [
        {
          "internalType": "string",
          "name": "",
          "type": "string"
        }
      ],
      "stateMutability": "view",
      "type": "function"
    },
    {
      "inputs": [],
      "name": "nftSetting",
      "outputs": [
        {
          "internalType": "uint256",
          "name": "spawn_threshold",
          "type": "uint256"
        },
        {
          "internalType": "uint256",
          "name": "spawn_cost",
          "type": "uint256"
        }
      ],
      "stateMutability": "view",
      "type": "function"
    },
    {
      "inputs": [
        {
          "internalType": "uint256",
          "name": "tokenId",
          "type": "uint256"
        }
      ],
      "name": "ownerOf",
      "outputs": [
        {
          "internalType": "address",
          "name": "",
          "type": "address"
        }
      ],
      "stateMutability": "view",
      "type": "function"
    },
    {
      "inputs": [
        {
          "internalType": "bool",
          "name": "_state",
          "type": "bool"
        }
      ],
      "name": "pause",
      "outputs": [],
      "stateMutability": "nonpayable",
      "type": "function"
    },
    {
      "inputs": [],
      "name": "paused",
      "outputs": [
        {
          "internalType": "bool",
          "name": "",
          "type": "bool"
        }
      ],
      "stateMutability": "view",
      "type": "function"
    },
    {
      "inputs": [
        {
          "internalType": "address",
          "name": "_to",
          "type": "address"
        }
      ],
      "name": "resetMember",
      "outputs": [],
      "stateMutability": "nonpayable",
      "type": "function"
    },
    {
      "inputs": [
        {
          "internalType": "address",
          "name": "from",
          "type": "address"
        },
        {
          "internalType": "address",
          "name": "to",
          "type": "address"
        },
        {
          "internalType": "uint256",
          "name": "tokenId",
          "type": "uint256"
        }
      ],
      "name": "safeTransferFrom",
      "outputs": [],
      "stateMutability": "nonpayable",
      "type": "function"
    },
    {
      "inputs": [
        {
          "internalType": "address",
          "name": "from",
          "type": "address"
        },
        {
          "internalType": "address",
          "name": "to",
          "type": "address"
        },
        {
          "internalType": "uint256",
          "name": "tokenId",
          "type": "uint256"
        },
        {
          "internalType": "bytes",
          "name": "_data",
          "type": "bytes"
        }
      ],
      "name": "safeTransferFrom",
      "outputs": [],
      "stateMutability": "nonpayable",
      "type": "function"
    },
    {
      "inputs": [
        {
          "internalType": "address",
          "name": "operator",
          "type": "address"
        },
        {
          "internalType": "bool",
          "name": "approved",
          "type": "bool"
        }
      ],
      "name": "setApprovalForAll",
      "outputs": [],
      "stateMutability": "nonpayable",
      "type": "function"
    },
    {
      "inputs": [
        {
          "internalType": "string",
          "name": "_newBaseURI",
          "type": "string"
        }
      ],
      "name": "setBaseURI",
      "outputs": [],
      "stateMutability": "nonpayable",
      "type": "function"
    },
    {
      "inputs": [
        {
          "internalType": "string",
          "name": "_newName",
          "type": "string"
        }
      ],
      "name": "setMemberName",
      "outputs": [],
      "stateMutability": "nonpayable",
      "type": "function"
    },
    {
      "inputs": [
        {
          "internalType": "uint256",
          "name": "_newmaxMintAmount",
          "type": "uint256"
        }
      ],
      "name": "setmaxMintAmount",
      "outputs": [],
      "stateMutability": "nonpayable",
      "type": "function"
    },
    {
      "inputs": [],
      "name": "spawn",
      "outputs": [
        {
          "internalType": "uint256",
          "name": "",
          "type": "uint256"
        }
      ],
      "stateMutability": "nonpayable",
      "type": "function"
    },
    {
      "inputs": [],
      "name": "spawnCallback",
      "outputs": [
        {
          "internalType": "uint256",
          "name": "",
          "type": "uint256"
        }
      ],
      "stateMutability": "nonpayable",
      "type": "function"
    },
    {
      "inputs": [
        {
          "internalType": "address",
          "name": "_to",
          "type": "address"
        }
      ],
      "name": "spawnCallbackMulti",
      "outputs": [
        {
          "internalType": "uint256",
          "name": "",
          "type": "uint256"
        }
      ],
      "stateMutability": "nonpayable",
      "type": "function"
    },
    {
      "inputs": [
        {
          "internalType": "address",
          "name": "_to",
          "type": "address"
        }
      ],
      "name": "spawnMulti",
      "outputs": [
        {
          "internalType": "uint256",
          "name": "",
          "type": "uint256"
        }
      ],
      "stateMutability": "nonpayable",
      "type": "function"
    },
    {
      "inputs": [],
      "name": "spawn_restart",
      "outputs": [
        {
          "internalType": "bool",
          "name": "",
          "type": "bool"
        }
      ],
      "stateMutability": "view",
      "type": "function"
    },
    {
      "inputs": [
        {
          "internalType": "bytes4",
          "name": "interfaceId",
          "type": "bytes4"
        }
      ],
      "name": "supportsInterface",
      "outputs": [
        {
          "internalType": "bool",
          "name": "",
          "type": "bool"
        }
      ],
      "stateMutability": "view",
      "type": "function"
    },
    {
      "inputs": [],
      "name": "symbol",
      "outputs": [
        {
          "internalType": "string",
          "name": "",
          "type": "string"
        }
      ],
      "stateMutability": "view",
      "type": "function"
    },
    {
      "inputs": [
        {
          "internalType": "uint256",
          "name": "tokenId",
          "type": "uint256"
        }
      ],
      "name": "tokenURI",
      "outputs": [
        {
          "internalType": "string",
          "name": "",
          "type": "string"
        }
      ],
      "stateMutability": "view",
      "type": "function"
    },
    {
      "inputs": [],
      "name": "totalSupply",
      "outputs": [
        {
          "internalType": "uint256",
          "name": "",
          "type": "uint256"
        }
      ],
      "stateMutability": "view",
      "type": "function"
    },
    {
      "inputs": [
        {
          "internalType": "address",
          "name": "from",
          "type": "address"
        },
        {
          "internalType": "address",
          "name": "to",
          "type": "address"
        },
        {
          "internalType": "uint256",
          "name": "tokenId",
          "type": "uint256"
        }
      ],
      "name": "transferFrom",
      "outputs": [],
      "stateMutability": "nonpayable",
      "type": "function"
    },
    {
      "inputs": [
        {
          "internalType": "address",
          "name": "_newOwner",
          "type": "address"
        }
      ],
      "name": "transferOwnership",
      "outputs": [],
      "stateMutability": "nonpayable",
      "type": "function"
    },
    {
      "inputs": [
        {
          "internalType": "address",
          "name": "addrBalance",
          "type": "address"
        }
      ],
      "name": "upgradeMemberBalance",
      "outputs": [],
      "stateMutability": "nonpayable",
      "type": "function"
    },
    {
      "inputs": [
        {
          "internalType": "address",
          "name": "addrGovern",
          "type": "address"
        }
      ],
      "name": "upgradeMemberGovern",
      "outputs": [],
      "stateMutability": "nonpayable",
      "type": "function"
    },
    {
      "inputs": [
        {
          "internalType": "bytes32",
          "name": "_merkleRoot",
          "type": "bytes32"
        }
      ],
      "name": "upgradeMerkleRoot",
      "outputs": [],
      "stateMutability": "nonpayable",
      "type": "function"
    },
    {
      "inputs": [
        {
          "internalType": "uint256",
          "name": "new_cost",
          "type": "uint256"
        }
      ],
      "name": "upgradeSpawnCost",
      "outputs": [],
      "stateMutability": "nonpayable",
      "type": "function"
    },
    {
      "inputs": [
        {
          "internalType": "uint256",
          "name": "new_threshold",
          "type": "uint256"
        }
      ],
      "name": "upgradeSpawnThreshold",
      "outputs": [],
      "stateMutability": "nonpayable",
      "type": "function"
    }
  ],
  "bytecode": "0x6101f46026556001602755610100604052604d6080818152906200440d60a0396028906200002e908262000337565b50604080518082019091526005815264173539b7b760d91b60208201526029906200005a908262000337565b50602a805462ffffff1916620100001790553480156200007957600080fd5b506040516200445a3803806200445a8339810160408190526200009c9162000403565b6040518060400160405280600681526020016510589a53999d60d21b8152506040518060400160405280600481526020016320a124a760e11b8152508160029081620000e9919062000337565b506003620000f8828262000337565b506000808155600880546001600160a01b0319908116338083169190911717909155600a80549091166001600160a01b0386161790556004602055620186a06021559150505b60058160ff16101562000279576001600c8260ff166005811062000166576200016662000435565b60040201805460ff19169115159190911790556000600c60ff83166005811062000194576200019462000435565b6004020180549115156101000261ff00199092169190911790556000600c60ff831660058110620001c957620001c962000435565b600402016001018190555060405180602001604052806000815250600c8260ff1660058110620001fd57620001fd62000435565b60040201600201908162000212919062000337565b506008546001600160a01b0316600c60ff83166005811062000238576200023862000435565b6004020160030160006101000a8154816001600160a01b0302191690836001600160a01b03160217905550808062000270906200044b565b9150506200013e565b5050602a805462ff000019166201000017905562000479565b634e487b7160e01b600052604160045260246000fd5b600181811c90821680620002bd57607f821691505b602082108103620002de57634e487b7160e01b600052602260045260246000fd5b50919050565b601f8211156200033257600081815260208120601f850160051c810160208610156200030d5750805b601f850160051c820191505b818110156200032e5782815560010162000319565b5050505b505050565b81516001600160401b0381111562000353576200035362000292565b6200036b81620003648454620002a8565b84620002e4565b602080601f831160018114620003a357600084156200038a5750858301515b600019600386901b1c1916600185901b1785556200032e565b600085815260208120601f198616915b82811015620003d457888601518255948401946001909101908401620003b3565b5085821015620003f35787850151600019600388901b60f8161c191681555b5050505050600190811b01905550565b6000602082840312156200041657600080fd5b81516001600160a01b03811681146200042e57600080fd5b9392505050565b634e487b7160e01b600052603260045260246000fd5b600060ff821660ff81036200047057634e487b7160e01b600052601160045260246000fd5b60010192915050565b613f8480620004896000396000f3fe608060405234801561001057600080fd5b50600436106103c55760003560e01c806370a08231116101ff578063b547aeda1161011a578063c884ef83116100ad578063d777b3911161007c578063d777b391146107ec578063e2243ad5146107f5578063e985e9c5146107fd578063f2fde38b1461083957600080fd5b8063c884ef831461079a578063cd389164146107bd578063d18fd367146107d0578063d5abeb01146107e357600080fd5b8063bd05be6a116100e9578063bd05be6a14610759578063be2423ed1461076c578063c66828621461077f578063c87b56dd1461078757600080fd5b8063b547aeda14610723578063b57eba2a1461072b578063b88d4fde14610733578063bc08d3b61461074657600080fd5b80639c4bbb7911610192578063ad31450f11610161578063ad31450f146106c7578063ad977ef6146106ea578063aff4b849146106fd578063b1c9240a1461071057600080fd5b80639c4bbb7914610686578063a22cb4651461068e578063a230c524146106a1578063a9c0ccdb146106b457600080fd5b80639000250f116101ce5780639000250f1461064557806391cbd2411461065857806395d89b411461066b57806397b847281461067357600080fd5b806370a082311461060657806379ba5097146106195780637a051d08146106215780637f00c7a61461063257600080fd5b80632eb4a7ab116102ef578063526c23ba116102825780635c975abb116102515780635c975abb146105c85780635ce19b28146105da5780636352211e146105e257806369105f97146105f557600080fd5b8063526c23ba1461057c57806355f804b31461058f578063590050da146105a25780635c16258d146105b557600080fd5b8063372a3b82116102be578063372a3b821461053b5780633f968160146105435780633ff91d001461055657806342842e0e1461056957600080fd5b80632eb4a7ab1461050f5780632fa9083a146105185780633060eaaf146105205780633554ada31461052857600080fd5b806317d542861161036757806323b872dd1161033657806323b872dd146104c357806329213a2f146104d657806329e8c736146104e95780632b9711af146104fc57600080fd5b806317d542861461048857806318160ddd1461049b5780631ec2cb2e146104a7578063239c70ae146104ba57600080fd5b8063081812fc116103a3578063081812fc1461041c578063095ea7b31461044757806315320e571461045a5780631725ced11461047b57600080fd5b806301ffc9a7146103ca57806302329a29146103f257806306fdde0314610407575b600080fd5b6103dd6103d836600461358c565b61084c565b60405190151581526020015b60405180910390f35b6104056104003660046135b7565b61089e565b005b61040f6108cf565b6040516103e99190613624565b61042f61042a366004613637565b610961565b6040516001600160a01b0390911681526020016103e9565b610405610455366004613667565b6109a5565b61046d610468366004613691565b610a32565b6040519081526020016103e9565b602a546103dd9060ff1681565b61042f610496366004613637565b611031565b6001546000540361046d565b602a546103dd9062010000900460ff1681565b61046d60275481565b6104056104d13660046136ac565b61105d565b61046d6104e4366004613691565b611068565b61046d6104f7366004613637565b61128a565b61040561050a366004613637565b6112c0565b61046d60235481565b60245461046d565b61046d6112dc565b610405610536366004613637565b61145d565b61040f6114af565b600a5461042f906001600160a01b031681565b610405610564366004613691565b61153d565b6104056105773660046136ac565b611576565b61046d61058a366004613793565b611591565b61040561059d3660046137e0565b61171c565b600b5461042f906001600160a01b031681565b61046d6105c3366004613793565b611743565b602a546103dd90610100900460ff1681565b60205461046d565b61042f6105f0366004613637565b611a1a565b600a546001600160a01b031661042f565b61046d610614366004613691565b611a2c565b610405611a7a565b600b546001600160a01b031661042f565b610405610640366004613637565b611af7565b610405610653366004613637565b611b13565b61046d6106663660046137e0565b611b2f565b61040f611f4c565b61046d610681366004613637565b611f5b565b61046d611f78565b61040561069c366004613814565b611f88565b6103dd6106af366004613691565b61201d565b61046d6106c2366004613691565b61209b565b6020546021546106d5919082565b604080519283526020830191909152016103e9565b61040f6106f8366004613637565b612219565b61040f61070b366004613691565b6122c5565b61046d61071e3660046135b7565b612313565b61046d612355565b60215461046d565b61040561074136600461384b565b612664565b6104056107543660046137e0565b6126b5565b61046d6107673660046138c6565b6126d1565b61040561077a366004613691565b61293e565b61040f612977565b61040f610795366004613637565b612984565b6103dd6107a8366004613691565b60396020526000908152604090205460ff1681565b6104056107cb366004613691565b612a14565b61046d6107de366004613691565b612a72565b61046d60265481565b61046d60245481565b61040f612ab9565b6103dd61080b36600461396a565b6001600160a01b03918216600090815260076020908152604080832093909416825291909152205460ff1690565b610405610847366004613691565b612bec565b60006001600160e01b031982166380ac58cd60e01b148061087d57506001600160e01b03198216635b5e139f60e01b145b8061089857506301ffc9a760e01b6001600160e01b03198316145b92915050565b6008546001600160a01b031633146108b557600080fd5b602a80549115156101000261ff0019909216919091179055565b6060600280546108de9061399d565b80601f016020809104026020016040519081016040528092919081815260200182805461090a9061399d565b80156109575780601f1061092c57610100808354040283529160200191610957565b820191906000526020600020905b81548152906001019060200180831161093a57829003601f168201915b5050505050905090565b600061096c82612c25565b610989576040516333d1c03960e21b815260040160405180910390fd5b506000908152600660205260409020546001600160a01b031690565b60006109b082611a1a565b9050806001600160a01b0316836001600160a01b0316036109e45760405163250fdee360e21b815260040160405180910390fd5b336001600160a01b03821614801590610a045750610a02813361080b565b155b15610a22576040516367d9dca160e11b815260040160405180910390fd5b610a2d838383612c50565b505050565b3360009081526038602052604081205460ff161515600114610a6f5760405162461bcd60e51b8152600401610a66906139d7565b60405180910390fd5b60008060005b60058160ff161015610ad557846001600160a01b0316600c8260ff1660058110610aa157610aa1613a0e565b60040201600301546001600160a01b031603610ac35760019250809150610ad5565b80610acd81613a3a565b915050610a75565b508115610fb5576000805b602d8360ff1660058110610af657610af6613a0e565b0154811015610b5d5733602d60ff851660058110610b1657610b16613a0e565b018281548110610b2857610b28613a0e565b6000918252602090912001546001600160a01b031603610b4b5760019150610b5d565b80610b5581613a59565b915050610ae0565b508015610bac5760405162461bcd60e51b815260206004820181905260248201527f796f7520616c726561647920737061776e2074686973206170706c6963616e746044820152606401610a66565b602d8260ff1660058110610bc257610bc2613a0e565b018054600181018255600091825260209091200180546001600160a01b03191633179055600a546001600160a01b0316636a82d9e1600c60ff851660058110610c0d57610c0d613a0e565b6004020160030160009054906101000a90046001600160a01b0316602c54336020600101546040518563ffffffff1660e01b8152600401610c519493929190613a72565b6020604051808303816000875af1158015610c70573d6000803e3d6000fd5b505050506040513d601f19601f82011682018060405250810190610c949190613a9c565b506025543360009081526038602090815260409091206002019190915554602d60ff841660058110610cc857610cc8613a0e565b015410610fb357602d8260ff1660058110610ce557610ce5613a0e565b610cf19101600061353c565b6001600c8360ff1660058110610d0957610d09613a0e565b60040201805460ff19169115159190911790556000600c60ff841660058110610d3457610d34613a0e565b6004020180549115156101000261ff00199092169190911790556000610d5d6001546000540390565b602654909150610d6e826001613ab5565b1115610d8c5760405162461bcd60e51b8152600401610a6690613ac8565b600a54602c546001600160a01b039091169063d6fe8fad90600c60ff871660058110610dba57610dba613a0e565b6004020160030160009054906101000a90046001600160a01b03166040518363ffffffff1660e01b8152600401610e049291909182526001600160a01b0316602082015260400190565b6020604051808303816000875af1158015610e23573d6000803e3d6000fd5b505050506040513d601f19601f82011682018060405250810190610e479190613af8565b506000602c819055603790600c60ff861660058110610e6857610e68613a0e565b60040201600301546001600160a01b0316815260208101919091526040016000908120805491610e9783613a59565b9190505550610ed8600c8460ff1660058110610eb557610eb5613a0e565b6004020160030160009054906101000a90046001600160a01b0316602754612cac565b600160386000600c8660ff1660058110610ef457610ef4613a0e565b60040201600301546001600160a01b031681526020810191909152604001600020805460ff1916911515919091179055600c60ff841660058110610f3a57610f3a613a0e565b6004020160020160386000600c8660ff1660058110610f5b57610f5b613a0e565b600490810291909101600301546001600160a01b0316825260208201929092526040016000200190610f8d9082613b63565b5060248054906000610f9e83613a59565b9190505550610fb1602280546001019055565b505b505b7ffe60f7853ab389eb39ce1f7beebdc7a4afcd1dffa7f912fdbf4ea47fb9f0a5ba33602d8360ff1660058110610fed57610fed613a0e565b0154604080516001600160a01b03909316835260208301919091520160405180910390a1602d8160ff166005811061102757611027613a0e565b0154949350505050565b6000600c826005811061104657611046613a0e565b60040201600301546001600160a01b031692915050565b610a2d838383612cc6565b6008546000906001600160a01b0316331461108257600080fd5b602a54610100900460ff16156110aa5760405162461bcd60e51b8152600401610a6690613c3f565b6001600160a01b03821660009081526038602052604090205460ff161561111f5760405162461bcd60e51b815260206004820152602360248201527f617070726f7665206d656d626572206e65656420746f20626520696e616374696044820152621d995960ea1b6064820152608401610a66565b600061112e6001546000540390565b60265490915061113f826001613ab5565b111561115d5760405162461bcd60e51b8152600401610a6690613ac8565b6001600160a01b0383166000818152603860208181526040808420805460ff1916600117815560038101859055815180830190925260068252656e6f6e616d6560d01b8284015294909352526004909101906111b99082613c6f565b50602a805460ff19166001179055600a54604051633ead54d360e11b81526001600160a01b03858116600483015290911690637d5aa9a6906024016020604051808303816000875af1158015611213573d6000803e3d6000fd5b505050506040513d601f19601f820116820180604052508101906112379190613a9c565b602b819055604080516001600160a01b038616815260208101929092527ff1d0f8a592bc1469222ef70b725c80d521dbdf14649755dd0ffcbf2464fb10eb910160405180910390a15050602b545b919050565b600b546000906001600160a01b031633146112b75760405162461bcd60e51b8152600401610a6690613d26565b60259190915590565b6008546001600160a01b031633146112d757600080fd5b602155565b3360009081526038602052604081205460ff1615156001146113105760405162461bcd60e51b8152600401610a66906139d7565b60255433600090815260386020526040902060020154106113435760405162461bcd60e51b8152600401610a6690613d55565b602d541561143957600a54600f54602c54602154604051636a82d9e160e01b81526001600160a01b0394851694636a82d9e19461138a949116929091339190600401613a72565b6020604051808303816000875af11580156113a9573d6000803e3d6000fd5b505050506040513d601f19601f820116820180604052508101906113cd9190613a9c565b50602d6113dc60016005613d8c565b815481106113ec576113ec613a0e565b6000918252602082200180546001600160a01b0319169055602d0180548061141657611416613d9f565b600082815260209020810160001990810180546001600160a01b03191690550190555b60255433600090815260386020526040812060020191909155602d905b0154919050565b806114aa5760405162461bcd60e51b815260206004820152601e60248201527f6d65726b6c65526f6f7420697320746865207a65726f206164647265737300006044820152606401610a66565b602355565b602880546114bc9061399d565b80601f01602080910402602001604051908101604052809291908181526020018280546114e89061399d565b80156115355780601f1061150a57610100808354040283529160200191611535565b820191906000526020600020905b81548152906001019060200180831161151857829003601f168201915b505050505081565b6008546001600160a01b0316331461155457600080fd5b600a80546001600160a01b0319166001600160a01b0392909216919091179055565b610a2d83838360405180602001604052806000815250612664565b600b546000906001600160a01b031633146115be5760405162461bcd60e51b8152600401610a6690613d26565b60006115cd6001546000540390565b6026549091506115de826001613ab5565b11156115fc5760405162461bcd60e51b8152600401610a6690613ac8565b600061160760225490565b6001600160a01b038616600090815260376020526040812080549293509061162e83613a59565b919050555061163e856001612cac565b6001600160a01b03851660009081526038602052604090206003810182905560040161166a8582613c6f565b50602a805460ff19169055600a54602b5460405163751ff34f60e11b815260048101919091526001600160a01b0387811660248301529091169063ea3fe69e906044016020604051808303816000875af11580156116cc573d6000803e3d6000fd5b505050506040513d601f19601f820116820180604052508101906116f09190613af8565b506024805490600061170183613a59565b9190505550611714602280546001019055565b949350505050565b6008546001600160a01b0316331461173357600080fd5b602861173f8282613c6f565b5050565b602a54600090610100900460ff161561176e5760405162461bcd60e51b8152600401610a6690613c3f565b6001600160a01b03831660009081526038602052604090205460ff1615156001146117db5760405162461bcd60e51b815260206004820152601960248201527f6d656d626572206e65656420746f2062652061637469766564000000000000006044820152606401610a66565b6001600160a01b038316600090815260386020526040902060030154158061181057506008546001600160a01b038481169116145b61185c5760405162461bcd60e51b815260206004820152601c60248201527f6d656d6265722068617320616c7265616479206265206d696e746564000000006044820152606401610a66565b600061186b6001546000540390565b60265490915061187c826001613ab5565b111561189a5760405162461bcd60e51b8152600401610a6690613ac8565b60006118a560225490565b6001600160a01b03861660009081526037602052604081208054929350906118cc83613a59565b91905055506118dc856001612cac565b6001600160a01b0385166000908152603860205260409020600381018290556004016119088582613c6f565b50602a805460ff19169055600a54602b5460405163751ff34f60e11b815260048101919091526001600160a01b0387811660248301529091169063ea3fe69e906044016020604051808303816000875af115801561196a573d6000803e3d6000fd5b505050506040513d601f19601f8201168201806040525081019061198e9190613af8565b506024805490600061199f83613a59565b91905055506119b2602280546001019055565b600a5460405163399c1ec160e11b81526001600160a01b038781166004830152909116906373383d8290602401600060405180830381600087803b1580156119f957600080fd5b505af1158015611a0d573d6000803e3d6000fd5b5092979650505050505050565b6000611a2582612ec1565b5192915050565b60006001600160a01b038216611a55576040516323d3ad8160e21b815260040160405180910390fd5b506001600160a01b03166000908152600560205260409020546001600160401b031690565b6009546001600160a01b03163314611a9157600080fd5b6009546008546040516001600160a01b0392831692909116907f8be0079c531659141344cd1fd0a4f28419497f9722a3daafe3b4186f6b6457e090600090a360098054600880546001600160a01b03199081166001600160a01b03841617909155169055565b6008546001600160a01b03163314611b0e57600080fd5b602755565b6008546001600160a01b03163314611b2a57600080fd5b602055565b602a54600090610100900460ff1615611b5a5760405162461bcd60e51b8152600401610a6690613c3f565b3360009081526038602052604090205460ff1615611bc45760405162461bcd60e51b815260206004820152602160248201527f6170706c79206d656d626572206e65656420746f20626520696e6163746976656044820152601960fa1b6064820152608401610a66565b6000806000805b60058160ff161015611c915733600c60ff831660058110611bee57611bee613a0e565b60040201600301546001600160a01b031603611c0d5760019350611c91565b600c8160ff1660058110611c2357611c23613a0e565b600402015460ff1615156001148015611c3d575060ff8316155b15611c4a57809250611c7f565b600c8160ff1660058110611c6057611c60613a0e565b600402015460ff161515600003611c7f5781611c7b81613a3a565b9250505b80611c8981613a3a565b915050611bcb565b508215611cd55760405162461bcd60e51b815260206004820152601260248201527103cb7ba9030b63932b0b23c9030b838363c960751b6044820152606401610a66565b60058160ff1610611d385760405162461bcd60e51b815260206004820152602760248201527f6170706c79206f7574206f6620616d6f756e74206c696d697420666f7220746860448201526669732074696d6560c81b6064820152608401610a66565b60058260ff1610611d8b5760405162461bcd60e51b815260206004820181905260248201527f6669727374206f7574206f66206c696d697420666f7220746869732074696d656044820152606401610a66565b33600c8360ff1660058110611da257611da2613a0e565b6004020160030160006101000a8154816001600160a01b0302191690836001600160a01b031602179055506000600c8360ff1660058110611de557611de5613a0e565b60040201805460ff191691151591909117905584600c60ff841660058110611e0f57611e0f613a0e565b600402016002019081611e229190613c6f565b506001600c8360ff1660058110611e3b57611e3b613a0e565b60049081029190910180549215156101000261ff001990931692909217909155600a54604051637572c5bd60e11b815233928101929092526001600160a01b03169063eae58b7a906024016020604051808303816000875af1158015611ea5573d6000803e3d6000fd5b505050506040513d601f19601f82011682018060405250810190611ec99190613a9c565b602c55602d60ff831660058110611ee257611ee2613a0e565b611eee9101600061353c565b60258054906000611efe83613a59565b9091555050602c546040805133815260208101929092527f80e2d0de91ab94c5ddb539b0f826a7ffe6689ec23c97f958c9642dceb0bab5bc910160405180910390a150506025549392505050565b6060600380546108de9061399d565b6000602d8260058110611f7057611f70613a0e565b015492915050565b6000611f8360225490565b905090565b336001600160a01b03831603611fb15760405163b06307db60e01b815260040160405180910390fd5b3360008181526007602090815260408083206001600160a01b03871680855290835292819020805460ff191686151590811790915590519081529192917f17307eab39ab6107e8899845ad3d59bd9653f200f220920489ca2b5937696c31910160405180910390a35050565b60006001600160a01b03821661206a5760405162461bcd60e51b8152602060048201526012602482015271746f206973207a65726f206164647265737360701b6044820152606401610a66565b6001600160a01b03821660009081526038602052604090205460ff161561209357506001919050565b506000919050565b3360009081526038602052604081205460ff1615156001146120cf5760405162461bcd60e51b8152600401610a66906139d7565b60255433600090815260386020526040902060020154106121025760405162461bcd60e51b8152600401610a6690613d55565b602d54156121f857600a54600f54602c54602154604051636a82d9e160e01b81526001600160a01b0394851694636a82d9e194612149949116929091339190600401613a72565b6020604051808303816000875af1158015612168573d6000803e3d6000fd5b505050506040513d601f19601f8201168201806040525081019061218c9190613a9c565b50602d61219b60016005613d8c565b815481106121ab576121ab613a0e565b6000918252602082200180546001600160a01b0319169055602d018054806121d5576121d5613d9f565b600082815260209020810160001990810180546001600160a01b03191690550190555b60255433600090815260386020526040812060020191909155602d90611f70565b6060600c826005811061222e5761222e613a0e565b6004020160020180546122409061399d565b80601f016020809104026020016040519081016040528092919081815260200182805461226c9061399d565b80156122b95780601f1061228e576101008083540402835291602001916122b9565b820191906000526020600020905b81548152906001019060200180831161229c57829003601f168201915b50505050509050919050565b60606001600160a01b0382166122ed5760405162461bcd60e51b8152600401610a6690613db5565b6001600160a01b038216600090815260386020526040902060040180546122409061399d565b600b546000906001600160a01b031633146123405760405162461bcd60e51b8152600401610a6690613d26565b600c805460ff19169215159290921790915590565b3360009081526038602052604081205460ff1615156001146123895760405162461bcd60e51b8152600401610a66906139d7565b60255433600090815260386020526040902060020154106123bc5760405162461bcd60e51b8152600401610a6690613d55565b602d80546001810182556000919091527f4a2cc91ee622da3bc833a54c37ffcb6f3ec23b7793efc5eaf5e71b7b406c5c060180546001600160a01b03191633908117909155600a54600f54602c54602154604051636a82d9e160e01b81526001600160a01b0394851695636a82d9e19561243d951693929091600401613a72565b6020604051808303816000875af115801561245c573d6000803e3d6000fd5b505050506040513d601f19601f820116820180604052508101906124809190613a9c565b506025543360009081526038602090815260409091206002019190915554602d541061261e576124b2602d600061353c565b600c805461ffff1916600117905560006124cf6001546000540390565b6026549091506124e0826001613ab5565b11156124fe5760405162461bcd60e51b8152600401610a6690613ac8565b600a54602c54600f5460405163d6fe8fad60e01b815260048101929092526001600160a01b0390811660248301529091169063d6fe8fad906044016020604051808303816000875af1158015612558573d6000803e3d6000fd5b505050506040513d601f19601f8201168201806040525081019061257c9190613af8565b506000602c819055600f546001600160a01b031681526037602052604081208054916125a783613a59565b909155506125b99050600c6000610eb5565b600f80546001600160a01b03908116600090815260386020526040808220805460ff1916600117905592549091168152206004016125f8600e82613b63565b506024805490600061260983613a59565b919050555061261c602280546001019055565b505b602d546040805133815260208101929092527ffe60f7853ab389eb39ce1f7beebdc7a4afcd1dffa7f912fdbf4ea47fb9f0a5ba910160405180910390a1602d6000611456565b61266f848484612cc6565b6001600160a01b0383163b15158015612691575061268f84848484612fdb565b155b156126af576040516368d2bf6b60e11b815260040160405180910390fd5b50505050565b33600090815260386020526040902060040161173f8282613c6f565b60006001600160a01b0385166126f95760405162461bcd60e51b8152600401610a6690613db5565b60006127086001546000540390565b602654909150612719826001613ab5565b11156127375760405162461bcd60e51b8152600401610a6690613ac8565b6001600160a01b03861660009081526039602052604090205460ff161561277157604051630c8d9eab60e31b815260040160405180910390fd5b6040516bffffffffffffffffffffffff19606088901b16602082015260009060340160405160208183030381529060405280519060200120905060006127ee8686808060200260200160405190810160405280939291908181526020018383602002808284376000920191909152505060235486925090506130c3565b90508061280e57604051630b094f2760e31b815260040160405180910390fd5b6001600160a01b0388166000908152603960205260408120805460ff1916600117905561283a60225490565b6001600160a01b038a16600090815260376020526040812080549293509061286183613a59565b9190505550612871896001612cac565b6001600160a01b03891660009081526038602052604090206003810182905560040161289d8982613c6f565b50600a546040516365cc065d60e01b81526001600160a01b038b81166004830152909116906365cc065d906024016020604051808303816000875af11580156128ea573d6000803e3d6000fd5b505050506040513d601f19601f8201168201806040525081019061290e9190613af8565b506024805490600061291f83613a59565b9190505550612932602280546001019055565b98975050505050505050565b6008546001600160a01b0316331461295557600080fd5b600b80546001600160a01b0319166001600160a01b0392909216919091179055565b602980546114bc9061399d565b606061298f82612c25565b6129ac57604051630a14c4b560e41b815260040160405180910390fd5b60006129b66130d9565b905080516000036129df576040518060800160405280605d8152602001613ef2605d9139612a0d565b806129e9846130e8565b60296040516020016129fd93929190613de5565b6040516020818303038152906040525b9392505050565b6008546001600160a01b03163314612a2b57600080fd5b6001600160a01b038116612a515760405162461bcd60e51b8152600401610a6690613db5565b6001600160a01b03166000908152603860205260409020805460ff19169055565b60006001600160a01b038216612a9a5760405162461bcd60e51b8152600401610a6690613db5565b506001600160a01b031660009081526038602052604090206003015490565b60606000612aca6001546000540390565b602654909150612adb826001613ab5565b1115612af95760405162461bcd60e51b8152600401610a6690613ac8565b602880548291600091612b0b9061399d565b80601f0160208091040260200160405190810160405280929190818152602001828054612b379061399d565b8015612b845780601f10612b5957610100808354040283529160200191612b84565b820191906000526020600020905b815481529060010190602001808311612b6757829003601f168201915b505050505090506000815111612bb657604051806040016040528060048152602001636e6f6e6560e01b815250612be4565b80612bc0836130e8565b6029604051602001612bd493929190613de5565b6040516020818303038152906040525b935050505090565b6008546001600160a01b03163314612c0357600080fd5b600980546001600160a01b0319166001600160a01b0392909216919091179055565b6000805482108015610898575050600090815260046020526040902054600160e01b900460ff161590565b60008281526006602052604080822080546001600160a01b0319166001600160a01b0387811691821790925591518593918516917f8c5be1e5ebec7d5bd14f71427d1e84f3dd0314c0f7b2291e5b200ac8c7c3b92591a4505050565b61173f82826040518060200160405280600081525061317a565b6000612cd182612ec1565b9050836001600160a01b031681600001516001600160a01b031614612d085760405162a1148160e81b815260040160405180910390fd5b6000336001600160a01b0386161480612d265750612d26853361080b565b80612d41575033612d3684610961565b6001600160a01b0316145b905080612d6157604051632ce44b5f60e11b815260040160405180910390fd5b6001600160a01b038416612d8857604051633a954ecd60e21b815260040160405180910390fd5b612d958585856001613187565b612da160008487612c50565b6001600160a01b038581166000908152600560209081526040808320805467ffffffffffffffff198082166001600160401b0392831660001901831617909255898616808652838620805493841693831660019081018416949094179055898652600490945282852080546001600160e01b031916909417600160a01b42909216919091021783558701808452922080549193909116612e75576000548214612e7557805460208601516001600160401b0316600160a01b026001600160e01b03199091166001600160a01b038a16171781555b50505082846001600160a01b0316866001600160a01b03167fddf252ad1be2c89b69c2b068fc378daa952ba7f163c4a11628f55a4df523b3ef60405160405180910390a45b5050505050565b604080516060810182526000808252602082018190529181019190915281600054811015612fc257600081815260046020908152604091829020825160608101845290546001600160a01b0381168252600160a01b81046001600160401b031692820192909252600160e01b90910460ff16151591810182905290612fc05780516001600160a01b031615612f57579392505050565b5060001901600081815260046020908152604091829020825160608101845290546001600160a01b038116808352600160a01b82046001600160401b031693830193909352600160e01b900460ff1615159281019290925215612fbb579392505050565b612f57565b505b604051636f96cda160e11b815260040160405180910390fd5b604051630a85bd0160e11b81526000906001600160a01b0385169063150b7a0290613010903390899088908890600401613e97565b6020604051808303816000875af192505050801561304b575060408051601f3d908101601f1916820190925261304891810190613ed4565b60015b6130a9573d808015613079576040519150601f19603f3d011682016040523d82523d6000602084013e61307e565b606091505b5080516000036130a1576040516368d2bf6b60e11b815260040160405180910390fd5b805181602001fd5b6001600160e01b031916630a85bd0160e11b149050611714565b6000826130d0858461320d565b14949350505050565b6060602880546108de9061399d565b606060006130f58361325a565b60010190506000816001600160401b03811115613114576131146136e8565b6040519080825280601f01601f19166020018201604052801561313e576020820181803683370190505b5090508181016020015b600019016f181899199a1a9b1b9c1cb0b131b232b360811b600a86061a8153600a850494508461314857509392505050565b610a2d8383836001613332565b6001600160a01b03841615806131a457506001600160a01b038316155b806131bc57506008546001600160a01b038581169116145b6132085760405162461bcd60e51b815260206004820152601860248201527f6e6674206973206e6f74207472616e736665727261626c6500000000000000006044820152606401610a66565b6126af565b600081815b84518110156132525761323e8286838151811061323157613231613a0e565b6020026020010151613510565b91508061324a81613a59565b915050613212565b509392505050565b60008072184f03e93ff9f4daa797ed6e38ed64bf6a1f0160401b83106132995772184f03e93ff9f4daa797ed6e38ed64bf6a1f0160401b830492506040015b6d04ee2d6d415b85acef810000000083106132c5576d04ee2d6d415b85acef8100000000830492506020015b662386f26fc1000083106132e357662386f26fc10000830492506010015b6305f5e10083106132fb576305f5e100830492506008015b612710831061330f57612710830492506004015b60648310613321576064830492506002015b600a83106108985760010192915050565b6000546001600160a01b03851661335b57604051622e076360e81b815260040160405180910390fd5b8360000361337c5760405163b562e8dd60e01b815260040160405180910390fd5b6133896000868387613187565b6001600160a01b038516600081815260056020908152604080832080546fffffffffffffffffffffffffffffffff1981166001600160401b038083168c0181169182176801000000000000000067ffffffffffffffff1990941690921783900481168c01811690920217909155858452600490925290912080546001600160e01b031916909217600160a01b42909216919091021790558080850183801561343a57506001600160a01b0387163b15155b156134c2575b60405182906001600160a01b038916906000907fddf252ad1be2c89b69c2b068fc378daa952ba7f163c4a11628f55a4df523b3ef908290a461348b6000888480600101955088612fdb565b6134a8576040516368d2bf6b60e11b815260040160405180910390fd5b8082036134405782600054146134bd57600080fd5b613507565b5b6040516001830192906001600160a01b038916906000907fddf252ad1be2c89b69c2b068fc378daa952ba7f163c4a11628f55a4df523b3ef908290a48082036134c3575b50600055612eba565b600081831061352c576000828152602084905260409020612a0d565b5060009182526020526040902090565b508054600082559060005260206000209081019061355a919061355d565b50565b5b80821115613572576000815560010161355e565b5090565b6001600160e01b03198116811461355a57600080fd5b60006020828403121561359e57600080fd5b8135612a0d81613576565b801515811461355a57600080fd5b6000602082840312156135c957600080fd5b8135612a0d816135a9565b60005b838110156135ef5781810151838201526020016135d7565b50506000910152565b600081518084526136108160208601602086016135d4565b601f01601f19169290920160200192915050565b602081526000612a0d60208301846135f8565b60006020828403121561364957600080fd5b5035919050565b80356001600160a01b038116811461128557600080fd5b6000806040838503121561367a57600080fd5b61368383613650565b946020939093013593505050565b6000602082840312156136a357600080fd5b612a0d82613650565b6000806000606084860312156136c157600080fd5b6136ca84613650565b92506136d860208501613650565b9150604084013590509250925092565b634e487b7160e01b600052604160045260246000fd5b60006001600160401b0380841115613718576137186136e8565b604051601f8501601f19908116603f01168101908282118183101715613740576137406136e8565b8160405280935085815286868601111561375957600080fd5b858560208301376000602087830101525050509392505050565b600082601f83011261378457600080fd5b612a0d838335602085016136fe565b600080604083850312156137a657600080fd5b6137af83613650565b915060208301356001600160401b038111156137ca57600080fd5b6137d685828601613773565b9150509250929050565b6000602082840312156137f257600080fd5b81356001600160401b0381111561380857600080fd5b61171484828501613773565b6000806040838503121561382757600080fd5b61383083613650565b91506020830135613840816135a9565b809150509250929050565b6000806000806080858703121561386157600080fd5b61386a85613650565b935061387860208601613650565b92506040850135915060608501356001600160401b0381111561389a57600080fd5b8501601f810187136138ab57600080fd5b6138ba878235602084016136fe565b91505092959194509250565b600080600080606085870312156138dc57600080fd5b6138e585613650565b935060208501356001600160401b038082111561390157600080fd5b61390d88838901613773565b9450604087013591508082111561392357600080fd5b818701915087601f83011261393757600080fd5b81358181111561394657600080fd5b8860208260051b850101111561395b57600080fd5b95989497505060200194505050565b6000806040838503121561397d57600080fd5b61398683613650565b915061399460208401613650565b90509250929050565b600181811c908216806139b157607f821691505b6020821081036139d157634e487b7160e01b600052602260045260246000fd5b50919050565b60208082526019908201527f73656e646572206e65656420746f206265206163746976656400000000000000604082015260600190565b634e487b7160e01b600052603260045260246000fd5b634e487b7160e01b600052601160045260246000fd5b600060ff821660ff8103613a5057613a50613a24565b60010192915050565b600060018201613a6b57613a6b613a24565b5060010190565b6001600160a01b039485168152602081019390935292166040820152606081019190915260800190565b600060208284031215613aae57600080fd5b5051919050565b8082018082111561089857610898613a24565b6020808252601690820152751b585e08139195081b1a5b5a5d08195e18d95959195960521b604082015260600190565b600060208284031215613b0a57600080fd5b8151612a0d816135a9565b601f821115610a2d57600081815260208120601f850160051c81016020861015613b3c5750805b601f850160051c820191505b81811015613b5b57828155600101613b48565b505050505050565b818103613b6e575050565b613b78825461399d565b6001600160401b03811115613b8f57613b8f6136e8565b613ba381613b9d845461399d565b84613b15565b6000601f821160018114613bd75760008315613bbf5750848201545b600019600385901b1c1916600184901b178455612eba565b600085815260209020601f19841690600086815260209020845b83811015613c115782860154825560019586019590910190602001613bf1565b5085831015613c2f5781850154600019600388901b60f8161c191681555b5050505050600190811b01905550565b6020808252601690820152751d1a194818dbdb9d1c9858dd081a5cc81c185d5cd95960521b604082015260600190565b81516001600160401b03811115613c8857613c886136e8565b613c9681613b9d845461399d565b602080601f831160018114613ccb5760008415613cb35750858301515b600019600386901b1c1916600185901b178555613b5b565b600085815260208120601f198616915b82811015613cfa57888601518255948401946001909101908401613cdb565b5085821015613c2f57939096015160001960f8600387901b161c19169092555050600190811b01905550565b60208082526015908201527437b7363c9030b63637bb903337b91023b7bb32b93760591b604082015260600190565b6020808252601c908201527f796f7520616c726561647920737061776e65642074686973204e465400000000604082015260600190565b8181038181111561089857610898613a24565b634e487b7160e01b600052603160045260246000fd5b602080825260169082015275746f20697320746865207a65726f206164647265737360501b604082015260600190565b600084516020613df88285838a016135d4565b8184019150602f60f81b825260018651613e1781838601858b016135d4565b8654930192600090613e288161399d565b8184168015613e3e5760018114613e5757613e87565b60ff198316878601528115158202870185019350613e87565b896000528560002060005b83811015613e7d578154898201880152908601908701613e62565b5050848288010193505b50919a9950505050505050505050565b6001600160a01b0385811682528416602082015260408101839052608060608201819052600090613eca908301846135f8565b9695505050505050565b600060208284031215613ee657600080fd5b8151612a0d8161357656fe68747470733a2f2f736864772d64726976652e67656e65737973676f2e6e65742f477676517155624b587452356467575464727a3435416235346b41667a655061433342556632564637466f382f636f6c6c656374696f6e2e6a736f6ea2646970667358221220213ec619dadd62fa8759997b428368ac517cbf8733ecb59d73d08e97b90fddaa64736f6c6343000811003368747470733a2f2f736864772d64726976652e67656e65737973676f2e6e65742f477676517155624b587452356467575464727a3435416235346b41667a655061433342556632564637466f38",
  "linkReferences": {},
  "deployedLinkReferences": {}
}